{
  "_format": "hh-sol-artifact-1",
  "contractName": "UnidirectionalPaymentChannelHub",
  "sourceName": "contracts/UnidirectionalPaymentChannelHub.sol",
  "abi": [
    {
      "inputs": [],
      "stateMutability": "nonpayable",
      "type": "constructor"
    },
    {
      "anonymous": false,
      "inputs": [
        {
          "indexed": false,
          "internalType": "address",
          "name": "sender",
          "type": "address"
        },
        {
          "indexed": false,
          "internalType": "address",
          "name": "recipient",
          "type": "address"
        },
        {
          "indexed": false,
          "internalType": "address",
          "name": "tokenAddress",
          "type": "address"
        },
        {
          "indexed": false,
          "internalType": "uint256",
          "name": "amountToSender",
          "type": "uint256"
        },
        {
          "indexed": false,
          "internalType": "uint256",
          "name": "amountToRecipient",
          "type": "uint256"
        },
        {
          "indexed": false,
          "internalType": "bytes32",
          "name": "channelId",
          "type": "bytes32"
        }
      ],
      "name": "ChannelClosed",
      "type": "event"
    },
    {
      "anonymous": false,
      "inputs": [
        {
          "indexed": false,
          "internalType": "address",
          "name": "sender",
          "type": "address"
        },
        {
          "indexed": false,
          "internalType": "address",
          "name": "recipient",
          "type": "address"
        },
        {
          "indexed": false,
          "internalType": "address",
          "name": "tokenAddress",
          "type": "address"
        },
        {
          "indexed": false,
          "internalType": "uint256",
          "name": "newExpiration",
          "type": "uint256"
        },
        {
          "indexed": false,
          "internalType": "bytes32",
          "name": "channelId",
          "type": "bytes32"
        }
      ],
      "name": "ChannelExtended",
      "type": "event"
    },
    {
      "anonymous": false,
      "inputs": [
        {
          "indexed": false,
          "internalType": "address",
          "name": "sender",
          "type": "address"
        },
        {
          "indexed": false,
          "internalType": "address",
          "name": "recipient",
          "type": "address"
        },
        {
          "indexed": false,
          "internalType": "uint256",
          "name": "expiration",
          "type": "uint256"
        },
        {
          "indexed": false,
          "internalType": "address",
          "name": "tokenAddress",
          "type": "address"
        },
        {
          "indexed": false,
          "internalType": "uint256",
          "name": "tokenAmount",
          "type": "uint256"
        },
        {
          "indexed": false,
          "internalType": "bytes32",
          "name": "channelId",
          "type": "bytes32"
        }
      ],
      "name": "ChannelOpened",
      "type": "event"
    },
    {
      "anonymous": false,
      "inputs": [
        {
          "indexed": false,
          "internalType": "address",
          "name": "sender",
          "type": "address"
        },
        {
          "indexed": false,
          "internalType": "address",
          "name": "recipient",
          "type": "address"
        },
        {
          "indexed": false,
          "internalType": "address",
          "name": "tokenAddress",
          "type": "address"
        },
        {
          "indexed": false,
          "internalType": "uint256",
          "name": "tokenAmount",
          "type": "uint256"
        },
        {
          "indexed": false,
          "internalType": "bytes32",
          "name": "channelId",
          "type": "bytes32"
        }
      ],
      "name": "TimeoutClaimed",
      "type": "event"
    },
    {
      "inputs": [
        {
          "internalType": "address",
          "name": "recipient",
          "type": "address"
        },
        {
          "internalType": "address",
          "name": "tokenAddress",
          "type": "address"
        }
      ],
      "name": "claimTimeout",
      "outputs": [],
      "stateMutability": "nonpayable",
      "type": "function"
    },
    {
      "inputs": [
        {
          "internalType": "address",
          "name": "sender",
          "type": "address"
        },
        {
          "internalType": "address",
          "name": "recipient",
          "type": "address"
        },
        {
          "internalType": "address",
          "name": "tokenAddress",
          "type": "address"
        },
        {
          "internalType": "uint256",
          "name": "amount",
          "type": "uint256"
        },
        {
          "internalType": "bytes",
          "name": "signature",
          "type": "bytes"
        }
      ],
      "name": "close",
      "outputs": [],
      "stateMutability": "nonpayable",
      "type": "function"
    },
    {
      "inputs": [
        {
          "internalType": "address",
          "name": "recipient",
          "type": "address"
        },
        {
          "internalType": "address",
          "name": "tokenAddress",
          "type": "address"
        },
        {
          "internalType": "uint256",
          "name": "newExpiration",
          "type": "uint256"
        }
      ],
      "name": "extend",
      "outputs": [],
      "stateMutability": "nonpayable",
      "type": "function"
    },
    {
      "inputs": [
        {
          "internalType": "bytes32",
          "name": "id",
          "type": "bytes32"
        }
      ],
      "name": "getIdToChannel",
      "outputs": [
        {
          "components": [
            {
              "internalType": "address payable",
              "name": "sender",
              "type": "address"
            },
            {
              "internalType": "address payable",
              "name": "recipient",
              "type": "address"
            },
            {
              "internalType": "address",
              "name": "tokenAddress",
              "type": "address"
            },
            {
              "internalType": "uint256",
              "name": "expiration",
              "type": "uint256"
            },
            {
              "internalType": "uint256",
              "name": "amount",
              "type": "uint256"
            },
            {
              "internalType": "bool",
              "name": "open",
              "type": "bool"
            }
          ],
          "internalType": "struct UnidirectionalPaymentChannelHub.PaymentChannel",
          "name": "",
          "type": "tuple"
        }
      ],
      "stateMutability": "view",
      "type": "function"
    },
    {
      "inputs": [
        {
          "internalType": "address",
          "name": "sender",
          "type": "address"
        },
        {
          "internalType": "address",
          "name": "recipient",
          "type": "address"
        },
        {
          "internalType": "address",
          "name": "tokenAddress",
          "type": "address"
        }
      ],
      "name": "getPaymentChannel",
      "outputs": [
        {
          "components": [
            {
              "internalType": "address payable",
              "name": "sender",
              "type": "address"
            },
            {
              "internalType": "address payable",
              "name": "recipient",
              "type": "address"
            },
            {
              "internalType": "address",
              "name": "tokenAddress",
              "type": "address"
            },
            {
              "internalType": "uint256",
              "name": "expiration",
              "type": "uint256"
            },
            {
              "internalType": "uint256",
              "name": "amount",
              "type": "uint256"
            },
            {
              "internalType": "bool",
              "name": "open",
              "type": "bool"
            }
          ],
          "internalType": "struct UnidirectionalPaymentChannelHub.PaymentChannel",
          "name": "",
          "type": "tuple"
        }
      ],
      "stateMutability": "view",
      "type": "function"
    },
    {
      "inputs": [
        {
          "internalType": "address",
          "name": "sender",
          "type": "address"
        },
        {
          "internalType": "address",
          "name": "recipient",
          "type": "address"
        },
        {
          "internalType": "address",
          "name": "tokenAddress",
          "type": "address"
        }
      ],
      "name": "getUsersToId",
      "outputs": [
        {
          "internalType": "bytes32",
          "name": "",
          "type": "bytes32"
        }
      ],
      "stateMutability": "view",
      "type": "function"
    },
    {
      "inputs": [
        {
          "internalType": "bytes32",
          "name": "",
          "type": "bytes32"
        }
      ],
      "name": "idToChannel",
      "outputs": [
        {
          "internalType": "address payable",
          "name": "sender",
          "type": "address"
        },
        {
          "internalType": "address payable",
          "name": "recipient",
          "type": "address"
        },
        {
          "internalType": "address",
          "name": "tokenAddress",
          "type": "address"
        },
        {
          "internalType": "uint256",
          "name": "expiration",
          "type": "uint256"
        },
        {
          "internalType": "uint256",
          "name": "amount",
          "type": "uint256"
        },
        {
          "internalType": "bool",
          "name": "open",
          "type": "bool"
        }
      ],
      "stateMutability": "view",
      "type": "function"
    },
    {
      "inputs": [
        {
          "internalType": "address",
          "name": "sender",
          "type": "address"
        },
        {
          "internalType": "address",
          "name": "recipient",
          "type": "address"
        },
        {
          "internalType": "address",
          "name": "tokenAddress",
          "type": "address"
        },
        {
          "internalType": "uint256",
          "name": "amount",
          "type": "uint256"
        },
        {
          "internalType": "bytes",
          "name": "signature",
          "type": "bytes"
        }
      ],
      "name": "isValidSignature",
      "outputs": [
        {
          "internalType": "bool",
          "name": "",
          "type": "bool"
        }
      ],
      "stateMutability": "view",
      "type": "function"
    },
    {
      "inputs": [
        {
          "internalType": "address payable",
          "name": "recipient",
          "type": "address"
        },
        {
          "internalType": "uint256",
          "name": "duration",
          "type": "uint256"
        },
        {
          "internalType": "address",
          "name": "tokenAddress",
          "type": "address"
        },
        {
          "internalType": "uint256",
          "name": "tokenAmount",
          "type": "uint256"
        }
      ],
      "name": "open",
      "outputs": [],
      "stateMutability": "payable",
      "type": "function"
    },
    {
      "inputs": [
        {
          "internalType": "address",
          "name": "",
          "type": "address"
        },
        {
          "internalType": "address",
          "name": "",
          "type": "address"
        },
        {
          "internalType": "address",
          "name": "",
          "type": "address"
        }
      ],
      "name": "usersToId",
      "outputs": [
        {
          "internalType": "bytes32",
          "name": "",
          "type": "bytes32"
        }
      ],
      "stateMutability": "view",
      "type": "function"
    }
  ],
  "bytecode": "0x608060405234801561001057600080fd5b5061303b806100206000396000f3fe6080604052600436106100915760003560e01c80635a79c740116100595780635a79c740146101a457806367f88f17146101e1578063b44103071461020a578063c60381dd14610247578063eb671c0a1461026357610091565b80631b1bd202146100965780631d002a07146100bf5780633740da16146100fc57806351eff441146101255780635957c92714610167575b600080fd5b3480156100a257600080fd5b506100bd60048036038101906100b891906121d5565b6102a0565b005b3480156100cb57600080fd5b506100e660048036038101906100e19190612367565b6106c2565b6040516100f39190612dc7565b60405180910390f35b34801561010857600080fd5b50610123600480360381019061011e9190612260565b610820565b005b34801561013157600080fd5b5061014c60048036038101906101479190612367565b610e99565b60405161015e96959493929190612a49565b60405180910390f35b34801561017357600080fd5b5061018e60048036038101906101899190612211565b610f42565b60405161019b9190612be7565b60405180910390f35b3480156101b057600080fd5b506101cb60048036038101906101c69190612211565b610f74565b6040516101d89190612be7565b60405180910390f35b3480156101ed57600080fd5b50610208600480360381019061020391906122ef565b611038565b005b34801561021657600080fd5b50610231600480360381019061022c9190612260565b61127d565b60405161023e9190612bcc565b60405180910390f35b610261600480360381019061025c9190612172565b611560565b005b34801561026f57600080fd5b5061028a60048036038101906102859190612211565b611c2c565b6040516102979190612dc7565b60405180910390f35b6102ab338383611ea0565b6102ea576040517f08c379a00000000000000000000000000000000000000000000000000000000081526004016102e190612d07565b60405180910390fd5b60008060003373ffffffffffffffffffffffffffffffffffffffff1673ffffffffffffffffffffffffffffffffffffffff16815260200190815260200160002060008473ffffffffffffffffffffffffffffffffffffffff1673ffffffffffffffffffffffffffffffffffffffff16815260200190815260200160002060008373ffffffffffffffffffffffffffffffffffffffff1673ffffffffffffffffffffffffffffffffffffffff168152602001908152602001600020549050600060016000838152602001908152602001600020905080600301544210156103cf57600080fd5b8060000160009054906101000a900473ffffffffffffffffffffffffffffffffffffffff1673ffffffffffffffffffffffffffffffffffffffff163373ffffffffffffffffffffffffffffffffffffffff161461042b57600080fd5b600115158160050160009054906101000a900460ff1615151461044d57600080fd5b60008160050160006101000a81548160ff021916908315150217905550600073ffffffffffffffffffffffffffffffffffffffff168373ffffffffffffffffffffffffffffffffffffffff161461059d5760008390508073ffffffffffffffffffffffffffffffffffffffff1663a9059cbb8360000160009054906101000a900473ffffffffffffffffffffffffffffffffffffffff1684600401546040518363ffffffff1660e01b8152600401610506929190612ba3565b602060405180830381600087803b15801561052057600080fd5b505af1158015610534573d6000803e3d6000fd5b505050506040513d601f19601f82011682018060405250810190610558919061233e565b610597576040517f08c379a000000000000000000000000000000000000000000000000000000000815260040161058e90612ca7565b60405180910390fd5b5061060d565b8060000160009054906101000a900473ffffffffffffffffffffffffffffffffffffffff1673ffffffffffffffffffffffffffffffffffffffff166108fc82600401549081150290604051600060405180830381858888f1935050505015801561060b573d6000803e3d6000fd5b505b7f29a2e1880b4bc0874cff18ad845fe15413ad55dc3b6d8153a34fdc24839af7c18160000160009054906101000a900473ffffffffffffffffffffffffffffffffffffffff168260010160009054906101000a900473ffffffffffffffffffffffffffffffffffffffff168360020160009054906101000a900473ffffffffffffffffffffffffffffffffffffffff168460040154866040516106b49594939291906129f6565b60405180910390a150505050565b6106ca61203b565b600160008381526020019081526020016000206040518060c00160405290816000820160009054906101000a900473ffffffffffffffffffffffffffffffffffffffff1673ffffffffffffffffffffffffffffffffffffffff1673ffffffffffffffffffffffffffffffffffffffff1681526020016001820160009054906101000a900473ffffffffffffffffffffffffffffffffffffffff1673ffffffffffffffffffffffffffffffffffffffff1673ffffffffffffffffffffffffffffffffffffffff1681526020016002820160009054906101000a900473ffffffffffffffffffffffffffffffffffffffff1673ffffffffffffffffffffffffffffffffffffffff1673ffffffffffffffffffffffffffffffffffffffff16815260200160038201548152602001600482015481526020016005820160009054906101000a900460ff1615151515815250509050919050565b61082b858585611ea0565b61086a576040517f08c379a000000000000000000000000000000000000000000000000000000000815260040161086190612d07565b60405180910390fd5b60008060008773ffffffffffffffffffffffffffffffffffffffff1673ffffffffffffffffffffffffffffffffffffffff16815260200190815260200160002060008673ffffffffffffffffffffffffffffffffffffffff1673ffffffffffffffffffffffffffffffffffffffff16815260200190815260200160002060008573ffffffffffffffffffffffffffffffffffffffff1673ffffffffffffffffffffffffffffffffffffffff168152602001908152602001600020549050600060016000838152602001908152602001600020905060018160050160006101000a81548160ff0219169083151502179055610999576040517f08c379a000000000000000000000000000000000000000000000000000000000815260040161099090612c47565b60405180910390fd5b8060010160009054906101000a900473ffffffffffffffffffffffffffffffffffffffff1673ffffffffffffffffffffffffffffffffffffffff163373ffffffffffffffffffffffffffffffffffffffff1614610a2b576040517f08c379a0000000000000000000000000000000000000000000000000000000008152600401610a2290612d27565b60405180910390fd5b8060040154841115610a72576040517f08c379a0000000000000000000000000000000000000000000000000000000008152600401610a6990612da7565b60405180910390fd5b610a7f878787878761127d565b610abe576040517f08c379a0000000000000000000000000000000000000000000000000000000008152600401610ab590612d67565b60405180910390fd5b60008160050160006101000a81548160ff021916908315150217905550600073ffffffffffffffffffffffffffffffffffffffff168573ffffffffffffffffffffffffffffffffffffffff1614610d005760008590508073ffffffffffffffffffffffffffffffffffffffff1663a9059cbb8360010160009054906101000a900473ffffffffffffffffffffffffffffffffffffffff16876040518363ffffffff1660e01b8152600401610b73929190612ba3565b602060405180830381600087803b158015610b8d57600080fd5b505af1158015610ba1573d6000803e3d6000fd5b505050506040513d601f19601f82011682018060405250810190610bc5919061233e565b610c04576040517f08c379a0000000000000000000000000000000000000000000000000000000008152600401610bfb90612cc7565b60405180910390fd5b8073ffffffffffffffffffffffffffffffffffffffff1663a9059cbb8360000160009054906101000a900473ffffffffffffffffffffffffffffffffffffffff16878560040154036040518363ffffffff1660e01b8152600401610c69929190612ba3565b602060405180830381600087803b158015610c8357600080fd5b505af1158015610c97573d6000803e3d6000fd5b505050506040513d601f19601f82011682018060405250810190610cbb919061233e565b610cfa576040517f08c379a0000000000000000000000000000000000000000000000000000000008152600401610cf190612cc7565b60405180910390fd5b50610ddd565b8060010160009054906101000a900473ffffffffffffffffffffffffffffffffffffffff1673ffffffffffffffffffffffffffffffffffffffff166108fc859081150290604051600060405180830381858888f19350505050158015610d6a573d6000803e3d6000fd5b508060000160009054906101000a900473ffffffffffffffffffffffffffffffffffffffff1673ffffffffffffffffffffffffffffffffffffffff166108fc858360040154039081150290604051600060405180830381858888f19350505050158015610ddb573d6000803e3d6000fd5b505b7f6c9ab8a3c686a1f1c443be03821bef50d9159a4d2136e466495487315d48b0398160000160009054906101000a900473ffffffffffffffffffffffffffffffffffffffff168260010160009054906101000a900473ffffffffffffffffffffffffffffffffffffffff168360020160009054906101000a900473ffffffffffffffffffffffffffffffffffffffff16878560040154038887604051610e8896959493929190612aaa565b60405180910390a150505050505050565b60016020528060005260406000206000915090508060000160009054906101000a900473ffffffffffffffffffffffffffffffffffffffff16908060010160009054906101000a900473ffffffffffffffffffffffffffffffffffffffff16908060020160009054906101000a900473ffffffffffffffffffffffffffffffffffffffff16908060030154908060040154908060050160009054906101000a900460ff16905086565b600060205282600052604060002060205281600052604060002060205280600052604060002060009250925050505481565b60008060008573ffffffffffffffffffffffffffffffffffffffff1673ffffffffffffffffffffffffffffffffffffffff16815260200190815260200160002060008473ffffffffffffffffffffffffffffffffffffffff1673ffffffffffffffffffffffffffffffffffffffff16815260200190815260200160002060008373ffffffffffffffffffffffffffffffffffffffff1673ffffffffffffffffffffffffffffffffffffffff1681526020019081526020016000205490509392505050565b611043338484611ea0565b611082576040517f08c379a000000000000000000000000000000000000000000000000000000000815260040161107990612d07565b60405180910390fd5b60008060003373ffffffffffffffffffffffffffffffffffffffff1673ffffffffffffffffffffffffffffffffffffffff16815260200190815260200160002060008573ffffffffffffffffffffffffffffffffffffffff1673ffffffffffffffffffffffffffffffffffffffff16815260200190815260200160002060008473ffffffffffffffffffffffffffffffffffffffff1673ffffffffffffffffffffffffffffffffffffffff16815260200190815260200160002054905060006001600083815260200190815260200160002090508060000160009054906101000a900473ffffffffffffffffffffffffffffffffffffffff1673ffffffffffffffffffffffffffffffffffffffff163373ffffffffffffffffffffffffffffffffffffffff16146111b257600080fd5b806003015483116111c257600080fd5b8281600301819055507f23b9e1f06c4bfa9e25ade010c2208cb5c199e3ca08235fd74bafd85cf5e8f78f8160000160009054906101000a900473ffffffffffffffffffffffffffffffffffffffff168260010160009054906101000a900473ffffffffffffffffffffffffffffffffffffffff168360020160009054906101000a900473ffffffffffffffffffffffffffffffffffffffff16868660405161126e9594939291906129f6565b60405180910390a15050505050565b600061128a868686611ea0565b6112c9576040517f08c379a00000000000000000000000000000000000000000000000000000000081526004016112c090612d07565b60405180910390fd5b60008060008873ffffffffffffffffffffffffffffffffffffffff1673ffffffffffffffffffffffffffffffffffffffff16815260200190815260200160002060008773ffffffffffffffffffffffffffffffffffffffff1673ffffffffffffffffffffffffffffffffffffffff16815260200190815260200160002060008673ffffffffffffffffffffffffffffffffffffffff1673ffffffffffffffffffffffffffffffffffffffff16815260200190815260200160002054905061138e61203b565b600160008381526020019081526020016000206040518060c00160405290816000820160009054906101000a900473ffffffffffffffffffffffffffffffffffffffff1673ffffffffffffffffffffffffffffffffffffffff1673ffffffffffffffffffffffffffffffffffffffff1681526020016001820160009054906101000a900473ffffffffffffffffffffffffffffffffffffffff1673ffffffffffffffffffffffffffffffffffffffff1673ffffffffffffffffffffffffffffffffffffffff1681526020016002820160009054906101000a900473ffffffffffffffffffffffffffffffffffffffff1673ffffffffffffffffffffffffffffffffffffffff1673ffffffffffffffffffffffffffffffffffffffff16815260200160038201548152602001600482015481526020016005820160009054906101000a900460ff161515151581525050905060006115143084886040516020016114f993929190612993565b60405160208183030381529060405280519060200120611f6a565b9050816000015173ffffffffffffffffffffffffffffffffffffffff1661153b8287611f9a565b73ffffffffffffffffffffffffffffffffffffffff1614935050505095945050505050565b8373ffffffffffffffffffffffffffffffffffffffff163373ffffffffffffffffffffffffffffffffffffffff1614156115cf576040517f08c379a00000000000000000000000000000000000000000000000000000000081526004016115c690612d47565b60405180910390fd5b600073ffffffffffffffffffffffffffffffffffffffff168473ffffffffffffffffffffffffffffffffffffffff16141561163f576040517f08c379a000000000000000000000000000000000000000000000000000000000815260040161163690612c67565b60405180910390fd5b61164a338584611ea0565b156117785760008060003373ffffffffffffffffffffffffffffffffffffffff1673ffffffffffffffffffffffffffffffffffffffff16815260200190815260200160002060008673ffffffffffffffffffffffffffffffffffffffff1673ffffffffffffffffffffffffffffffffffffffff16815260200190815260200160002060008473ffffffffffffffffffffffffffffffffffffffff1673ffffffffffffffffffffffffffffffffffffffff168152602001908152602001600020549050600015156001600083815260200190815260200160002060050160009054906101000a900460ff16151514611776576040517f08c379a000000000000000000000000000000000000000000000000000000000815260040161176d90612c87565b60405180910390fd5b505b60008073ffffffffffffffffffffffffffffffffffffffff168373ffffffffffffffffffffffffffffffffffffffff16146118cc57600034146117f0576040517f08c379a00000000000000000000000000000000000000000000000000000000081526004016117e790612ce7565b60405180910390fd5b81905060008390508073ffffffffffffffffffffffffffffffffffffffff166323b872dd3330866040518463ffffffff1660e01b815260040161183593929190612b6c565b602060405180830381600087803b15801561184f57600080fd5b505af1158015611863573d6000803e3d6000fd5b505050506040513d601f19601f82011682018060405250810190611887919061233e565b6118c6576040517f08c379a00000000000000000000000000000000000000000000000000000000081526004016118bd90612ca7565b60405180910390fd5b50611956565b6000341161190f576040517f08c379a000000000000000000000000000000000000000000000000000000000815260040161190690612d87565b60405180910390fd5b60008214611952576040517f08c379a000000000000000000000000000000000000000000000000000000000815260040161194990612ce7565b60405180910390fd5b3490505b600033864260405160200161196d93929190612956565b60405160208183030381529060405280519060200120905061198d61203b565b6040518060c001604052803373ffffffffffffffffffffffffffffffffffffffff1681526020018873ffffffffffffffffffffffffffffffffffffffff1681526020018673ffffffffffffffffffffffffffffffffffffffff1681526020018742018152602001848152602001600115158152509050816000803373ffffffffffffffffffffffffffffffffffffffff1673ffffffffffffffffffffffffffffffffffffffff16815260200190815260200160002060008973ffffffffffffffffffffffffffffffffffffffff1673ffffffffffffffffffffffffffffffffffffffff16815260200190815260200160002060008773ffffffffffffffffffffffffffffffffffffffff1673ffffffffffffffffffffffffffffffffffffffff16815260200190815260200160002081905550806001600084815260200190815260200160002060008201518160000160006101000a81548173ffffffffffffffffffffffffffffffffffffffff021916908373ffffffffffffffffffffffffffffffffffffffff16021790555060208201518160010160006101000a81548173ffffffffffffffffffffffffffffffffffffffff021916908373ffffffffffffffffffffffffffffffffffffffff16021790555060408201518160020160006101000a81548173ffffffffffffffffffffffffffffffffffffffff021916908373ffffffffffffffffffffffffffffffffffffffff160217905550606082015181600301556080820151816004015560a08201518160050160006101000a81548160ff0219169083151502179055509050507fdda86c7d639eccd8cd03a4ae2fa0066be3c2757043deab0143d1fe33675b8a5d3388884201888787604051611c1b96959493929190612b0b565b60405180910390a150505050505050565b611c3461203b565b611c3f848484611ea0565b611c7e576040517f08c379a0000000000000000000000000000000000000000000000000000000008152600401611c7590612d07565b60405180910390fd5b60008060008673ffffffffffffffffffffffffffffffffffffffff1673ffffffffffffffffffffffffffffffffffffffff16815260200190815260200160002060008573ffffffffffffffffffffffffffffffffffffffff1673ffffffffffffffffffffffffffffffffffffffff16815260200190815260200160002060008473ffffffffffffffffffffffffffffffffffffffff1673ffffffffffffffffffffffffffffffffffffffff168152602001908152602001600020549050611d4361203b565b600160008381526020019081526020016000206040518060c00160405290816000820160009054906101000a900473ffffffffffffffffffffffffffffffffffffffff1673ffffffffffffffffffffffffffffffffffffffff1673ffffffffffffffffffffffffffffffffffffffff1681526020016001820160009054906101000a900473ffffffffffffffffffffffffffffffffffffffff1673ffffffffffffffffffffffffffffffffffffffff1673ffffffffffffffffffffffffffffffffffffffff1681526020016002820160009054906101000a900473ffffffffffffffffffffffffffffffffffffffff1673ffffffffffffffffffffffffffffffffffffffff1673ffffffffffffffffffffffffffffffffffffffff16815260200160038201548152602001600482015481526020016005820160009054906101000a900460ff161515151581525050905080925050509392505050565b60008060001b6000808673ffffffffffffffffffffffffffffffffffffffff1673ffffffffffffffffffffffffffffffffffffffff16815260200190815260200160002060008573ffffffffffffffffffffffffffffffffffffffff1673ffffffffffffffffffffffffffffffffffffffff16815260200190815260200160002060008473ffffffffffffffffffffffffffffffffffffffff1673ffffffffffffffffffffffffffffffffffffffff16815260200190815260200160002054141590509392505050565b600081604051602001611f7d91906129d0565b604051602081830303815290604052805190602001209050919050565b600080600080611fa985612009565b92509250925060018684848460405160008152602001604052604051611fd29493929190612c02565b6020604051602081039080840390855afa158015611ff4573d6000803e3d6000fd5b50505060206040510351935050505092915050565b6000806000604184511461201c57600080fd5b6020840151915060408401519050606084015160001a92509193909250565b6040518060c00160405280600073ffffffffffffffffffffffffffffffffffffffff168152602001600073ffffffffffffffffffffffffffffffffffffffff168152602001600073ffffffffffffffffffffffffffffffffffffffff16815260200160008152602001600081526020016000151581525090565b6000813590506120c481612f92565b92915050565b6000813590506120d981612fa9565b92915050565b6000815190506120ee81612fc0565b92915050565b60008135905061210381612fd7565b92915050565b600082601f83011261211a57600080fd5b813561212d61212882612e13565b612de2565b9150808252602083016020830185838301111561214957600080fd5b612154838284612f2a565b50505092915050565b60008135905061216c81612fee565b92915050565b6000806000806080858703121561218857600080fd5b6000612196878288016120ca565b94505060206121a78782880161215d565b93505060406121b8878288016120b5565b92505060606121c98782880161215d565b91505092959194509250565b600080604083850312156121e857600080fd5b60006121f6858286016120b5565b9250506020612207858286016120b5565b9150509250929050565b60008060006060848603121561222657600080fd5b6000612234868287016120b5565b9350506020612245868287016120b5565b9250506040612256868287016120b5565b9150509250925092565b600080600080600060a0868803121561227857600080fd5b6000612286888289016120b5565b9550506020612297888289016120b5565b94505060406122a8888289016120b5565b93505060606122b98882890161215d565b925050608086013567ffffffffffffffff8111156122d657600080fd5b6122e288828901612109565b9150509295509295909350565b60008060006060848603121561230457600080fd5b6000612312868287016120b5565b9350506020612323868287016120b5565b92505060406123348682870161215d565b9150509250925092565b60006020828403121561235057600080fd5b600061235e848285016120df565b91505092915050565b60006020828403121561237957600080fd5b6000612387848285016120f4565b91505092915050565b61239981612ed0565b82525050565b6123a881612e71565b82525050565b6123b781612e71565b82525050565b6123ce6123c982612e71565b612f4b565b82525050565b6123dd81612e5f565b82525050565b6123ec81612e5f565b82525050565b6123fb81612e83565b82525050565b61240a81612e83565b82525050565b61241981612e8f565b82525050565b61243061242b82612e8f565b612f5d565b82525050565b61244761244282612ee2565b612f39565b82525050565b600061245a601c83612e54565b91507f19457468657265756d205369676e6564204d6573736167653a0a3332000000006000830152601c82019050919050565b600061249a601083612e43565b91507f4368616e6e656c206e6f74206f70656e000000000000000000000000000000006000830152602082019050919050565b60006124da601783612e43565b91507f526563697069656e742063616e2774206265207a65726f0000000000000000006000830152602082019050919050565b600061251a604183612e43565b91507f436f6e7472616374206265747765656e2074686573652061646472657373657360008301527f207573696e67207468697320746f6b656e20697320616c7265616479206f706560208301527f6e000000000000000000000000000000000000000000000000000000000000006040830152606082019050919050565b60006125a6601f83612e43565b91507f546f6b656e7320636f756c64206e6f74206265207472616e73666572726564006000830152602082019050919050565b60006125e6602c83612e43565b91507f546f6b656e7320636f756c64206e6f74206265207472616e736665727265642060008301527f746f20726563697069656e7400000000000000000000000000000000000000006020830152604082019050919050565b600061264c602e83612e43565b91507f457468657220616e6420455243323020746f6b656e732063616e6e6f7420626560008301527f207573656420746f6765746865720000000000000000000000000000000000006020830152604082019050919050565b60006126b2601683612e43565b91507f4368616e6e656c20646f6573206e6f74206578697374000000000000000000006000830152602082019050919050565b60006126f2602483612e43565b91507f4f6e6c7920726563697069656e742063616e20636c6f7365207468652063686160008301527f6e6e656c000000000000000000000000000000000000000000000000000000006020830152604082019050919050565b6000612758602f83612e43565b91507f53656e64657220616e6420726563697069656e742063616e6e6f74206265207460008301527f68652073616d65206164647265737300000000000000000000000000000000006020830152604082019050919050565b60006127be601583612e43565b91507f4e6f7420612076616c6964207369676e617475726500000000000000000000006000830152602082019050919050565b60006127fe601683612e43565b91507f4574686572206d75737420626520737570706c696564000000000000000000006000830152602082019050919050565b600061283e603483612e43565b91507f5369676e656420616d6f756e7420697320686967686572207468616e2070617960008301527f6d656e74206368616e6e656c2062616c616e63650000000000000000000000006020830152604082019050919050565b60c0820160008201516128ad600085018261239f565b5060208201516128c0602085018261239f565b5060408201516128d360408501826123d4565b5060608201516128e66060850182612912565b5060808201516128f96080850182612912565b5060a082015161290c60a08501826123f2565b50505050565b61291b81612eb9565b82525050565b61292a81612eb9565b82525050565b61294161293c82612eb9565b612f79565b82525050565b61295081612ec3565b82525050565b600061296282866123bd565b60148201915061297282856123bd565b6014820191506129828284612930565b602082019150819050949350505050565b600061299f8286612436565b6014820191506129af828561241f565b6020820191506129bf8284612930565b602082019150819050949350505050565b60006129db8261244d565b91506129e7828461241f565b60208201915081905092915050565b600060a082019050612a0b6000830188612390565b612a186020830187612390565b612a2560408301866123e3565b612a326060830185612921565b612a3f6080830184612410565b9695505050505050565b600060c082019050612a5e60008301896123ae565b612a6b60208301886123ae565b612a7860408301876123e3565b612a856060830186612921565b612a926080830185612921565b612a9f60a0830184612401565b979650505050505050565b600060c082019050612abf6000830189612390565b612acc6020830188612390565b612ad960408301876123e3565b612ae66060830186612921565b612af36080830185612921565b612b0060a0830184612410565b979650505050505050565b600060c082019050612b206000830189612390565b612b2d6020830188612390565b612b3a6040830187612921565b612b4760608301866123e3565b612b546080830185612921565b612b6160a0830184612410565b979650505050505050565b6000606082019050612b816000830186612390565b612b8e60208301856123e3565b612b9b6040830184612921565b949350505050565b6000604082019050612bb86000830185612390565b612bc56020830184612921565b9392505050565b6000602082019050612be16000830184612401565b92915050565b6000602082019050612bfc6000830184612410565b92915050565b6000608082019050612c176000830187612410565b612c246020830186612947565b612c316040830185612410565b612c3e6060830184612410565b95945050505050565b60006020820190508181036000830152612c608161248d565b9050919050565b60006020820190508181036000830152612c80816124cd565b9050919050565b60006020820190508181036000830152612ca08161250d565b9050919050565b60006020820190508181036000830152612cc081612599565b9050919050565b60006020820190508181036000830152612ce0816125d9565b9050919050565b60006020820190508181036000830152612d008161263f565b9050919050565b60006020820190508181036000830152612d20816126a5565b9050919050565b60006020820190508181036000830152612d40816126e5565b9050919050565b60006020820190508181036000830152612d608161274b565b9050919050565b60006020820190508181036000830152612d80816127b1565b9050919050565b60006020820190508181036000830152612da0816127f1565b9050919050565b60006020820190508181036000830152612dc081612831565b9050919050565b600060c082019050612ddc6000830184612897565b92915050565b6000604051905081810181811067ffffffffffffffff82111715612e0957612e08612f83565b5b8060405250919050565b600067ffffffffffffffff821115612e2e57612e2d612f83565b5b601f19601f8301169050602081019050919050565b600082825260208201905092915050565b600081905092915050565b6000612e6a82612e99565b9050919050565b6000612e7c82612e99565b9050919050565b60008115159050919050565b6000819050919050565b600073ffffffffffffffffffffffffffffffffffffffff82169050919050565b6000819050919050565b600060ff82169050919050565b6000612edb82612f06565b9050919050565b6000612eed82612ef4565b9050919050565b6000612eff82612e99565b9050919050565b6000612f1182612f18565b9050919050565b6000612f2382612e99565b9050919050565b82818337600083830152505050565b6000612f4482612f67565b9050919050565b6000612f5682612f67565b9050919050565b6000819050919050565b6000612f7282612f85565b9050919050565b6000819050919050565bfe5b60008160601b9050919050565b612f9b81612e5f565b8114612fa657600080fd5b50565b612fb281612e71565b8114612fbd57600080fd5b50565b612fc981612e83565b8114612fd457600080fd5b50565b612fe081612e8f565b8114612feb57600080fd5b50565b612ff781612eb9565b811461300257600080fd5b5056fea26469706673582212206914dacb12c31b5670f38d2424fe5c23e33b5bd32114becd8ae085da69dc591264736f6c63430007030033",
  "linkReferences": {},
  "deployedLinkReferences": {}
}