{
  "contracts/UnidirectionalPaymentChannelHub.sol": {
    "UnidirectionalPaymentChannelHub": {
      "abi": [
        {
          "inputs": [],
          "stateMutability": "nonpayable",
          "type": "constructor"
        },
        {
          "inputs": [
            {
              "internalType": "address",
              "name": "recipient",
              "type": "address"
            },
            {
              "internalType": "address",
              "name": "tokenAddress",
              "type": "address"
            }
          ],
          "name": "claimTimeout",
          "outputs": [],
          "stateMutability": "nonpayable",
          "type": "function"
        },
        {
          "inputs": [
            {
              "internalType": "address",
              "name": "sender",
              "type": "address"
            },
            {
              "internalType": "address",
              "name": "recipient",
              "type": "address"
            },
            {
              "internalType": "address",
              "name": "tokenAddress",
              "type": "address"
            },
            {
              "internalType": "uint256",
              "name": "amount",
              "type": "uint256"
            },
            {
              "internalType": "bytes",
              "name": "signature",
              "type": "bytes"
            }
          ],
          "name": "close",
          "outputs": [],
          "stateMutability": "nonpayable",
          "type": "function"
        },
        {
          "inputs": [
            {
              "internalType": "address",
              "name": "recipient",
              "type": "address"
            },
            {
              "internalType": "address",
              "name": "tokenAddress",
              "type": "address"
            },
            {
              "internalType": "uint256",
              "name": "newExpiration",
              "type": "uint256"
            }
          ],
          "name": "extend",
          "outputs": [],
          "stateMutability": "nonpayable",
          "type": "function"
        },
        {
          "inputs": [
            {
              "internalType": "bytes32",
              "name": "id",
              "type": "bytes32"
            }
          ],
          "name": "getIdToChannel",
          "outputs": [
            {
              "components": [
                {
                  "internalType": "address payable",
                  "name": "sender",
                  "type": "address"
                },
                {
                  "internalType": "address payable",
                  "name": "recipient",
                  "type": "address"
                },
                {
                  "internalType": "address",
                  "name": "tokenAddress",
                  "type": "address"
                },
                {
                  "internalType": "uint256",
                  "name": "expiration",
                  "type": "uint256"
                },
                {
                  "internalType": "uint256",
                  "name": "amount",
                  "type": "uint256"
                },
                {
                  "internalType": "bool",
                  "name": "open",
                  "type": "bool"
                }
              ],
              "internalType": "struct UnidirectionalPaymentChannelHub.PaymentChannel",
              "name": "",
              "type": "tuple"
            }
          ],
          "stateMutability": "view",
          "type": "function"
        },
        {
          "inputs": [
            {
              "internalType": "address",
              "name": "sender",
              "type": "address"
            },
            {
              "internalType": "address",
              "name": "recipient",
              "type": "address"
            },
            {
              "internalType": "address",
              "name": "tokenAddress",
              "type": "address"
            }
          ],
          "name": "getPaymentChannel",
          "outputs": [
            {
              "components": [
                {
                  "internalType": "address payable",
                  "name": "sender",
                  "type": "address"
                },
                {
                  "internalType": "address payable",
                  "name": "recipient",
                  "type": "address"
                },
                {
                  "internalType": "address",
                  "name": "tokenAddress",
                  "type": "address"
                },
                {
                  "internalType": "uint256",
                  "name": "expiration",
                  "type": "uint256"
                },
                {
                  "internalType": "uint256",
                  "name": "amount",
                  "type": "uint256"
                },
                {
                  "internalType": "bool",
                  "name": "open",
                  "type": "bool"
                }
              ],
              "internalType": "struct UnidirectionalPaymentChannelHub.PaymentChannel",
              "name": "",
              "type": "tuple"
            }
          ],
          "stateMutability": "view",
          "type": "function"
        },
        {
          "inputs": [
            {
              "internalType": "address",
              "name": "sender",
              "type": "address"
            },
            {
              "internalType": "address",
              "name": "recipient",
              "type": "address"
            },
            {
              "internalType": "address",
              "name": "tokenAddress",
              "type": "address"
            }
          ],
          "name": "getUsersToId",
          "outputs": [
            {
              "internalType": "bytes32",
              "name": "",
              "type": "bytes32"
            }
          ],
          "stateMutability": "view",
          "type": "function"
        },
        {
          "inputs": [
            {
              "internalType": "bytes32",
              "name": "",
              "type": "bytes32"
            }
          ],
          "name": "idToChannel",
          "outputs": [
            {
              "internalType": "address payable",
              "name": "sender",
              "type": "address"
            },
            {
              "internalType": "address payable",
              "name": "recipient",
              "type": "address"
            },
            {
              "internalType": "address",
              "name": "tokenAddress",
              "type": "address"
            },
            {
              "internalType": "uint256",
              "name": "expiration",
              "type": "uint256"
            },
            {
              "internalType": "uint256",
              "name": "amount",
              "type": "uint256"
            },
            {
              "internalType": "bool",
              "name": "open",
              "type": "bool"
            }
          ],
          "stateMutability": "view",
          "type": "function"
        },
        {
          "inputs": [
            {
              "internalType": "address",
              "name": "sender",
              "type": "address"
            },
            {
              "internalType": "address",
              "name": "recipient",
              "type": "address"
            },
            {
              "internalType": "address",
              "name": "tokenAddress",
              "type": "address"
            },
            {
              "internalType": "uint256",
              "name": "amount",
              "type": "uint256"
            },
            {
              "internalType": "bytes",
              "name": "signature",
              "type": "bytes"
            }
          ],
          "name": "isValidSignature",
          "outputs": [
            {
              "internalType": "bool",
              "name": "",
              "type": "bool"
            }
          ],
          "stateMutability": "view",
          "type": "function"
        },
        {
          "inputs": [
            {
              "internalType": "address payable",
              "name": "recipient",
              "type": "address"
            },
            {
              "internalType": "uint256",
              "name": "duration",
              "type": "uint256"
            },
            {
              "internalType": "address",
              "name": "tokenAddress",
              "type": "address"
            },
            {
              "internalType": "uint256",
              "name": "tokenAmount",
              "type": "uint256"
            }
          ],
          "name": "open",
          "outputs": [],
          "stateMutability": "payable",
          "type": "function"
        },
        {
          "inputs": [
            {
              "internalType": "address",
              "name": "",
              "type": "address"
            },
            {
              "internalType": "address",
              "name": "",
              "type": "address"
            },
            {
              "internalType": "address",
              "name": "",
              "type": "address"
            }
          ],
          "name": "usersToId",
          "outputs": [
            {
              "internalType": "bytes32",
              "name": "",
              "type": "bytes32"
            }
          ],
          "stateMutability": "view",
          "type": "function"
        }
      ],
      "evm": {
        "bytecode": {
          "linkReferences": {},
          "object": "60806040523480156200001c576000806200001962000023565b50505b5062000093565b632a2a7adb598160e01b8152600481016020815285602082015260005b868110156200006057808601518160408401015260208101905062000040565b506020828760640184336000905af158600e01573d6000803e3d6000fd5b3d6001141558600a015760016000f35b505050565b6136dd80620000a36000396000f3fe6080604052600436106100915760003560e01c80635a79c740116100595780635a79c740146101da57806367f88f1714610220578063b441030714610252578063c60381dd14610298578063eb671c0a146102b457610091565b80631b1bd2021461009f5780631d002a07146100d15780633740da161461011757806351eff441146101495780635957c92714610194575b60008061009c61233a565b50505b3480156100b4576000806100b161233a565b50505b506100cf60048036038101906100ca9190612956565b6102fa565b005b3480156100e6576000806100e361233a565b50505b5061010160048036038101906100fc9190612b1e565b61073e565b60405161010e9190613472565b60405180910390f35b34801561012c5760008061012961233a565b50505b50610147600480360381019061014291906129f3565b6108c6565b005b34801561015e5760008061015b61233a565b50505b5061017960048036038101906101749190612b1e565b610faa565b60405161018b969594939291906131b6565b60405180910390f35b3480156101a9576000806101a661233a565b50505b506101c460048036038101906101bf919061299b565b61107d565b6040516101d19190613292565b60405180910390f35b3480156101ef576000806101ec61233a565b50505b5061020a6004803603810190610205919061299b565b6110b6565b6040516102179190613292565b60405180910390f35b3480156102355760008061023261233a565b50505b50610250600480360381019061024b9190612a94565b611181565b005b3480156102675760008061026461233a565b50505b50610282600480360381019061027d91906129f3565b61136c565b60405161028f9190613277565b60405180910390f35b6102b260048036038101906102ad91906128ea565b6116de565b005b3480156102c9576000806102c661233a565b50505b506102e460048036038101906102df919061299b565b611ed2565b6040516102f19190613472565b60405180910390f35b61030d5a6103066123a8565b838361217a565b610355576040517f08c379a0000000000000000000000000000000000000000000000000000000008152600401610343906133b2565b6040518091039061035261233a565b50505b60008060005a6103636123a8565b73ffffffffffffffffffffffffffffffffffffffff1673ffffffffffffffffffffffffffffffffffffffff16815260200190815260200160002060008473ffffffffffffffffffffffffffffffffffffffff1673ffffffffffffffffffffffffffffffffffffffff16815260200190815260200160002060008373ffffffffffffffffffffffffffffffffffffffff1673ffffffffffffffffffffffffffffffffffffffff16815260200190815260200160002061041f612405565b9050600060016000838152602001908152602001600020905080600301610444612405565b5a61044d612468565b10156104615760008061045e61233a565b50505b80600001600090610470612405565b906101000a900473ffffffffffffffffffffffffffffffffffffffff1673ffffffffffffffffffffffffffffffffffffffff165a6104ac6123a8565b73ffffffffffffffffffffffffffffffffffffffff16146104d5576000806104d261233a565b50505b60011515816005016000906104e8612405565b906101000a900460ff161515146105075760008061050461233a565b50505b60008160050160006101000a8161051c612405565b8160ff021916908315150217906105316124c5565b505050600073ffffffffffffffffffffffffffffffffffffffff168373ffffffffffffffffffffffffffffffffffffffff16146106a45760008390508073ffffffffffffffffffffffffffffffffffffffff1663a9059cbb83600001600090610598612405565b906101000a900473ffffffffffffffffffffffffffffffffffffffff16846004016105c1612405565b6040518363ffffffff1660e01b81526004016105de92919061324e565b602060405180830381600087806105f361252a565b1580156106085760008061060561233a565b50505b505a61061261258d565b505050505050158015610632573d6000803e3d600061062f61233a565b50505b505050506040513d601f19601f820116820180604052508101906106569190612aec565b61069e576040517f08c379a000000000000000000000000000000000000000000000000000000000815260040161068c90613352565b6040518091039061069b61233a565b50505b50610738565b806000016000906106b3612405565b906101000a900473ffffffffffffffffffffffffffffffffffffffff1673ffffffffffffffffffffffffffffffffffffffff166108fc826004016106f5612405565b908115029060405160006040518083038185888861071161258d565b5050505050509350505050158015610736573d6000803e3d600061073361233a565b50505b505b50505050565b61074661268d565b600160008381526020019081526020016000206040518060c001604052908160008201600090610774612405565b906101000a900473ffffffffffffffffffffffffffffffffffffffff1673ffffffffffffffffffffffffffffffffffffffff1673ffffffffffffffffffffffffffffffffffffffff168152602001600182016000906107d1612405565b906101000a900473ffffffffffffffffffffffffffffffffffffffff1673ffffffffffffffffffffffffffffffffffffffff1673ffffffffffffffffffffffffffffffffffffffff1681526020016002820160009061082e612405565b906101000a900473ffffffffffffffffffffffffffffffffffffffff1673ffffffffffffffffffffffffffffffffffffffff1673ffffffffffffffffffffffffffffffffffffffff16815260200160038201610888612405565b815260200160048201610899612405565b8152602001600582016000906108ad612405565b906101000a900460ff1615151515815250509050919050565b6108d185858561217a565b610919576040517f08c379a0000000000000000000000000000000000000000000000000000000008152600401610907906133b2565b6040518091039061091661233a565b50505b60008060008773ffffffffffffffffffffffffffffffffffffffff1673ffffffffffffffffffffffffffffffffffffffff16815260200190815260200160002060008673ffffffffffffffffffffffffffffffffffffffff1673ffffffffffffffffffffffffffffffffffffffff16815260200190815260200160002060008573ffffffffffffffffffffffffffffffffffffffff1673ffffffffffffffffffffffffffffffffffffffff1681526020019081526020016000206109db612405565b9050600060016000838152602001908152602001600020905060018160050160006101000a81610a09612405565b8160ff02191690831515021790610a1e6124c5565b5050610a68576040517f08c379a0000000000000000000000000000000000000000000000000000000008152600401610a56906132f2565b60405180910390610a6561233a565b50505b80600101600090610a77612405565b906101000a900473ffffffffffffffffffffffffffffffffffffffff1673ffffffffffffffffffffffffffffffffffffffff165a610ab36123a8565b73ffffffffffffffffffffffffffffffffffffffff1614610b12576040517f08c379a0000000000000000000000000000000000000000000000000000000008152600401610b00906133d2565b60405180910390610b0f61233a565b50505b80600401610b1e612405565b841115610b69576040517f08c379a0000000000000000000000000000000000000000000000000000000008152600401610b5790613452565b60405180910390610b6661233a565b50505b610b76878787878761136c565b610bbe576040517f08c379a0000000000000000000000000000000000000000000000000000000008152600401610bac90613412565b60405180910390610bbb61233a565b50505b60008160050160006101000a81610bd3612405565b8160ff02191690831515021790610be86124c5565b505050600073ffffffffffffffffffffffffffffffffffffffff168573ffffffffffffffffffffffffffffffffffffffff1614610e835760008590508073ffffffffffffffffffffffffffffffffffffffff1663a9059cbb83600101600090610c4f612405565b906101000a900473ffffffffffffffffffffffffffffffffffffffff16876040518363ffffffff1660e01b8152600401610c8a92919061324e565b60206040518083038160008780610c9f61252a565b158015610cb457600080610cb161233a565b50505b505a610cbe61258d565b505050505050158015610cde573d6000803e3d6000610cdb61233a565b50505b505050506040513d601f19601f82011682018060405250810190610d029190612aec565b610d4a576040517f08c379a0000000000000000000000000000000000000000000000000000000008152600401610d3890613372565b60405180910390610d4761233a565b50505b8073ffffffffffffffffffffffffffffffffffffffff1663a9059cbb83600001600090610d75612405565b906101000a900473ffffffffffffffffffffffffffffffffffffffff168785600401610d9f612405565b036040518363ffffffff1660e01b8152600401610dbd92919061324e565b60206040518083038160008780610dd261252a565b158015610de757600080610de461233a565b50505b505a610df161258d565b505050505050158015610e11573d6000803e3d6000610e0e61233a565b50505b505050506040513d601f19601f82011682018060405250810190610e359190612aec565b610e7d576040517f08c379a0000000000000000000000000000000000000000000000000000000008152600401610e6b90613372565b60405180910390610e7a61233a565b50505b50610fa1565b80600101600090610e92612405565b906101000a900473ffffffffffffffffffffffffffffffffffffffff1673ffffffffffffffffffffffffffffffffffffffff166108fc859081150290604051600060405180830381858888610ee561258d565b5050505050509350505050158015610f0a573d6000803e3d6000610f0761233a565b50505b5080600001600090610f1a612405565b906101000a900473ffffffffffffffffffffffffffffffffffffffff1673ffffffffffffffffffffffffffffffffffffffff166108fc8583600401610f5d612405565b039081150290604051600060405180830381858888610f7a61258d565b5050505050509350505050158015610f9f573d6000803e3d6000610f9c61233a565b50505b505b50505050505050565b600160205280600052604060002060009150905080600001600090610fcd612405565b906101000a900473ffffffffffffffffffffffffffffffffffffffff169080600101600090610ffa612405565b906101000a900473ffffffffffffffffffffffffffffffffffffffff169080600201600090611027612405565b906101000a900473ffffffffffffffffffffffffffffffffffffffff169080600301611051612405565b908060040161105e612405565b908060050160009061106e612405565b906101000a900460ff16905086565b600060205282600052604060002060205281600052604060002060205280600052604060002060009250925050506110b3612405565b81565b60008060008573ffffffffffffffffffffffffffffffffffffffff1673ffffffffffffffffffffffffffffffffffffffff16815260200190815260200160002060008473ffffffffffffffffffffffffffffffffffffffff1673ffffffffffffffffffffffffffffffffffffffff16815260200190815260200160002060008373ffffffffffffffffffffffffffffffffffffffff1673ffffffffffffffffffffffffffffffffffffffff168152602001908152602001600020611178612405565b90509392505050565b6111945a61118d6123a8565b848461217a565b6111dc576040517f08c379a00000000000000000000000000000000000000000000000000000000081526004016111ca906133b2565b604051809103906111d961233a565b50505b60008060005a6111ea6123a8565b73ffffffffffffffffffffffffffffffffffffffff1673ffffffffffffffffffffffffffffffffffffffff16815260200190815260200160002060008573ffffffffffffffffffffffffffffffffffffffff1673ffffffffffffffffffffffffffffffffffffffff16815260200190815260200160002060008473ffffffffffffffffffffffffffffffffffffffff1673ffffffffffffffffffffffffffffffffffffffff1681526020019081526020016000206112a6612405565b90506000600160008381526020019081526020016000209050806000016000906112ce612405565b906101000a900473ffffffffffffffffffffffffffffffffffffffff1673ffffffffffffffffffffffffffffffffffffffff165a61130a6123a8565b73ffffffffffffffffffffffffffffffffffffffff16146113335760008061133061233a565b50505b8060030161133f612405565b83116113535760008061135061233a565b50505b828160030181906113626124c5565b5050505050505050565b600061137986868661217a565b6113c1576040517f08c379a00000000000000000000000000000000000000000000000000000000081526004016113af906133b2565b604051809103906113be61233a565b50505b60008060008873ffffffffffffffffffffffffffffffffffffffff1673ffffffffffffffffffffffffffffffffffffffff16815260200190815260200160002060008773ffffffffffffffffffffffffffffffffffffffff1673ffffffffffffffffffffffffffffffffffffffff16815260200190815260200160002060008673ffffffffffffffffffffffffffffffffffffffff1673ffffffffffffffffffffffffffffffffffffffff168152602001908152602001600020611483612405565b90506000600160008381526020019081526020016000206040518060c0016040529081600082016000906114b5612405565b906101000a900473ffffffffffffffffffffffffffffffffffffffff1673ffffffffffffffffffffffffffffffffffffffff1673ffffffffffffffffffffffffffffffffffffffff16815260200160018201600090611512612405565b906101000a900473ffffffffffffffffffffffffffffffffffffffff1673ffffffffffffffffffffffffffffffffffffffff1673ffffffffffffffffffffffffffffffffffffffff1681526020016002820160009061156f612405565b906101000a900473ffffffffffffffffffffffffffffffffffffffff1673ffffffffffffffffffffffffffffffffffffffff1673ffffffffffffffffffffffffffffffffffffffff168152602001600382016115c9612405565b8152602001600482016115da612405565b8152602001600582016000906115ee612405565b906101000a900460ff161515151581525050905060006116925a63996d79a5598160e01b8152602081600483336000905af158600e01573d6000803e3d6000fd5b3d6001141558600a015760016000f35b8051925060005b604081101561166057600081830152602081019050611646565b505050848860405160200161167793929190613153565b6040516020818303038152906040528051906020012061224b565b9050816000015173ffffffffffffffffffffffffffffffffffffffff166116b9828761227b565b73ffffffffffffffffffffffffffffffffffffffff1614935050505095945050505050565b8373ffffffffffffffffffffffffffffffffffffffff165a6116fe6123a8565b73ffffffffffffffffffffffffffffffffffffffff16141561175e576040517f08c379a000000000000000000000000000000000000000000000000000000000815260040161174c906133f2565b6040518091039061175b61233a565b50505b600073ffffffffffffffffffffffffffffffffffffffff168473ffffffffffffffffffffffffffffffffffffffff1614156117d7576040517f08c379a00000000000000000000000000000000000000000000000000000000081526004016117c590613312565b604051809103906117d461233a565b50505b6117ea5a6117e36123a8565b858461217a565b156119375760008060005a6117fd6123a8565b73ffffffffffffffffffffffffffffffffffffffff1673ffffffffffffffffffffffffffffffffffffffff16815260200190815260200160002060008673ffffffffffffffffffffffffffffffffffffffff1673ffffffffffffffffffffffffffffffffffffffff16815260200190815260200160002060008473ffffffffffffffffffffffffffffffffffffffff1673ffffffffffffffffffffffffffffffffffffffff1681526020019081526020016000206118b9612405565b905060001515600160008381526020019081526020016000206005016000906118e0612405565b906101000a900460ff16151514611935576040517f08c379a000000000000000000000000000000000000000000000000000000000815260040161192390613332565b6040518091039061193261233a565b50505b505b60008073ffffffffffffffffffffffffffffffffffffffff168373ffffffffffffffffffffffffffffffffffffffff1614611b2657600034146119b8576040517f08c379a00000000000000000000000000000000000000000000000000000000081526004016119a690613392565b604051809103906119b561233a565b50505b81905060008390508073ffffffffffffffffffffffffffffffffffffffff166323b872dd5a6119e56123a8565b5a63996d79a5598160e01b8152602081600483336000905af158600e01573d6000803e3d6000fd5b3d6001141558600a015760016000f35b8051925060005b6040811015611a3e57600081830152602081019050611a24565b505050866040518463ffffffff1660e01b8152600401611a6093929190613217565b60206040518083038160008780611a7561252a565b158015611a8a57600080611a8761233a565b50505b505a611a9461258d565b505050505050158015611ab4573d6000803e3d6000611ab161233a565b50505b505050506040513d601f19601f82011682018060405250810190611ad89190612aec565b611b20576040517f08c379a0000000000000000000000000000000000000000000000000000000008152600401611b0e90613352565b60405180910390611b1d61233a565b50505b50611bc2565b60003411611b72576040517f08c379a0000000000000000000000000000000000000000000000000000000008152600401611b6090613432565b60405180910390611b6f61233a565b50505b60008214611bbe576040517f08c379a0000000000000000000000000000000000000000000000000000000008152600401611bac90613392565b60405180910390611bbb61233a565b50505b3490505b60005a611bcd6123a8565b865a611bd7612468565b604051602001611be993929190613116565b60405160208183030381529060405280519060200120905060006040518060c001604052805a611c176123a8565b73ffffffffffffffffffffffffffffffffffffffff1681526020018873ffffffffffffffffffffffffffffffffffffffff1681526020018673ffffffffffffffffffffffffffffffffffffffff168152602001875a611c74612468565b018152602001848152602001600115158152509050816000805a611c966123a8565b73ffffffffffffffffffffffffffffffffffffffff1673ffffffffffffffffffffffffffffffffffffffff16815260200190815260200160002060008973ffffffffffffffffffffffffffffffffffffffff1673ffffffffffffffffffffffffffffffffffffffff16815260200190815260200160002060008773ffffffffffffffffffffffffffffffffffffffff1673ffffffffffffffffffffffffffffffffffffffff1681526020019081526020016000208190611d546124c5565b505050806001600084815260200190815260200160002060008201518160000160006101000a81611d83612405565b8173ffffffffffffffffffffffffffffffffffffffff021916908373ffffffffffffffffffffffffffffffffffffffff16021790611dbf6124c5565b50505060208201518160010160006101000a81611dda612405565b8173ffffffffffffffffffffffffffffffffffffffff021916908373ffffffffffffffffffffffffffffffffffffffff16021790611e166124c5565b50505060408201518160020160006101000a81611e31612405565b8173ffffffffffffffffffffffffffffffffffffffff021916908373ffffffffffffffffffffffffffffffffffffffff16021790611e6d6124c5565b505050606082015181600301611e816124c5565b5050608082015181600401611e946124c5565b505060a08201518160050160006101000a81611eae612405565b8160ff02191690831515021790611ec36124c5565b50505090505050505050505050565b611eda61268d565b611ee584848461217a565b611f2d576040517f08c379a0000000000000000000000000000000000000000000000000000000008152600401611f1b906133b2565b60405180910390611f2a61233a565b50505b60008060008673ffffffffffffffffffffffffffffffffffffffff1673ffffffffffffffffffffffffffffffffffffffff16815260200190815260200160002060008573ffffffffffffffffffffffffffffffffffffffff1673ffffffffffffffffffffffffffffffffffffffff16815260200190815260200160002060008473ffffffffffffffffffffffffffffffffffffffff1673ffffffffffffffffffffffffffffffffffffffff168152602001908152602001600020611fef612405565b90506000600160008381526020019081526020016000206040518060c001604052908160008201600090612021612405565b906101000a900473ffffffffffffffffffffffffffffffffffffffff1673ffffffffffffffffffffffffffffffffffffffff1673ffffffffffffffffffffffffffffffffffffffff1681526020016001820160009061207e612405565b906101000a900473ffffffffffffffffffffffffffffffffffffffff1673ffffffffffffffffffffffffffffffffffffffff1673ffffffffffffffffffffffffffffffffffffffff168152602001600282016000906120db612405565b906101000a900473ffffffffffffffffffffffffffffffffffffffff1673ffffffffffffffffffffffffffffffffffffffff1673ffffffffffffffffffffffffffffffffffffffff16815260200160038201612135612405565b815260200160048201612146612405565b81526020016005820160009061215a612405565b906101000a900460ff161515151581525050905080925050509392505050565b60008060001b6000808673ffffffffffffffffffffffffffffffffffffffff1673ffffffffffffffffffffffffffffffffffffffff16815260200190815260200160002060008573ffffffffffffffffffffffffffffffffffffffff1673ffffffffffffffffffffffffffffffffffffffff16815260200190815260200160002060008473ffffffffffffffffffffffffffffffffffffffff1673ffffffffffffffffffffffffffffffffffffffff168152602001908152602001600020612240612405565b141590509392505050565b60008160405160200161225e9190613190565b604051602081830303815290604052805190602001209050919050565b60008060008061228a856122ff565b925092509250600186848484604051600081526020016040526040516122b394939291906132ad565b6020604051602081039080840390855a6122cb612707565b50505050501580156122ea573d6000803e3d60006122e761233a565b50505b50505060206040510351935050505092915050565b6000806000604184511461231b5760008061231861233a565b50505b6020840151915060408401519050606084015160001a92509193909250565b632a2a7adb598160e01b8152600481016020815285602082015260005b86811015612375578086015181604084010152602081019050612357565b506020828760640184336000905af158600e01573d6000803e3d6000fd5b3d6001141558600a015760016000f35b505050565b6373509064598160e01b8152602081600483336000905af158600e01573d6000803e3d6000fd5b3d6001141558600a015760016000f35b8051935060005b6040811015612400576000818301526020810190506123e6565b505050565b6303daa959598160e01b8152836004820152602081602483336000905af158600e01573d6000803e3d6000fd5b3d6001141558600a015760016000f35b8051935060005b604081101561246357600081830152602081019050612449565b505050565b63bdbf8c36598160e01b8152602081600483336000905af158600e01573d6000803e3d6000fd5b3d6001141558600a015760016000f35b8051935060005b60408110156124c0576000818301526020810190506124a6565b505050565b6322bd64c0598160e01b8152836004820152846024820152600081604483336000905af158600e01573d6000803e3d6000fd5b3d6001141558600a015760016000f35b60005b60408110156125255760008183015260208101905061250b565b505050565b638435035b598160e01b8152836004820152602081602483336000905af158600e01573d6000803e3d6000fd5b3d6001141558600a015760016000f35b8051935060005b60408110156125885760008183015260208101905061256e565b505050565b6385979f76598160e01b81526125cc565b6000819050818311156125af578290505b92915050565b6000819050818310156125c6578290505b92915050565b836004820152846024820152606060448201528760648201526084810160005b898110156126075780890151818301526020810190506125ec565b506060828a60a40184336000905af158600e01573d6000803e3d6000fd5b3d6001141558600a015760016000f35b815160408301513d6000853e8c8c82606087013350600060045af1505961265c8e3d6125b5565b8d01612668818761259e565b5b828110156126805760008152602081019050612669565b50839e5050505050505050565b6040518060c00160405280600073ffffffffffffffffffffffffffffffffffffffff168152602001600073ffffffffffffffffffffffffffffffffffffffff168152602001600073ffffffffffffffffffffffffffffffffffffffff16815260200160008152602001600081526020016000151581525090565b638540661f598160e01b8152612746565b600081905081831115612729578290505b92915050565b600081905081831015612740578290505b92915050565b836004820152846024820152606060448201528660648201526084810160005b88811015612781578088015181830152602081019050612766565b506060828960a40184336000905af158600e01573d6000803e3d6000fd5b3d6001141558600a015760016000f35b815160408301513d6000853e8b8b82606087013350600060045af150596127d68d3d61272f565b8c016127e28187612718565b5b828110156127fa57600081526020810190506127e3565b50839d5050505050505050565b600061281a612815846134be565b61348d565b90508281526020810184848401111561283b5760008061283861233a565b50505b6128468482856135d5565b509392505050565b60008135905061285d8161363d565b92915050565b6000813590506128728161365d565b92915050565b6000815190506128878161367d565b92915050565b60008135905061289c8161369d565b92915050565b600082601f8301126128bc576000806128b961233a565b50505b81356128cc848260208601612807565b91505092915050565b6000813590506128e4816136bd565b92915050565b600080600080608085870312156129095760008061290661233a565b50505b600061291787828801612863565b9450506020612928878288016128d5565b93505060406129398782880161284e565b925050606061294a878288016128d5565b91505092959194509250565b600080604083850312156129725760008061296f61233a565b50505b60006129808582860161284e565b92505060206129918582860161284e565b9150509250929050565b6000806000606084860312156129b9576000806129b661233a565b50505b60006129c78682870161284e565b93505060206129d88682870161284e565b92505060406129e98682870161284e565b9150509250925092565b600080600080600060a08688031215612a1457600080612a1161233a565b50505b6000612a228882890161284e565b9550506020612a338882890161284e565b9450506040612a448882890161284e565b9350506060612a55888289016128d5565b925050608086013567ffffffffffffffff811115612a7b57600080612a7861233a565b50505b612a87888289016128a2565b9150509295509295909350565b600080600060608486031215612ab257600080612aaf61233a565b50505b6000612ac08682870161284e565b9350506020612ad18682870161284e565b9250506040612ae2868287016128d5565b9150509250925092565b600060208284031215612b0757600080612b0461233a565b50505b6000612b1584828501612878565b91505092915050565b600060208284031215612b3957600080612b3661233a565b50505b6000612b478482850161288d565b91505092915050565b612b598161357b565b82525050565b612b688161351c565b82525050565b612b778161351c565b82525050565b612b8e612b898261351c565b6135f6565b82525050565b612b9d8161350a565b82525050565b612bac8161350a565b82525050565b612bbb8161352e565b82525050565b612bca8161352e565b82525050565b612bd98161353a565b82525050565b612bf0612beb8261353a565b613608565b82525050565b612c07612c028261358d565b6135e4565b82525050565b6000612c1a601c836134ff565b91507f19457468657265756d205369676e6564204d6573736167653a0a3332000000006000830152601c82019050919050565b6000612c5a6010836134ee565b91507f4368616e6e656c206e6f74206f70656e000000000000000000000000000000006000830152602082019050919050565b6000612c9a6017836134ee565b91507f526563697069656e742063616e2774206265207a65726f0000000000000000006000830152602082019050919050565b6000612cda6041836134ee565b91507f436f6e7472616374206265747765656e2074686573652061646472657373657360008301527f207573696e67207468697320746f6b656e20697320616c7265616479206f706560208301527f6e000000000000000000000000000000000000000000000000000000000000006040830152606082019050919050565b6000612d66601f836134ee565b91507f546f6b656e7320636f756c64206e6f74206265207472616e73666572726564006000830152602082019050919050565b6000612da6602c836134ee565b91507f546f6b656e7320636f756c64206e6f74206265207472616e736665727265642060008301527f746f20726563697069656e7400000000000000000000000000000000000000006020830152604082019050919050565b6000612e0c602e836134ee565b91507f457468657220616e6420455243323020746f6b656e732063616e6e6f7420626560008301527f207573656420746f6765746865720000000000000000000000000000000000006020830152604082019050919050565b6000612e726016836134ee565b91507f4368616e6e656c20646f6573206e6f74206578697374000000000000000000006000830152602082019050919050565b6000612eb26024836134ee565b91507f4f6e6c7920726563697069656e742063616e20636c6f7365207468652063686160008301527f6e6e656c000000000000000000000000000000000000000000000000000000006020830152604082019050919050565b6000612f18602f836134ee565b91507f53656e64657220616e6420726563697069656e742063616e6e6f74206265207460008301527f68652073616d65206164647265737300000000000000000000000000000000006020830152604082019050919050565b6000612f7e6015836134ee565b91507f4e6f7420612076616c6964207369676e617475726500000000000000000000006000830152602082019050919050565b6000612fbe6016836134ee565b91507f4574686572206d75737420626520737570706c696564000000000000000000006000830152602082019050919050565b6000612ffe6034836134ee565b91507f5369676e656420616d6f756e7420697320686967686572207468616e2070617960008301527f6d656e74206368616e6e656c2062616c616e63650000000000000000000000006020830152604082019050919050565b60c08201600082015161306d6000850182612b5f565b5060208201516130806020850182612b5f565b5060408201516130936040850182612b94565b5060608201516130a660608501826130d2565b5060808201516130b960808501826130d2565b5060a08201516130cc60a0850182612bb2565b50505050565b6130db81613564565b82525050565b6130ea81613564565b82525050565b6131016130fc82613564565b613624565b82525050565b6131108161356e565b82525050565b60006131228286612b7d565b6014820191506131328285612b7d565b60148201915061314282846130f0565b602082019150819050949350505050565b600061315f8286612bf6565b60148201915061316f8285612bdf565b60208201915061317f82846130f0565b602082019150819050949350505050565b600061319b82612c0d565b91506131a78284612bdf565b60208201915081905092915050565b600060c0820190506131cb6000830189612b6e565b6131d86020830188612b6e565b6131e56040830187612ba3565b6131f260608301866130e1565b6131ff60808301856130e1565b61320c60a0830184612bc1565b979650505050505050565b600060608201905061322c6000830186612b50565b6132396020830185612ba3565b61324660408301846130e1565b949350505050565b60006040820190506132636000830185612b50565b61327060208301846130e1565b9392505050565b600060208201905061328c6000830184612bc1565b92915050565b60006020820190506132a76000830184612bd0565b92915050565b60006080820190506132c26000830187612bd0565b6132cf6020830186613107565b6132dc6040830185612bd0565b6132e96060830184612bd0565b95945050505050565b6000602082019050818103600083015261330b81612c4d565b9050919050565b6000602082019050818103600083015261332b81612c8d565b9050919050565b6000602082019050818103600083015261334b81612ccd565b9050919050565b6000602082019050818103600083015261336b81612d59565b9050919050565b6000602082019050818103600083015261338b81612d99565b9050919050565b600060208201905081810360008301526133ab81612dff565b9050919050565b600060208201905081810360008301526133cb81612e65565b9050919050565b600060208201905081810360008301526133eb81612ea5565b9050919050565b6000602082019050818103600083015261340b81612f0b565b9050919050565b6000602082019050818103600083015261342b81612f71565b9050919050565b6000602082019050818103600083015261344b81612fb1565b9050919050565b6000602082019050818103600083015261346b81612ff1565b9050919050565b600060c0820190506134876000830184613057565b92915050565b6000604051905081810181811067ffffffffffffffff821117156134b4576134b361362e565b5b8060405250919050565b600067ffffffffffffffff8211156134d9576134d861362e565b5b601f19601f8301169050602081019050919050565b600082825260208201905092915050565b600081905092915050565b600061351582613544565b9050919050565b600061352782613544565b9050919050565b60008115159050919050565b6000819050919050565b600073ffffffffffffffffffffffffffffffffffffffff82169050919050565b6000819050919050565b600060ff82169050919050565b6000613586826135b1565b9050919050565b60006135988261359f565b9050919050565b60006135aa82613544565b9050919050565b60006135bc826135c3565b9050919050565b60006135ce82613544565b9050919050565b82818337600083830152505050565b60006135ef82613612565b9050919050565b600061360182613612565b9050919050565b6000819050919050565b600061361d82613630565b9050919050565b6000819050919050565bfe5b60008160601b9050919050565b6136468161350a565b811461365a5760008061365761233a565b50505b50565b6136668161351c565b811461367a5760008061367761233a565b50505b50565b6136868161352e565b811461369a5760008061369761233a565b50505b50565b6136a68161353a565b81146136ba576000806136b761233a565b50505b50565b6136c681613564565b81146136da576000806136d761233a565b50505b5056",
          "opcodes": "PUSH1 0x80 PUSH1 0x40 MSTORE CALLVALUE DUP1 ISZERO PUSH3 0x1C JUMPI PUSH1 0x0 DUP1 PUSH3 0x19 PUSH3 0x23 JUMP JUMPDEST POP POP JUMPDEST POP PUSH3 0x93 JUMP JUMPDEST PUSH4 0x2A2A7ADB MSIZE DUP2 PUSH1 0xE0 SHL DUP2 MSTORE PUSH1 0x4 DUP2 ADD PUSH1 0x20 DUP2 MSTORE DUP6 PUSH1 0x20 DUP3 ADD MSTORE PUSH1 0x0 JUMPDEST DUP7 DUP2 LT ISZERO PUSH3 0x60 JUMPI DUP1 DUP7 ADD MLOAD DUP2 PUSH1 0x40 DUP5 ADD ADD MSTORE PUSH1 0x20 DUP2 ADD SWAP1 POP PUSH3 0x40 JUMP JUMPDEST POP PUSH1 0x20 DUP3 DUP8 PUSH1 0x64 ADD DUP5 CALLER PUSH1 0x0 SWAP1 GAS CALL PC PUSH1 0xE ADD JUMPI RETURNDATASIZE PUSH1 0x0 DUP1 RETURNDATACOPY RETURNDATASIZE PUSH1 0x0 REVERT JUMPDEST RETURNDATASIZE PUSH1 0x1 EQ ISZERO PC PUSH1 0xA ADD JUMPI PUSH1 0x1 PUSH1 0x0 RETURN JUMPDEST POP POP POP JUMP JUMPDEST PUSH2 0x36DD DUP1 PUSH3 0xA3 PUSH1 0x0 CODECOPY PUSH1 0x0 RETURN INVALID PUSH1 0x80 PUSH1 0x40 MSTORE PUSH1 0x4 CALLDATASIZE LT PUSH2 0x91 JUMPI PUSH1 0x0 CALLDATALOAD PUSH1 0xE0 SHR DUP1 PUSH4 0x5A79C740 GT PUSH2 0x59 JUMPI DUP1 PUSH4 0x5A79C740 EQ PUSH2 0x1DA JUMPI DUP1 PUSH4 0x67F88F17 EQ PUSH2 0x220 JUMPI DUP1 PUSH4 0xB4410307 EQ PUSH2 0x252 JUMPI DUP1 PUSH4 0xC60381DD EQ PUSH2 0x298 JUMPI DUP1 PUSH4 0xEB671C0A EQ PUSH2 0x2B4 JUMPI PUSH2 0x91 JUMP JUMPDEST DUP1 PUSH4 0x1B1BD202 EQ PUSH2 0x9F JUMPI DUP1 PUSH4 0x1D002A07 EQ PUSH2 0xD1 JUMPI DUP1 PUSH4 0x3740DA16 EQ PUSH2 0x117 JUMPI DUP1 PUSH4 0x51EFF441 EQ PUSH2 0x149 JUMPI DUP1 PUSH4 0x5957C927 EQ PUSH2 0x194 JUMPI JUMPDEST PUSH1 0x0 DUP1 PUSH2 0x9C PUSH2 0x233A JUMP JUMPDEST POP POP JUMPDEST CALLVALUE DUP1 ISZERO PUSH2 0xB4 JUMPI PUSH1 0x0 DUP1 PUSH2 0xB1 PUSH2 0x233A JUMP JUMPDEST POP POP JUMPDEST POP PUSH2 0xCF PUSH1 0x4 DUP1 CALLDATASIZE SUB DUP2 ADD SWAP1 PUSH2 0xCA SWAP2 SWAP1 PUSH2 0x2956 JUMP JUMPDEST PUSH2 0x2FA JUMP JUMPDEST STOP JUMPDEST CALLVALUE DUP1 ISZERO PUSH2 0xE6 JUMPI PUSH1 0x0 DUP1 PUSH2 0xE3 PUSH2 0x233A JUMP JUMPDEST POP POP JUMPDEST POP PUSH2 0x101 PUSH1 0x4 DUP1 CALLDATASIZE SUB DUP2 ADD SWAP1 PUSH2 0xFC SWAP2 SWAP1 PUSH2 0x2B1E JUMP JUMPDEST PUSH2 0x73E JUMP JUMPDEST PUSH1 0x40 MLOAD PUSH2 0x10E SWAP2 SWAP1 PUSH2 0x3472 JUMP JUMPDEST PUSH1 0x40 MLOAD DUP1 SWAP2 SUB SWAP1 RETURN JUMPDEST CALLVALUE DUP1 ISZERO PUSH2 0x12C JUMPI PUSH1 0x0 DUP1 PUSH2 0x129 PUSH2 0x233A JUMP JUMPDEST POP POP JUMPDEST POP PUSH2 0x147 PUSH1 0x4 DUP1 CALLDATASIZE SUB DUP2 ADD SWAP1 PUSH2 0x142 SWAP2 SWAP1 PUSH2 0x29F3 JUMP JUMPDEST PUSH2 0x8C6 JUMP JUMPDEST STOP JUMPDEST CALLVALUE DUP1 ISZERO PUSH2 0x15E JUMPI PUSH1 0x0 DUP1 PUSH2 0x15B PUSH2 0x233A JUMP JUMPDEST POP POP JUMPDEST POP PUSH2 0x179 PUSH1 0x4 DUP1 CALLDATASIZE SUB DUP2 ADD SWAP1 PUSH2 0x174 SWAP2 SWAP1 PUSH2 0x2B1E JUMP JUMPDEST PUSH2 0xFAA JUMP JUMPDEST PUSH1 0x40 MLOAD PUSH2 0x18B SWAP7 SWAP6 SWAP5 SWAP4 SWAP3 SWAP2 SWAP1 PUSH2 0x31B6 JUMP JUMPDEST PUSH1 0x40 MLOAD DUP1 SWAP2 SUB SWAP1 RETURN JUMPDEST CALLVALUE DUP1 ISZERO PUSH2 0x1A9 JUMPI PUSH1 0x0 DUP1 PUSH2 0x1A6 PUSH2 0x233A JUMP JUMPDEST POP POP JUMPDEST POP PUSH2 0x1C4 PUSH1 0x4 DUP1 CALLDATASIZE SUB DUP2 ADD SWAP1 PUSH2 0x1BF SWAP2 SWAP1 PUSH2 0x299B JUMP JUMPDEST PUSH2 0x107D JUMP JUMPDEST PUSH1 0x40 MLOAD PUSH2 0x1D1 SWAP2 SWAP1 PUSH2 0x3292 JUMP JUMPDEST PUSH1 0x40 MLOAD DUP1 SWAP2 SUB SWAP1 RETURN JUMPDEST CALLVALUE DUP1 ISZERO PUSH2 0x1EF JUMPI PUSH1 0x0 DUP1 PUSH2 0x1EC PUSH2 0x233A JUMP JUMPDEST POP POP JUMPDEST POP PUSH2 0x20A PUSH1 0x4 DUP1 CALLDATASIZE SUB DUP2 ADD SWAP1 PUSH2 0x205 SWAP2 SWAP1 PUSH2 0x299B JUMP JUMPDEST PUSH2 0x10B6 JUMP JUMPDEST PUSH1 0x40 MLOAD PUSH2 0x217 SWAP2 SWAP1 PUSH2 0x3292 JUMP JUMPDEST PUSH1 0x40 MLOAD DUP1 SWAP2 SUB SWAP1 RETURN JUMPDEST CALLVALUE DUP1 ISZERO PUSH2 0x235 JUMPI PUSH1 0x0 DUP1 PUSH2 0x232 PUSH2 0x233A JUMP JUMPDEST POP POP JUMPDEST POP PUSH2 0x250 PUSH1 0x4 DUP1 CALLDATASIZE SUB DUP2 ADD SWAP1 PUSH2 0x24B SWAP2 SWAP1 PUSH2 0x2A94 JUMP JUMPDEST PUSH2 0x1181 JUMP JUMPDEST STOP JUMPDEST CALLVALUE DUP1 ISZERO PUSH2 0x267 JUMPI PUSH1 0x0 DUP1 PUSH2 0x264 PUSH2 0x233A JUMP JUMPDEST POP POP JUMPDEST POP PUSH2 0x282 PUSH1 0x4 DUP1 CALLDATASIZE SUB DUP2 ADD SWAP1 PUSH2 0x27D SWAP2 SWAP1 PUSH2 0x29F3 JUMP JUMPDEST PUSH2 0x136C JUMP JUMPDEST PUSH1 0x40 MLOAD PUSH2 0x28F SWAP2 SWAP1 PUSH2 0x3277 JUMP JUMPDEST PUSH1 0x40 MLOAD DUP1 SWAP2 SUB SWAP1 RETURN JUMPDEST PUSH2 0x2B2 PUSH1 0x4 DUP1 CALLDATASIZE SUB DUP2 ADD SWAP1 PUSH2 0x2AD SWAP2 SWAP1 PUSH2 0x28EA JUMP JUMPDEST PUSH2 0x16DE JUMP JUMPDEST STOP JUMPDEST CALLVALUE DUP1 ISZERO PUSH2 0x2C9 JUMPI PUSH1 0x0 DUP1 PUSH2 0x2C6 PUSH2 0x233A JUMP JUMPDEST POP POP JUMPDEST POP PUSH2 0x2E4 PUSH1 0x4 DUP1 CALLDATASIZE SUB DUP2 ADD SWAP1 PUSH2 0x2DF SWAP2 SWAP1 PUSH2 0x299B JUMP JUMPDEST PUSH2 0x1ED2 JUMP JUMPDEST PUSH1 0x40 MLOAD PUSH2 0x2F1 SWAP2 SWAP1 PUSH2 0x3472 JUMP JUMPDEST PUSH1 0x40 MLOAD DUP1 SWAP2 SUB SWAP1 RETURN JUMPDEST PUSH2 0x30D GAS PUSH2 0x306 PUSH2 0x23A8 JUMP JUMPDEST DUP4 DUP4 PUSH2 0x217A JUMP JUMPDEST PUSH2 0x355 JUMPI PUSH1 0x40 MLOAD PUSH32 0x8C379A000000000000000000000000000000000000000000000000000000000 DUP2 MSTORE PUSH1 0x4 ADD PUSH2 0x343 SWAP1 PUSH2 0x33B2 JUMP JUMPDEST PUSH1 0x40 MLOAD DUP1 SWAP2 SUB SWAP1 PUSH2 0x352 PUSH2 0x233A JUMP JUMPDEST POP POP JUMPDEST PUSH1 0x0 DUP1 PUSH1 0x0 GAS PUSH2 0x363 PUSH2 0x23A8 JUMP JUMPDEST PUSH20 0xFFFFFFFFFFFFFFFFFFFFFFFFFFFFFFFFFFFFFFFF AND PUSH20 0xFFFFFFFFFFFFFFFFFFFFFFFFFFFFFFFFFFFFFFFF AND DUP2 MSTORE PUSH1 0x20 ADD SWAP1 DUP2 MSTORE PUSH1 0x20 ADD PUSH1 0x0 KECCAK256 PUSH1 0x0 DUP5 PUSH20 0xFFFFFFFFFFFFFFFFFFFFFFFFFFFFFFFFFFFFFFFF AND PUSH20 0xFFFFFFFFFFFFFFFFFFFFFFFFFFFFFFFFFFFFFFFF AND DUP2 MSTORE PUSH1 0x20 ADD SWAP1 DUP2 MSTORE PUSH1 0x20 ADD PUSH1 0x0 KECCAK256 PUSH1 0x0 DUP4 PUSH20 0xFFFFFFFFFFFFFFFFFFFFFFFFFFFFFFFFFFFFFFFF AND PUSH20 0xFFFFFFFFFFFFFFFFFFFFFFFFFFFFFFFFFFFFFFFF AND DUP2 MSTORE PUSH1 0x20 ADD SWAP1 DUP2 MSTORE PUSH1 0x20 ADD PUSH1 0x0 KECCAK256 PUSH2 0x41F PUSH2 0x2405 JUMP JUMPDEST SWAP1 POP PUSH1 0x0 PUSH1 0x1 PUSH1 0x0 DUP4 DUP2 MSTORE PUSH1 0x20 ADD SWAP1 DUP2 MSTORE PUSH1 0x20 ADD PUSH1 0x0 KECCAK256 SWAP1 POP DUP1 PUSH1 0x3 ADD PUSH2 0x444 PUSH2 0x2405 JUMP JUMPDEST GAS PUSH2 0x44D PUSH2 0x2468 JUMP JUMPDEST LT ISZERO PUSH2 0x461 JUMPI PUSH1 0x0 DUP1 PUSH2 0x45E PUSH2 0x233A JUMP JUMPDEST POP POP JUMPDEST DUP1 PUSH1 0x0 ADD PUSH1 0x0 SWAP1 PUSH2 0x470 PUSH2 0x2405 JUMP JUMPDEST SWAP1 PUSH2 0x100 EXP SWAP1 DIV PUSH20 0xFFFFFFFFFFFFFFFFFFFFFFFFFFFFFFFFFFFFFFFF AND PUSH20 0xFFFFFFFFFFFFFFFFFFFFFFFFFFFFFFFFFFFFFFFF AND GAS PUSH2 0x4AC PUSH2 0x23A8 JUMP JUMPDEST PUSH20 0xFFFFFFFFFFFFFFFFFFFFFFFFFFFFFFFFFFFFFFFF AND EQ PUSH2 0x4D5 JUMPI PUSH1 0x0 DUP1 PUSH2 0x4D2 PUSH2 0x233A JUMP JUMPDEST POP POP JUMPDEST PUSH1 0x1 ISZERO ISZERO DUP2 PUSH1 0x5 ADD PUSH1 0x0 SWAP1 PUSH2 0x4E8 PUSH2 0x2405 JUMP JUMPDEST SWAP1 PUSH2 0x100 EXP SWAP1 DIV PUSH1 0xFF AND ISZERO ISZERO EQ PUSH2 0x507 JUMPI PUSH1 0x0 DUP1 PUSH2 0x504 PUSH2 0x233A JUMP JUMPDEST POP POP JUMPDEST PUSH1 0x0 DUP2 PUSH1 0x5 ADD PUSH1 0x0 PUSH2 0x100 EXP DUP2 PUSH2 0x51C PUSH2 0x2405 JUMP JUMPDEST DUP2 PUSH1 0xFF MUL NOT AND SWAP1 DUP4 ISZERO ISZERO MUL OR SWAP1 PUSH2 0x531 PUSH2 0x24C5 JUMP JUMPDEST POP POP POP PUSH1 0x0 PUSH20 0xFFFFFFFFFFFFFFFFFFFFFFFFFFFFFFFFFFFFFFFF AND DUP4 PUSH20 0xFFFFFFFFFFFFFFFFFFFFFFFFFFFFFFFFFFFFFFFF AND EQ PUSH2 0x6A4 JUMPI PUSH1 0x0 DUP4 SWAP1 POP DUP1 PUSH20 0xFFFFFFFFFFFFFFFFFFFFFFFFFFFFFFFFFFFFFFFF AND PUSH4 0xA9059CBB DUP4 PUSH1 0x0 ADD PUSH1 0x0 SWAP1 PUSH2 0x598 PUSH2 0x2405 JUMP JUMPDEST SWAP1 PUSH2 0x100 EXP SWAP1 DIV PUSH20 0xFFFFFFFFFFFFFFFFFFFFFFFFFFFFFFFFFFFFFFFF AND DUP5 PUSH1 0x4 ADD PUSH2 0x5C1 PUSH2 0x2405 JUMP JUMPDEST PUSH1 0x40 MLOAD DUP4 PUSH4 0xFFFFFFFF AND PUSH1 0xE0 SHL DUP2 MSTORE PUSH1 0x4 ADD PUSH2 0x5DE SWAP3 SWAP2 SWAP1 PUSH2 0x324E JUMP JUMPDEST PUSH1 0x20 PUSH1 0x40 MLOAD DUP1 DUP4 SUB DUP2 PUSH1 0x0 DUP8 DUP1 PUSH2 0x5F3 PUSH2 0x252A JUMP JUMPDEST ISZERO DUP1 ISZERO PUSH2 0x608 JUMPI PUSH1 0x0 DUP1 PUSH2 0x605 PUSH2 0x233A JUMP JUMPDEST POP POP JUMPDEST POP GAS PUSH2 0x612 PUSH2 0x258D JUMP JUMPDEST POP POP POP POP POP POP ISZERO DUP1 ISZERO PUSH2 0x632 JUMPI RETURNDATASIZE PUSH1 0x0 DUP1 RETURNDATACOPY RETURNDATASIZE PUSH1 0x0 PUSH2 0x62F PUSH2 0x233A JUMP JUMPDEST POP POP JUMPDEST POP POP POP POP PUSH1 0x40 MLOAD RETURNDATASIZE PUSH1 0x1F NOT PUSH1 0x1F DUP3 ADD AND DUP3 ADD DUP1 PUSH1 0x40 MSTORE POP DUP2 ADD SWAP1 PUSH2 0x656 SWAP2 SWAP1 PUSH2 0x2AEC JUMP JUMPDEST PUSH2 0x69E JUMPI PUSH1 0x40 MLOAD PUSH32 0x8C379A000000000000000000000000000000000000000000000000000000000 DUP2 MSTORE PUSH1 0x4 ADD PUSH2 0x68C SWAP1 PUSH2 0x3352 JUMP JUMPDEST PUSH1 0x40 MLOAD DUP1 SWAP2 SUB SWAP1 PUSH2 0x69B PUSH2 0x233A JUMP JUMPDEST POP POP JUMPDEST POP PUSH2 0x738 JUMP JUMPDEST DUP1 PUSH1 0x0 ADD PUSH1 0x0 SWAP1 PUSH2 0x6B3 PUSH2 0x2405 JUMP JUMPDEST SWAP1 PUSH2 0x100 EXP SWAP1 DIV PUSH20 0xFFFFFFFFFFFFFFFFFFFFFFFFFFFFFFFFFFFFFFFF AND PUSH20 0xFFFFFFFFFFFFFFFFFFFFFFFFFFFFFFFFFFFFFFFF AND PUSH2 0x8FC DUP3 PUSH1 0x4 ADD PUSH2 0x6F5 PUSH2 0x2405 JUMP JUMPDEST SWAP1 DUP2 ISZERO MUL SWAP1 PUSH1 0x40 MLOAD PUSH1 0x0 PUSH1 0x40 MLOAD DUP1 DUP4 SUB DUP2 DUP6 DUP9 DUP9 PUSH2 0x711 PUSH2 0x258D JUMP JUMPDEST POP POP POP POP POP POP SWAP4 POP POP POP POP ISZERO DUP1 ISZERO PUSH2 0x736 JUMPI RETURNDATASIZE PUSH1 0x0 DUP1 RETURNDATACOPY RETURNDATASIZE PUSH1 0x0 PUSH2 0x733 PUSH2 0x233A JUMP JUMPDEST POP POP JUMPDEST POP JUMPDEST POP POP POP POP JUMP JUMPDEST PUSH2 0x746 PUSH2 0x268D JUMP JUMPDEST PUSH1 0x1 PUSH1 0x0 DUP4 DUP2 MSTORE PUSH1 0x20 ADD SWAP1 DUP2 MSTORE PUSH1 0x20 ADD PUSH1 0x0 KECCAK256 PUSH1 0x40 MLOAD DUP1 PUSH1 0xC0 ADD PUSH1 0x40 MSTORE SWAP1 DUP2 PUSH1 0x0 DUP3 ADD PUSH1 0x0 SWAP1 PUSH2 0x774 PUSH2 0x2405 JUMP JUMPDEST SWAP1 PUSH2 0x100 EXP SWAP1 DIV PUSH20 0xFFFFFFFFFFFFFFFFFFFFFFFFFFFFFFFFFFFFFFFF AND PUSH20 0xFFFFFFFFFFFFFFFFFFFFFFFFFFFFFFFFFFFFFFFF AND PUSH20 0xFFFFFFFFFFFFFFFFFFFFFFFFFFFFFFFFFFFFFFFF AND DUP2 MSTORE PUSH1 0x20 ADD PUSH1 0x1 DUP3 ADD PUSH1 0x0 SWAP1 PUSH2 0x7D1 PUSH2 0x2405 JUMP JUMPDEST SWAP1 PUSH2 0x100 EXP SWAP1 DIV PUSH20 0xFFFFFFFFFFFFFFFFFFFFFFFFFFFFFFFFFFFFFFFF AND PUSH20 0xFFFFFFFFFFFFFFFFFFFFFFFFFFFFFFFFFFFFFFFF AND PUSH20 0xFFFFFFFFFFFFFFFFFFFFFFFFFFFFFFFFFFFFFFFF AND DUP2 MSTORE PUSH1 0x20 ADD PUSH1 0x2 DUP3 ADD PUSH1 0x0 SWAP1 PUSH2 0x82E PUSH2 0x2405 JUMP JUMPDEST SWAP1 PUSH2 0x100 EXP SWAP1 DIV PUSH20 0xFFFFFFFFFFFFFFFFFFFFFFFFFFFFFFFFFFFFFFFF AND PUSH20 0xFFFFFFFFFFFFFFFFFFFFFFFFFFFFFFFFFFFFFFFF AND PUSH20 0xFFFFFFFFFFFFFFFFFFFFFFFFFFFFFFFFFFFFFFFF AND DUP2 MSTORE PUSH1 0x20 ADD PUSH1 0x3 DUP3 ADD PUSH2 0x888 PUSH2 0x2405 JUMP JUMPDEST DUP2 MSTORE PUSH1 0x20 ADD PUSH1 0x4 DUP3 ADD PUSH2 0x899 PUSH2 0x2405 JUMP JUMPDEST DUP2 MSTORE PUSH1 0x20 ADD PUSH1 0x5 DUP3 ADD PUSH1 0x0 SWAP1 PUSH2 0x8AD PUSH2 0x2405 JUMP JUMPDEST SWAP1 PUSH2 0x100 EXP SWAP1 DIV PUSH1 0xFF AND ISZERO ISZERO ISZERO ISZERO DUP2 MSTORE POP POP SWAP1 POP SWAP2 SWAP1 POP JUMP JUMPDEST PUSH2 0x8D1 DUP6 DUP6 DUP6 PUSH2 0x217A JUMP JUMPDEST PUSH2 0x919 JUMPI PUSH1 0x40 MLOAD PUSH32 0x8C379A000000000000000000000000000000000000000000000000000000000 DUP2 MSTORE PUSH1 0x4 ADD PUSH2 0x907 SWAP1 PUSH2 0x33B2 JUMP JUMPDEST PUSH1 0x40 MLOAD DUP1 SWAP2 SUB SWAP1 PUSH2 0x916 PUSH2 0x233A JUMP JUMPDEST POP POP JUMPDEST PUSH1 0x0 DUP1 PUSH1 0x0 DUP8 PUSH20 0xFFFFFFFFFFFFFFFFFFFFFFFFFFFFFFFFFFFFFFFF AND PUSH20 0xFFFFFFFFFFFFFFFFFFFFFFFFFFFFFFFFFFFFFFFF AND DUP2 MSTORE PUSH1 0x20 ADD SWAP1 DUP2 MSTORE PUSH1 0x20 ADD PUSH1 0x0 KECCAK256 PUSH1 0x0 DUP7 PUSH20 0xFFFFFFFFFFFFFFFFFFFFFFFFFFFFFFFFFFFFFFFF AND PUSH20 0xFFFFFFFFFFFFFFFFFFFFFFFFFFFFFFFFFFFFFFFF AND DUP2 MSTORE PUSH1 0x20 ADD SWAP1 DUP2 MSTORE PUSH1 0x20 ADD PUSH1 0x0 KECCAK256 PUSH1 0x0 DUP6 PUSH20 0xFFFFFFFFFFFFFFFFFFFFFFFFFFFFFFFFFFFFFFFF AND PUSH20 0xFFFFFFFFFFFFFFFFFFFFFFFFFFFFFFFFFFFFFFFF AND DUP2 MSTORE PUSH1 0x20 ADD SWAP1 DUP2 MSTORE PUSH1 0x20 ADD PUSH1 0x0 KECCAK256 PUSH2 0x9DB PUSH2 0x2405 JUMP JUMPDEST SWAP1 POP PUSH1 0x0 PUSH1 0x1 PUSH1 0x0 DUP4 DUP2 MSTORE PUSH1 0x20 ADD SWAP1 DUP2 MSTORE PUSH1 0x20 ADD PUSH1 0x0 KECCAK256 SWAP1 POP PUSH1 0x1 DUP2 PUSH1 0x5 ADD PUSH1 0x0 PUSH2 0x100 EXP DUP2 PUSH2 0xA09 PUSH2 0x2405 JUMP JUMPDEST DUP2 PUSH1 0xFF MUL NOT AND SWAP1 DUP4 ISZERO ISZERO MUL OR SWAP1 PUSH2 0xA1E PUSH2 0x24C5 JUMP JUMPDEST POP POP PUSH2 0xA68 JUMPI PUSH1 0x40 MLOAD PUSH32 0x8C379A000000000000000000000000000000000000000000000000000000000 DUP2 MSTORE PUSH1 0x4 ADD PUSH2 0xA56 SWAP1 PUSH2 0x32F2 JUMP JUMPDEST PUSH1 0x40 MLOAD DUP1 SWAP2 SUB SWAP1 PUSH2 0xA65 PUSH2 0x233A JUMP JUMPDEST POP POP JUMPDEST DUP1 PUSH1 0x1 ADD PUSH1 0x0 SWAP1 PUSH2 0xA77 PUSH2 0x2405 JUMP JUMPDEST SWAP1 PUSH2 0x100 EXP SWAP1 DIV PUSH20 0xFFFFFFFFFFFFFFFFFFFFFFFFFFFFFFFFFFFFFFFF AND PUSH20 0xFFFFFFFFFFFFFFFFFFFFFFFFFFFFFFFFFFFFFFFF AND GAS PUSH2 0xAB3 PUSH2 0x23A8 JUMP JUMPDEST PUSH20 0xFFFFFFFFFFFFFFFFFFFFFFFFFFFFFFFFFFFFFFFF AND EQ PUSH2 0xB12 JUMPI PUSH1 0x40 MLOAD PUSH32 0x8C379A000000000000000000000000000000000000000000000000000000000 DUP2 MSTORE PUSH1 0x4 ADD PUSH2 0xB00 SWAP1 PUSH2 0x33D2 JUMP JUMPDEST PUSH1 0x40 MLOAD DUP1 SWAP2 SUB SWAP1 PUSH2 0xB0F PUSH2 0x233A JUMP JUMPDEST POP POP JUMPDEST DUP1 PUSH1 0x4 ADD PUSH2 0xB1E PUSH2 0x2405 JUMP JUMPDEST DUP5 GT ISZERO PUSH2 0xB69 JUMPI PUSH1 0x40 MLOAD PUSH32 0x8C379A000000000000000000000000000000000000000000000000000000000 DUP2 MSTORE PUSH1 0x4 ADD PUSH2 0xB57 SWAP1 PUSH2 0x3452 JUMP JUMPDEST PUSH1 0x40 MLOAD DUP1 SWAP2 SUB SWAP1 PUSH2 0xB66 PUSH2 0x233A JUMP JUMPDEST POP POP JUMPDEST PUSH2 0xB76 DUP8 DUP8 DUP8 DUP8 DUP8 PUSH2 0x136C JUMP JUMPDEST PUSH2 0xBBE JUMPI PUSH1 0x40 MLOAD PUSH32 0x8C379A000000000000000000000000000000000000000000000000000000000 DUP2 MSTORE PUSH1 0x4 ADD PUSH2 0xBAC SWAP1 PUSH2 0x3412 JUMP JUMPDEST PUSH1 0x40 MLOAD DUP1 SWAP2 SUB SWAP1 PUSH2 0xBBB PUSH2 0x233A JUMP JUMPDEST POP POP JUMPDEST PUSH1 0x0 DUP2 PUSH1 0x5 ADD PUSH1 0x0 PUSH2 0x100 EXP DUP2 PUSH2 0xBD3 PUSH2 0x2405 JUMP JUMPDEST DUP2 PUSH1 0xFF MUL NOT AND SWAP1 DUP4 ISZERO ISZERO MUL OR SWAP1 PUSH2 0xBE8 PUSH2 0x24C5 JUMP JUMPDEST POP POP POP PUSH1 0x0 PUSH20 0xFFFFFFFFFFFFFFFFFFFFFFFFFFFFFFFFFFFFFFFF AND DUP6 PUSH20 0xFFFFFFFFFFFFFFFFFFFFFFFFFFFFFFFFFFFFFFFF AND EQ PUSH2 0xE83 JUMPI PUSH1 0x0 DUP6 SWAP1 POP DUP1 PUSH20 0xFFFFFFFFFFFFFFFFFFFFFFFFFFFFFFFFFFFFFFFF AND PUSH4 0xA9059CBB DUP4 PUSH1 0x1 ADD PUSH1 0x0 SWAP1 PUSH2 0xC4F PUSH2 0x2405 JUMP JUMPDEST SWAP1 PUSH2 0x100 EXP SWAP1 DIV PUSH20 0xFFFFFFFFFFFFFFFFFFFFFFFFFFFFFFFFFFFFFFFF AND DUP8 PUSH1 0x40 MLOAD DUP4 PUSH4 0xFFFFFFFF AND PUSH1 0xE0 SHL DUP2 MSTORE PUSH1 0x4 ADD PUSH2 0xC8A SWAP3 SWAP2 SWAP1 PUSH2 0x324E JUMP JUMPDEST PUSH1 0x20 PUSH1 0x40 MLOAD DUP1 DUP4 SUB DUP2 PUSH1 0x0 DUP8 DUP1 PUSH2 0xC9F PUSH2 0x252A JUMP JUMPDEST ISZERO DUP1 ISZERO PUSH2 0xCB4 JUMPI PUSH1 0x0 DUP1 PUSH2 0xCB1 PUSH2 0x233A JUMP JUMPDEST POP POP JUMPDEST POP GAS PUSH2 0xCBE PUSH2 0x258D JUMP JUMPDEST POP POP POP POP POP POP ISZERO DUP1 ISZERO PUSH2 0xCDE JUMPI RETURNDATASIZE PUSH1 0x0 DUP1 RETURNDATACOPY RETURNDATASIZE PUSH1 0x0 PUSH2 0xCDB PUSH2 0x233A JUMP JUMPDEST POP POP JUMPDEST POP POP POP POP PUSH1 0x40 MLOAD RETURNDATASIZE PUSH1 0x1F NOT PUSH1 0x1F DUP3 ADD AND DUP3 ADD DUP1 PUSH1 0x40 MSTORE POP DUP2 ADD SWAP1 PUSH2 0xD02 SWAP2 SWAP1 PUSH2 0x2AEC JUMP JUMPDEST PUSH2 0xD4A JUMPI PUSH1 0x40 MLOAD PUSH32 0x8C379A000000000000000000000000000000000000000000000000000000000 DUP2 MSTORE PUSH1 0x4 ADD PUSH2 0xD38 SWAP1 PUSH2 0x3372 JUMP JUMPDEST PUSH1 0x40 MLOAD DUP1 SWAP2 SUB SWAP1 PUSH2 0xD47 PUSH2 0x233A JUMP JUMPDEST POP POP JUMPDEST DUP1 PUSH20 0xFFFFFFFFFFFFFFFFFFFFFFFFFFFFFFFFFFFFFFFF AND PUSH4 0xA9059CBB DUP4 PUSH1 0x0 ADD PUSH1 0x0 SWAP1 PUSH2 0xD75 PUSH2 0x2405 JUMP JUMPDEST SWAP1 PUSH2 0x100 EXP SWAP1 DIV PUSH20 0xFFFFFFFFFFFFFFFFFFFFFFFFFFFFFFFFFFFFFFFF AND DUP8 DUP6 PUSH1 0x4 ADD PUSH2 0xD9F PUSH2 0x2405 JUMP JUMPDEST SUB PUSH1 0x40 MLOAD DUP4 PUSH4 0xFFFFFFFF AND PUSH1 0xE0 SHL DUP2 MSTORE PUSH1 0x4 ADD PUSH2 0xDBD SWAP3 SWAP2 SWAP1 PUSH2 0x324E JUMP JUMPDEST PUSH1 0x20 PUSH1 0x40 MLOAD DUP1 DUP4 SUB DUP2 PUSH1 0x0 DUP8 DUP1 PUSH2 0xDD2 PUSH2 0x252A JUMP JUMPDEST ISZERO DUP1 ISZERO PUSH2 0xDE7 JUMPI PUSH1 0x0 DUP1 PUSH2 0xDE4 PUSH2 0x233A JUMP JUMPDEST POP POP JUMPDEST POP GAS PUSH2 0xDF1 PUSH2 0x258D JUMP JUMPDEST POP POP POP POP POP POP ISZERO DUP1 ISZERO PUSH2 0xE11 JUMPI RETURNDATASIZE PUSH1 0x0 DUP1 RETURNDATACOPY RETURNDATASIZE PUSH1 0x0 PUSH2 0xE0E PUSH2 0x233A JUMP JUMPDEST POP POP JUMPDEST POP POP POP POP PUSH1 0x40 MLOAD RETURNDATASIZE PUSH1 0x1F NOT PUSH1 0x1F DUP3 ADD AND DUP3 ADD DUP1 PUSH1 0x40 MSTORE POP DUP2 ADD SWAP1 PUSH2 0xE35 SWAP2 SWAP1 PUSH2 0x2AEC JUMP JUMPDEST PUSH2 0xE7D JUMPI PUSH1 0x40 MLOAD PUSH32 0x8C379A000000000000000000000000000000000000000000000000000000000 DUP2 MSTORE PUSH1 0x4 ADD PUSH2 0xE6B SWAP1 PUSH2 0x3372 JUMP JUMPDEST PUSH1 0x40 MLOAD DUP1 SWAP2 SUB SWAP1 PUSH2 0xE7A PUSH2 0x233A JUMP JUMPDEST POP POP JUMPDEST POP PUSH2 0xFA1 JUMP JUMPDEST DUP1 PUSH1 0x1 ADD PUSH1 0x0 SWAP1 PUSH2 0xE92 PUSH2 0x2405 JUMP JUMPDEST SWAP1 PUSH2 0x100 EXP SWAP1 DIV PUSH20 0xFFFFFFFFFFFFFFFFFFFFFFFFFFFFFFFFFFFFFFFF AND PUSH20 0xFFFFFFFFFFFFFFFFFFFFFFFFFFFFFFFFFFFFFFFF AND PUSH2 0x8FC DUP6 SWAP1 DUP2 ISZERO MUL SWAP1 PUSH1 0x40 MLOAD PUSH1 0x0 PUSH1 0x40 MLOAD DUP1 DUP4 SUB DUP2 DUP6 DUP9 DUP9 PUSH2 0xEE5 PUSH2 0x258D JUMP JUMPDEST POP POP POP POP POP POP SWAP4 POP POP POP POP ISZERO DUP1 ISZERO PUSH2 0xF0A JUMPI RETURNDATASIZE PUSH1 0x0 DUP1 RETURNDATACOPY RETURNDATASIZE PUSH1 0x0 PUSH2 0xF07 PUSH2 0x233A JUMP JUMPDEST POP POP JUMPDEST POP DUP1 PUSH1 0x0 ADD PUSH1 0x0 SWAP1 PUSH2 0xF1A PUSH2 0x2405 JUMP JUMPDEST SWAP1 PUSH2 0x100 EXP SWAP1 DIV PUSH20 0xFFFFFFFFFFFFFFFFFFFFFFFFFFFFFFFFFFFFFFFF AND PUSH20 0xFFFFFFFFFFFFFFFFFFFFFFFFFFFFFFFFFFFFFFFF AND PUSH2 0x8FC DUP6 DUP4 PUSH1 0x4 ADD PUSH2 0xF5D PUSH2 0x2405 JUMP JUMPDEST SUB SWAP1 DUP2 ISZERO MUL SWAP1 PUSH1 0x40 MLOAD PUSH1 0x0 PUSH1 0x40 MLOAD DUP1 DUP4 SUB DUP2 DUP6 DUP9 DUP9 PUSH2 0xF7A PUSH2 0x258D JUMP JUMPDEST POP POP POP POP POP POP SWAP4 POP POP POP POP ISZERO DUP1 ISZERO PUSH2 0xF9F JUMPI RETURNDATASIZE PUSH1 0x0 DUP1 RETURNDATACOPY RETURNDATASIZE PUSH1 0x0 PUSH2 0xF9C PUSH2 0x233A JUMP JUMPDEST POP POP JUMPDEST POP JUMPDEST POP POP POP POP POP POP POP JUMP JUMPDEST PUSH1 0x1 PUSH1 0x20 MSTORE DUP1 PUSH1 0x0 MSTORE PUSH1 0x40 PUSH1 0x0 KECCAK256 PUSH1 0x0 SWAP2 POP SWAP1 POP DUP1 PUSH1 0x0 ADD PUSH1 0x0 SWAP1 PUSH2 0xFCD PUSH2 0x2405 JUMP JUMPDEST SWAP1 PUSH2 0x100 EXP SWAP1 DIV PUSH20 0xFFFFFFFFFFFFFFFFFFFFFFFFFFFFFFFFFFFFFFFF AND SWAP1 DUP1 PUSH1 0x1 ADD PUSH1 0x0 SWAP1 PUSH2 0xFFA PUSH2 0x2405 JUMP JUMPDEST SWAP1 PUSH2 0x100 EXP SWAP1 DIV PUSH20 0xFFFFFFFFFFFFFFFFFFFFFFFFFFFFFFFFFFFFFFFF AND SWAP1 DUP1 PUSH1 0x2 ADD PUSH1 0x0 SWAP1 PUSH2 0x1027 PUSH2 0x2405 JUMP JUMPDEST SWAP1 PUSH2 0x100 EXP SWAP1 DIV PUSH20 0xFFFFFFFFFFFFFFFFFFFFFFFFFFFFFFFFFFFFFFFF AND SWAP1 DUP1 PUSH1 0x3 ADD PUSH2 0x1051 PUSH2 0x2405 JUMP JUMPDEST SWAP1 DUP1 PUSH1 0x4 ADD PUSH2 0x105E PUSH2 0x2405 JUMP JUMPDEST SWAP1 DUP1 PUSH1 0x5 ADD PUSH1 0x0 SWAP1 PUSH2 0x106E PUSH2 0x2405 JUMP JUMPDEST SWAP1 PUSH2 0x100 EXP SWAP1 DIV PUSH1 0xFF AND SWAP1 POP DUP7 JUMP JUMPDEST PUSH1 0x0 PUSH1 0x20 MSTORE DUP3 PUSH1 0x0 MSTORE PUSH1 0x40 PUSH1 0x0 KECCAK256 PUSH1 0x20 MSTORE DUP2 PUSH1 0x0 MSTORE PUSH1 0x40 PUSH1 0x0 KECCAK256 PUSH1 0x20 MSTORE DUP1 PUSH1 0x0 MSTORE PUSH1 0x40 PUSH1 0x0 KECCAK256 PUSH1 0x0 SWAP3 POP SWAP3 POP POP POP PUSH2 0x10B3 PUSH2 0x2405 JUMP JUMPDEST DUP2 JUMP JUMPDEST PUSH1 0x0 DUP1 PUSH1 0x0 DUP6 PUSH20 0xFFFFFFFFFFFFFFFFFFFFFFFFFFFFFFFFFFFFFFFF AND PUSH20 0xFFFFFFFFFFFFFFFFFFFFFFFFFFFFFFFFFFFFFFFF AND DUP2 MSTORE PUSH1 0x20 ADD SWAP1 DUP2 MSTORE PUSH1 0x20 ADD PUSH1 0x0 KECCAK256 PUSH1 0x0 DUP5 PUSH20 0xFFFFFFFFFFFFFFFFFFFFFFFFFFFFFFFFFFFFFFFF AND PUSH20 0xFFFFFFFFFFFFFFFFFFFFFFFFFFFFFFFFFFFFFFFF AND DUP2 MSTORE PUSH1 0x20 ADD SWAP1 DUP2 MSTORE PUSH1 0x20 ADD PUSH1 0x0 KECCAK256 PUSH1 0x0 DUP4 PUSH20 0xFFFFFFFFFFFFFFFFFFFFFFFFFFFFFFFFFFFFFFFF AND PUSH20 0xFFFFFFFFFFFFFFFFFFFFFFFFFFFFFFFFFFFFFFFF AND DUP2 MSTORE PUSH1 0x20 ADD SWAP1 DUP2 MSTORE PUSH1 0x20 ADD PUSH1 0x0 KECCAK256 PUSH2 0x1178 PUSH2 0x2405 JUMP JUMPDEST SWAP1 POP SWAP4 SWAP3 POP POP POP JUMP JUMPDEST PUSH2 0x1194 GAS PUSH2 0x118D PUSH2 0x23A8 JUMP JUMPDEST DUP5 DUP5 PUSH2 0x217A JUMP JUMPDEST PUSH2 0x11DC JUMPI PUSH1 0x40 MLOAD PUSH32 0x8C379A000000000000000000000000000000000000000000000000000000000 DUP2 MSTORE PUSH1 0x4 ADD PUSH2 0x11CA SWAP1 PUSH2 0x33B2 JUMP JUMPDEST PUSH1 0x40 MLOAD DUP1 SWAP2 SUB SWAP1 PUSH2 0x11D9 PUSH2 0x233A JUMP JUMPDEST POP POP JUMPDEST PUSH1 0x0 DUP1 PUSH1 0x0 GAS PUSH2 0x11EA PUSH2 0x23A8 JUMP JUMPDEST PUSH20 0xFFFFFFFFFFFFFFFFFFFFFFFFFFFFFFFFFFFFFFFF AND PUSH20 0xFFFFFFFFFFFFFFFFFFFFFFFFFFFFFFFFFFFFFFFF AND DUP2 MSTORE PUSH1 0x20 ADD SWAP1 DUP2 MSTORE PUSH1 0x20 ADD PUSH1 0x0 KECCAK256 PUSH1 0x0 DUP6 PUSH20 0xFFFFFFFFFFFFFFFFFFFFFFFFFFFFFFFFFFFFFFFF AND PUSH20 0xFFFFFFFFFFFFFFFFFFFFFFFFFFFFFFFFFFFFFFFF AND DUP2 MSTORE PUSH1 0x20 ADD SWAP1 DUP2 MSTORE PUSH1 0x20 ADD PUSH1 0x0 KECCAK256 PUSH1 0x0 DUP5 PUSH20 0xFFFFFFFFFFFFFFFFFFFFFFFFFFFFFFFFFFFFFFFF AND PUSH20 0xFFFFFFFFFFFFFFFFFFFFFFFFFFFFFFFFFFFFFFFF AND DUP2 MSTORE PUSH1 0x20 ADD SWAP1 DUP2 MSTORE PUSH1 0x20 ADD PUSH1 0x0 KECCAK256 PUSH2 0x12A6 PUSH2 0x2405 JUMP JUMPDEST SWAP1 POP PUSH1 0x0 PUSH1 0x1 PUSH1 0x0 DUP4 DUP2 MSTORE PUSH1 0x20 ADD SWAP1 DUP2 MSTORE PUSH1 0x20 ADD PUSH1 0x0 KECCAK256 SWAP1 POP DUP1 PUSH1 0x0 ADD PUSH1 0x0 SWAP1 PUSH2 0x12CE PUSH2 0x2405 JUMP JUMPDEST SWAP1 PUSH2 0x100 EXP SWAP1 DIV PUSH20 0xFFFFFFFFFFFFFFFFFFFFFFFFFFFFFFFFFFFFFFFF AND PUSH20 0xFFFFFFFFFFFFFFFFFFFFFFFFFFFFFFFFFFFFFFFF AND GAS PUSH2 0x130A PUSH2 0x23A8 JUMP JUMPDEST PUSH20 0xFFFFFFFFFFFFFFFFFFFFFFFFFFFFFFFFFFFFFFFF AND EQ PUSH2 0x1333 JUMPI PUSH1 0x0 DUP1 PUSH2 0x1330 PUSH2 0x233A JUMP JUMPDEST POP POP JUMPDEST DUP1 PUSH1 0x3 ADD PUSH2 0x133F PUSH2 0x2405 JUMP JUMPDEST DUP4 GT PUSH2 0x1353 JUMPI PUSH1 0x0 DUP1 PUSH2 0x1350 PUSH2 0x233A JUMP JUMPDEST POP POP JUMPDEST DUP3 DUP2 PUSH1 0x3 ADD DUP2 SWAP1 PUSH2 0x1362 PUSH2 0x24C5 JUMP JUMPDEST POP POP POP POP POP POP POP POP JUMP JUMPDEST PUSH1 0x0 PUSH2 0x1379 DUP7 DUP7 DUP7 PUSH2 0x217A JUMP JUMPDEST PUSH2 0x13C1 JUMPI PUSH1 0x40 MLOAD PUSH32 0x8C379A000000000000000000000000000000000000000000000000000000000 DUP2 MSTORE PUSH1 0x4 ADD PUSH2 0x13AF SWAP1 PUSH2 0x33B2 JUMP JUMPDEST PUSH1 0x40 MLOAD DUP1 SWAP2 SUB SWAP1 PUSH2 0x13BE PUSH2 0x233A JUMP JUMPDEST POP POP JUMPDEST PUSH1 0x0 DUP1 PUSH1 0x0 DUP9 PUSH20 0xFFFFFFFFFFFFFFFFFFFFFFFFFFFFFFFFFFFFFFFF AND PUSH20 0xFFFFFFFFFFFFFFFFFFFFFFFFFFFFFFFFFFFFFFFF AND DUP2 MSTORE PUSH1 0x20 ADD SWAP1 DUP2 MSTORE PUSH1 0x20 ADD PUSH1 0x0 KECCAK256 PUSH1 0x0 DUP8 PUSH20 0xFFFFFFFFFFFFFFFFFFFFFFFFFFFFFFFFFFFFFFFF AND PUSH20 0xFFFFFFFFFFFFFFFFFFFFFFFFFFFFFFFFFFFFFFFF AND DUP2 MSTORE PUSH1 0x20 ADD SWAP1 DUP2 MSTORE PUSH1 0x20 ADD PUSH1 0x0 KECCAK256 PUSH1 0x0 DUP7 PUSH20 0xFFFFFFFFFFFFFFFFFFFFFFFFFFFFFFFFFFFFFFFF AND PUSH20 0xFFFFFFFFFFFFFFFFFFFFFFFFFFFFFFFFFFFFFFFF AND DUP2 MSTORE PUSH1 0x20 ADD SWAP1 DUP2 MSTORE PUSH1 0x20 ADD PUSH1 0x0 KECCAK256 PUSH2 0x1483 PUSH2 0x2405 JUMP JUMPDEST SWAP1 POP PUSH1 0x0 PUSH1 0x1 PUSH1 0x0 DUP4 DUP2 MSTORE PUSH1 0x20 ADD SWAP1 DUP2 MSTORE PUSH1 0x20 ADD PUSH1 0x0 KECCAK256 PUSH1 0x40 MLOAD DUP1 PUSH1 0xC0 ADD PUSH1 0x40 MSTORE SWAP1 DUP2 PUSH1 0x0 DUP3 ADD PUSH1 0x0 SWAP1 PUSH2 0x14B5 PUSH2 0x2405 JUMP JUMPDEST SWAP1 PUSH2 0x100 EXP SWAP1 DIV PUSH20 0xFFFFFFFFFFFFFFFFFFFFFFFFFFFFFFFFFFFFFFFF AND PUSH20 0xFFFFFFFFFFFFFFFFFFFFFFFFFFFFFFFFFFFFFFFF AND PUSH20 0xFFFFFFFFFFFFFFFFFFFFFFFFFFFFFFFFFFFFFFFF AND DUP2 MSTORE PUSH1 0x20 ADD PUSH1 0x1 DUP3 ADD PUSH1 0x0 SWAP1 PUSH2 0x1512 PUSH2 0x2405 JUMP JUMPDEST SWAP1 PUSH2 0x100 EXP SWAP1 DIV PUSH20 0xFFFFFFFFFFFFFFFFFFFFFFFFFFFFFFFFFFFFFFFF AND PUSH20 0xFFFFFFFFFFFFFFFFFFFFFFFFFFFFFFFFFFFFFFFF AND PUSH20 0xFFFFFFFFFFFFFFFFFFFFFFFFFFFFFFFFFFFFFFFF AND DUP2 MSTORE PUSH1 0x20 ADD PUSH1 0x2 DUP3 ADD PUSH1 0x0 SWAP1 PUSH2 0x156F PUSH2 0x2405 JUMP JUMPDEST SWAP1 PUSH2 0x100 EXP SWAP1 DIV PUSH20 0xFFFFFFFFFFFFFFFFFFFFFFFFFFFFFFFFFFFFFFFF AND PUSH20 0xFFFFFFFFFFFFFFFFFFFFFFFFFFFFFFFFFFFFFFFF AND PUSH20 0xFFFFFFFFFFFFFFFFFFFFFFFFFFFFFFFFFFFFFFFF AND DUP2 MSTORE PUSH1 0x20 ADD PUSH1 0x3 DUP3 ADD PUSH2 0x15C9 PUSH2 0x2405 JUMP JUMPDEST DUP2 MSTORE PUSH1 0x20 ADD PUSH1 0x4 DUP3 ADD PUSH2 0x15DA PUSH2 0x2405 JUMP JUMPDEST DUP2 MSTORE PUSH1 0x20 ADD PUSH1 0x5 DUP3 ADD PUSH1 0x0 SWAP1 PUSH2 0x15EE PUSH2 0x2405 JUMP JUMPDEST SWAP1 PUSH2 0x100 EXP SWAP1 DIV PUSH1 0xFF AND ISZERO ISZERO ISZERO ISZERO DUP2 MSTORE POP POP SWAP1 POP PUSH1 0x0 PUSH2 0x1692 GAS PUSH4 0x996D79A5 MSIZE DUP2 PUSH1 0xE0 SHL DUP2 MSTORE PUSH1 0x20 DUP2 PUSH1 0x4 DUP4 CALLER PUSH1 0x0 SWAP1 GAS CALL PC PUSH1 0xE ADD JUMPI RETURNDATASIZE PUSH1 0x0 DUP1 RETURNDATACOPY RETURNDATASIZE PUSH1 0x0 REVERT JUMPDEST RETURNDATASIZE PUSH1 0x1 EQ ISZERO PC PUSH1 0xA ADD JUMPI PUSH1 0x1 PUSH1 0x0 RETURN JUMPDEST DUP1 MLOAD SWAP3 POP PUSH1 0x0 JUMPDEST PUSH1 0x40 DUP2 LT ISZERO PUSH2 0x1660 JUMPI PUSH1 0x0 DUP2 DUP4 ADD MSTORE PUSH1 0x20 DUP2 ADD SWAP1 POP PUSH2 0x1646 JUMP JUMPDEST POP POP POP DUP5 DUP9 PUSH1 0x40 MLOAD PUSH1 0x20 ADD PUSH2 0x1677 SWAP4 SWAP3 SWAP2 SWAP1 PUSH2 0x3153 JUMP JUMPDEST PUSH1 0x40 MLOAD PUSH1 0x20 DUP2 DUP4 SUB SUB DUP2 MSTORE SWAP1 PUSH1 0x40 MSTORE DUP1 MLOAD SWAP1 PUSH1 0x20 ADD KECCAK256 PUSH2 0x224B JUMP JUMPDEST SWAP1 POP DUP2 PUSH1 0x0 ADD MLOAD PUSH20 0xFFFFFFFFFFFFFFFFFFFFFFFFFFFFFFFFFFFFFFFF AND PUSH2 0x16B9 DUP3 DUP8 PUSH2 0x227B JUMP JUMPDEST PUSH20 0xFFFFFFFFFFFFFFFFFFFFFFFFFFFFFFFFFFFFFFFF AND EQ SWAP4 POP POP POP POP SWAP6 SWAP5 POP POP POP POP POP JUMP JUMPDEST DUP4 PUSH20 0xFFFFFFFFFFFFFFFFFFFFFFFFFFFFFFFFFFFFFFFF AND GAS PUSH2 0x16FE PUSH2 0x23A8 JUMP JUMPDEST PUSH20 0xFFFFFFFFFFFFFFFFFFFFFFFFFFFFFFFFFFFFFFFF AND EQ ISZERO PUSH2 0x175E JUMPI PUSH1 0x40 MLOAD PUSH32 0x8C379A000000000000000000000000000000000000000000000000000000000 DUP2 MSTORE PUSH1 0x4 ADD PUSH2 0x174C SWAP1 PUSH2 0x33F2 JUMP JUMPDEST PUSH1 0x40 MLOAD DUP1 SWAP2 SUB SWAP1 PUSH2 0x175B PUSH2 0x233A JUMP JUMPDEST POP POP JUMPDEST PUSH1 0x0 PUSH20 0xFFFFFFFFFFFFFFFFFFFFFFFFFFFFFFFFFFFFFFFF AND DUP5 PUSH20 0xFFFFFFFFFFFFFFFFFFFFFFFFFFFFFFFFFFFFFFFF AND EQ ISZERO PUSH2 0x17D7 JUMPI PUSH1 0x40 MLOAD PUSH32 0x8C379A000000000000000000000000000000000000000000000000000000000 DUP2 MSTORE PUSH1 0x4 ADD PUSH2 0x17C5 SWAP1 PUSH2 0x3312 JUMP JUMPDEST PUSH1 0x40 MLOAD DUP1 SWAP2 SUB SWAP1 PUSH2 0x17D4 PUSH2 0x233A JUMP JUMPDEST POP POP JUMPDEST PUSH2 0x17EA GAS PUSH2 0x17E3 PUSH2 0x23A8 JUMP JUMPDEST DUP6 DUP5 PUSH2 0x217A JUMP JUMPDEST ISZERO PUSH2 0x1937 JUMPI PUSH1 0x0 DUP1 PUSH1 0x0 GAS PUSH2 0x17FD PUSH2 0x23A8 JUMP JUMPDEST PUSH20 0xFFFFFFFFFFFFFFFFFFFFFFFFFFFFFFFFFFFFFFFF AND PUSH20 0xFFFFFFFFFFFFFFFFFFFFFFFFFFFFFFFFFFFFFFFF AND DUP2 MSTORE PUSH1 0x20 ADD SWAP1 DUP2 MSTORE PUSH1 0x20 ADD PUSH1 0x0 KECCAK256 PUSH1 0x0 DUP7 PUSH20 0xFFFFFFFFFFFFFFFFFFFFFFFFFFFFFFFFFFFFFFFF AND PUSH20 0xFFFFFFFFFFFFFFFFFFFFFFFFFFFFFFFFFFFFFFFF AND DUP2 MSTORE PUSH1 0x20 ADD SWAP1 DUP2 MSTORE PUSH1 0x20 ADD PUSH1 0x0 KECCAK256 PUSH1 0x0 DUP5 PUSH20 0xFFFFFFFFFFFFFFFFFFFFFFFFFFFFFFFFFFFFFFFF AND PUSH20 0xFFFFFFFFFFFFFFFFFFFFFFFFFFFFFFFFFFFFFFFF AND DUP2 MSTORE PUSH1 0x20 ADD SWAP1 DUP2 MSTORE PUSH1 0x20 ADD PUSH1 0x0 KECCAK256 PUSH2 0x18B9 PUSH2 0x2405 JUMP JUMPDEST SWAP1 POP PUSH1 0x0 ISZERO ISZERO PUSH1 0x1 PUSH1 0x0 DUP4 DUP2 MSTORE PUSH1 0x20 ADD SWAP1 DUP2 MSTORE PUSH1 0x20 ADD PUSH1 0x0 KECCAK256 PUSH1 0x5 ADD PUSH1 0x0 SWAP1 PUSH2 0x18E0 PUSH2 0x2405 JUMP JUMPDEST SWAP1 PUSH2 0x100 EXP SWAP1 DIV PUSH1 0xFF AND ISZERO ISZERO EQ PUSH2 0x1935 JUMPI PUSH1 0x40 MLOAD PUSH32 0x8C379A000000000000000000000000000000000000000000000000000000000 DUP2 MSTORE PUSH1 0x4 ADD PUSH2 0x1923 SWAP1 PUSH2 0x3332 JUMP JUMPDEST PUSH1 0x40 MLOAD DUP1 SWAP2 SUB SWAP1 PUSH2 0x1932 PUSH2 0x233A JUMP JUMPDEST POP POP JUMPDEST POP JUMPDEST PUSH1 0x0 DUP1 PUSH20 0xFFFFFFFFFFFFFFFFFFFFFFFFFFFFFFFFFFFFFFFF AND DUP4 PUSH20 0xFFFFFFFFFFFFFFFFFFFFFFFFFFFFFFFFFFFFFFFF AND EQ PUSH2 0x1B26 JUMPI PUSH1 0x0 CALLVALUE EQ PUSH2 0x19B8 JUMPI PUSH1 0x40 MLOAD PUSH32 0x8C379A000000000000000000000000000000000000000000000000000000000 DUP2 MSTORE PUSH1 0x4 ADD PUSH2 0x19A6 SWAP1 PUSH2 0x3392 JUMP JUMPDEST PUSH1 0x40 MLOAD DUP1 SWAP2 SUB SWAP1 PUSH2 0x19B5 PUSH2 0x233A JUMP JUMPDEST POP POP JUMPDEST DUP2 SWAP1 POP PUSH1 0x0 DUP4 SWAP1 POP DUP1 PUSH20 0xFFFFFFFFFFFFFFFFFFFFFFFFFFFFFFFFFFFFFFFF AND PUSH4 0x23B872DD GAS PUSH2 0x19E5 PUSH2 0x23A8 JUMP JUMPDEST GAS PUSH4 0x996D79A5 MSIZE DUP2 PUSH1 0xE0 SHL DUP2 MSTORE PUSH1 0x20 DUP2 PUSH1 0x4 DUP4 CALLER PUSH1 0x0 SWAP1 GAS CALL PC PUSH1 0xE ADD JUMPI RETURNDATASIZE PUSH1 0x0 DUP1 RETURNDATACOPY RETURNDATASIZE PUSH1 0x0 REVERT JUMPDEST RETURNDATASIZE PUSH1 0x1 EQ ISZERO PC PUSH1 0xA ADD JUMPI PUSH1 0x1 PUSH1 0x0 RETURN JUMPDEST DUP1 MLOAD SWAP3 POP PUSH1 0x0 JUMPDEST PUSH1 0x40 DUP2 LT ISZERO PUSH2 0x1A3E JUMPI PUSH1 0x0 DUP2 DUP4 ADD MSTORE PUSH1 0x20 DUP2 ADD SWAP1 POP PUSH2 0x1A24 JUMP JUMPDEST POP POP POP DUP7 PUSH1 0x40 MLOAD DUP5 PUSH4 0xFFFFFFFF AND PUSH1 0xE0 SHL DUP2 MSTORE PUSH1 0x4 ADD PUSH2 0x1A60 SWAP4 SWAP3 SWAP2 SWAP1 PUSH2 0x3217 JUMP JUMPDEST PUSH1 0x20 PUSH1 0x40 MLOAD DUP1 DUP4 SUB DUP2 PUSH1 0x0 DUP8 DUP1 PUSH2 0x1A75 PUSH2 0x252A JUMP JUMPDEST ISZERO DUP1 ISZERO PUSH2 0x1A8A JUMPI PUSH1 0x0 DUP1 PUSH2 0x1A87 PUSH2 0x233A JUMP JUMPDEST POP POP JUMPDEST POP GAS PUSH2 0x1A94 PUSH2 0x258D JUMP JUMPDEST POP POP POP POP POP POP ISZERO DUP1 ISZERO PUSH2 0x1AB4 JUMPI RETURNDATASIZE PUSH1 0x0 DUP1 RETURNDATACOPY RETURNDATASIZE PUSH1 0x0 PUSH2 0x1AB1 PUSH2 0x233A JUMP JUMPDEST POP POP JUMPDEST POP POP POP POP PUSH1 0x40 MLOAD RETURNDATASIZE PUSH1 0x1F NOT PUSH1 0x1F DUP3 ADD AND DUP3 ADD DUP1 PUSH1 0x40 MSTORE POP DUP2 ADD SWAP1 PUSH2 0x1AD8 SWAP2 SWAP1 PUSH2 0x2AEC JUMP JUMPDEST PUSH2 0x1B20 JUMPI PUSH1 0x40 MLOAD PUSH32 0x8C379A000000000000000000000000000000000000000000000000000000000 DUP2 MSTORE PUSH1 0x4 ADD PUSH2 0x1B0E SWAP1 PUSH2 0x3352 JUMP JUMPDEST PUSH1 0x40 MLOAD DUP1 SWAP2 SUB SWAP1 PUSH2 0x1B1D PUSH2 0x233A JUMP JUMPDEST POP POP JUMPDEST POP PUSH2 0x1BC2 JUMP JUMPDEST PUSH1 0x0 CALLVALUE GT PUSH2 0x1B72 JUMPI PUSH1 0x40 MLOAD PUSH32 0x8C379A000000000000000000000000000000000000000000000000000000000 DUP2 MSTORE PUSH1 0x4 ADD PUSH2 0x1B60 SWAP1 PUSH2 0x3432 JUMP JUMPDEST PUSH1 0x40 MLOAD DUP1 SWAP2 SUB SWAP1 PUSH2 0x1B6F PUSH2 0x233A JUMP JUMPDEST POP POP JUMPDEST PUSH1 0x0 DUP3 EQ PUSH2 0x1BBE JUMPI PUSH1 0x40 MLOAD PUSH32 0x8C379A000000000000000000000000000000000000000000000000000000000 DUP2 MSTORE PUSH1 0x4 ADD PUSH2 0x1BAC SWAP1 PUSH2 0x3392 JUMP JUMPDEST PUSH1 0x40 MLOAD DUP1 SWAP2 SUB SWAP1 PUSH2 0x1BBB PUSH2 0x233A JUMP JUMPDEST POP POP JUMPDEST CALLVALUE SWAP1 POP JUMPDEST PUSH1 0x0 GAS PUSH2 0x1BCD PUSH2 0x23A8 JUMP JUMPDEST DUP7 GAS PUSH2 0x1BD7 PUSH2 0x2468 JUMP JUMPDEST PUSH1 0x40 MLOAD PUSH1 0x20 ADD PUSH2 0x1BE9 SWAP4 SWAP3 SWAP2 SWAP1 PUSH2 0x3116 JUMP JUMPDEST PUSH1 0x40 MLOAD PUSH1 0x20 DUP2 DUP4 SUB SUB DUP2 MSTORE SWAP1 PUSH1 0x40 MSTORE DUP1 MLOAD SWAP1 PUSH1 0x20 ADD KECCAK256 SWAP1 POP PUSH1 0x0 PUSH1 0x40 MLOAD DUP1 PUSH1 0xC0 ADD PUSH1 0x40 MSTORE DUP1 GAS PUSH2 0x1C17 PUSH2 0x23A8 JUMP JUMPDEST PUSH20 0xFFFFFFFFFFFFFFFFFFFFFFFFFFFFFFFFFFFFFFFF AND DUP2 MSTORE PUSH1 0x20 ADD DUP9 PUSH20 0xFFFFFFFFFFFFFFFFFFFFFFFFFFFFFFFFFFFFFFFF AND DUP2 MSTORE PUSH1 0x20 ADD DUP7 PUSH20 0xFFFFFFFFFFFFFFFFFFFFFFFFFFFFFFFFFFFFFFFF AND DUP2 MSTORE PUSH1 0x20 ADD DUP8 GAS PUSH2 0x1C74 PUSH2 0x2468 JUMP JUMPDEST ADD DUP2 MSTORE PUSH1 0x20 ADD DUP5 DUP2 MSTORE PUSH1 0x20 ADD PUSH1 0x1 ISZERO ISZERO DUP2 MSTORE POP SWAP1 POP DUP2 PUSH1 0x0 DUP1 GAS PUSH2 0x1C96 PUSH2 0x23A8 JUMP JUMPDEST PUSH20 0xFFFFFFFFFFFFFFFFFFFFFFFFFFFFFFFFFFFFFFFF AND PUSH20 0xFFFFFFFFFFFFFFFFFFFFFFFFFFFFFFFFFFFFFFFF AND DUP2 MSTORE PUSH1 0x20 ADD SWAP1 DUP2 MSTORE PUSH1 0x20 ADD PUSH1 0x0 KECCAK256 PUSH1 0x0 DUP10 PUSH20 0xFFFFFFFFFFFFFFFFFFFFFFFFFFFFFFFFFFFFFFFF AND PUSH20 0xFFFFFFFFFFFFFFFFFFFFFFFFFFFFFFFFFFFFFFFF AND DUP2 MSTORE PUSH1 0x20 ADD SWAP1 DUP2 MSTORE PUSH1 0x20 ADD PUSH1 0x0 KECCAK256 PUSH1 0x0 DUP8 PUSH20 0xFFFFFFFFFFFFFFFFFFFFFFFFFFFFFFFFFFFFFFFF AND PUSH20 0xFFFFFFFFFFFFFFFFFFFFFFFFFFFFFFFFFFFFFFFF AND DUP2 MSTORE PUSH1 0x20 ADD SWAP1 DUP2 MSTORE PUSH1 0x20 ADD PUSH1 0x0 KECCAK256 DUP2 SWAP1 PUSH2 0x1D54 PUSH2 0x24C5 JUMP JUMPDEST POP POP POP DUP1 PUSH1 0x1 PUSH1 0x0 DUP5 DUP2 MSTORE PUSH1 0x20 ADD SWAP1 DUP2 MSTORE PUSH1 0x20 ADD PUSH1 0x0 KECCAK256 PUSH1 0x0 DUP3 ADD MLOAD DUP2 PUSH1 0x0 ADD PUSH1 0x0 PUSH2 0x100 EXP DUP2 PUSH2 0x1D83 PUSH2 0x2405 JUMP JUMPDEST DUP2 PUSH20 0xFFFFFFFFFFFFFFFFFFFFFFFFFFFFFFFFFFFFFFFF MUL NOT AND SWAP1 DUP4 PUSH20 0xFFFFFFFFFFFFFFFFFFFFFFFFFFFFFFFFFFFFFFFF AND MUL OR SWAP1 PUSH2 0x1DBF PUSH2 0x24C5 JUMP JUMPDEST POP POP POP PUSH1 0x20 DUP3 ADD MLOAD DUP2 PUSH1 0x1 ADD PUSH1 0x0 PUSH2 0x100 EXP DUP2 PUSH2 0x1DDA PUSH2 0x2405 JUMP JUMPDEST DUP2 PUSH20 0xFFFFFFFFFFFFFFFFFFFFFFFFFFFFFFFFFFFFFFFF MUL NOT AND SWAP1 DUP4 PUSH20 0xFFFFFFFFFFFFFFFFFFFFFFFFFFFFFFFFFFFFFFFF AND MUL OR SWAP1 PUSH2 0x1E16 PUSH2 0x24C5 JUMP JUMPDEST POP POP POP PUSH1 0x40 DUP3 ADD MLOAD DUP2 PUSH1 0x2 ADD PUSH1 0x0 PUSH2 0x100 EXP DUP2 PUSH2 0x1E31 PUSH2 0x2405 JUMP JUMPDEST DUP2 PUSH20 0xFFFFFFFFFFFFFFFFFFFFFFFFFFFFFFFFFFFFFFFF MUL NOT AND SWAP1 DUP4 PUSH20 0xFFFFFFFFFFFFFFFFFFFFFFFFFFFFFFFFFFFFFFFF AND MUL OR SWAP1 PUSH2 0x1E6D PUSH2 0x24C5 JUMP JUMPDEST POP POP POP PUSH1 0x60 DUP3 ADD MLOAD DUP2 PUSH1 0x3 ADD PUSH2 0x1E81 PUSH2 0x24C5 JUMP JUMPDEST POP POP PUSH1 0x80 DUP3 ADD MLOAD DUP2 PUSH1 0x4 ADD PUSH2 0x1E94 PUSH2 0x24C5 JUMP JUMPDEST POP POP PUSH1 0xA0 DUP3 ADD MLOAD DUP2 PUSH1 0x5 ADD PUSH1 0x0 PUSH2 0x100 EXP DUP2 PUSH2 0x1EAE PUSH2 0x2405 JUMP JUMPDEST DUP2 PUSH1 0xFF MUL NOT AND SWAP1 DUP4 ISZERO ISZERO MUL OR SWAP1 PUSH2 0x1EC3 PUSH2 0x24C5 JUMP JUMPDEST POP POP POP SWAP1 POP POP POP POP POP POP POP POP POP JUMP JUMPDEST PUSH2 0x1EDA PUSH2 0x268D JUMP JUMPDEST PUSH2 0x1EE5 DUP5 DUP5 DUP5 PUSH2 0x217A JUMP JUMPDEST PUSH2 0x1F2D JUMPI PUSH1 0x40 MLOAD PUSH32 0x8C379A000000000000000000000000000000000000000000000000000000000 DUP2 MSTORE PUSH1 0x4 ADD PUSH2 0x1F1B SWAP1 PUSH2 0x33B2 JUMP JUMPDEST PUSH1 0x40 MLOAD DUP1 SWAP2 SUB SWAP1 PUSH2 0x1F2A PUSH2 0x233A JUMP JUMPDEST POP POP JUMPDEST PUSH1 0x0 DUP1 PUSH1 0x0 DUP7 PUSH20 0xFFFFFFFFFFFFFFFFFFFFFFFFFFFFFFFFFFFFFFFF AND PUSH20 0xFFFFFFFFFFFFFFFFFFFFFFFFFFFFFFFFFFFFFFFF AND DUP2 MSTORE PUSH1 0x20 ADD SWAP1 DUP2 MSTORE PUSH1 0x20 ADD PUSH1 0x0 KECCAK256 PUSH1 0x0 DUP6 PUSH20 0xFFFFFFFFFFFFFFFFFFFFFFFFFFFFFFFFFFFFFFFF AND PUSH20 0xFFFFFFFFFFFFFFFFFFFFFFFFFFFFFFFFFFFFFFFF AND DUP2 MSTORE PUSH1 0x20 ADD SWAP1 DUP2 MSTORE PUSH1 0x20 ADD PUSH1 0x0 KECCAK256 PUSH1 0x0 DUP5 PUSH20 0xFFFFFFFFFFFFFFFFFFFFFFFFFFFFFFFFFFFFFFFF AND PUSH20 0xFFFFFFFFFFFFFFFFFFFFFFFFFFFFFFFFFFFFFFFF AND DUP2 MSTORE PUSH1 0x20 ADD SWAP1 DUP2 MSTORE PUSH1 0x20 ADD PUSH1 0x0 KECCAK256 PUSH2 0x1FEF PUSH2 0x2405 JUMP JUMPDEST SWAP1 POP PUSH1 0x0 PUSH1 0x1 PUSH1 0x0 DUP4 DUP2 MSTORE PUSH1 0x20 ADD SWAP1 DUP2 MSTORE PUSH1 0x20 ADD PUSH1 0x0 KECCAK256 PUSH1 0x40 MLOAD DUP1 PUSH1 0xC0 ADD PUSH1 0x40 MSTORE SWAP1 DUP2 PUSH1 0x0 DUP3 ADD PUSH1 0x0 SWAP1 PUSH2 0x2021 PUSH2 0x2405 JUMP JUMPDEST SWAP1 PUSH2 0x100 EXP SWAP1 DIV PUSH20 0xFFFFFFFFFFFFFFFFFFFFFFFFFFFFFFFFFFFFFFFF AND PUSH20 0xFFFFFFFFFFFFFFFFFFFFFFFFFFFFFFFFFFFFFFFF AND PUSH20 0xFFFFFFFFFFFFFFFFFFFFFFFFFFFFFFFFFFFFFFFF AND DUP2 MSTORE PUSH1 0x20 ADD PUSH1 0x1 DUP3 ADD PUSH1 0x0 SWAP1 PUSH2 0x207E PUSH2 0x2405 JUMP JUMPDEST SWAP1 PUSH2 0x100 EXP SWAP1 DIV PUSH20 0xFFFFFFFFFFFFFFFFFFFFFFFFFFFFFFFFFFFFFFFF AND PUSH20 0xFFFFFFFFFFFFFFFFFFFFFFFFFFFFFFFFFFFFFFFF AND PUSH20 0xFFFFFFFFFFFFFFFFFFFFFFFFFFFFFFFFFFFFFFFF AND DUP2 MSTORE PUSH1 0x20 ADD PUSH1 0x2 DUP3 ADD PUSH1 0x0 SWAP1 PUSH2 0x20DB PUSH2 0x2405 JUMP JUMPDEST SWAP1 PUSH2 0x100 EXP SWAP1 DIV PUSH20 0xFFFFFFFFFFFFFFFFFFFFFFFFFFFFFFFFFFFFFFFF AND PUSH20 0xFFFFFFFFFFFFFFFFFFFFFFFFFFFFFFFFFFFFFFFF AND PUSH20 0xFFFFFFFFFFFFFFFFFFFFFFFFFFFFFFFFFFFFFFFF AND DUP2 MSTORE PUSH1 0x20 ADD PUSH1 0x3 DUP3 ADD PUSH2 0x2135 PUSH2 0x2405 JUMP JUMPDEST DUP2 MSTORE PUSH1 0x20 ADD PUSH1 0x4 DUP3 ADD PUSH2 0x2146 PUSH2 0x2405 JUMP JUMPDEST DUP2 MSTORE PUSH1 0x20 ADD PUSH1 0x5 DUP3 ADD PUSH1 0x0 SWAP1 PUSH2 0x215A PUSH2 0x2405 JUMP JUMPDEST SWAP1 PUSH2 0x100 EXP SWAP1 DIV PUSH1 0xFF AND ISZERO ISZERO ISZERO ISZERO DUP2 MSTORE POP POP SWAP1 POP DUP1 SWAP3 POP POP POP SWAP4 SWAP3 POP POP POP JUMP JUMPDEST PUSH1 0x0 DUP1 PUSH1 0x0 SHL PUSH1 0x0 DUP1 DUP7 PUSH20 0xFFFFFFFFFFFFFFFFFFFFFFFFFFFFFFFFFFFFFFFF AND PUSH20 0xFFFFFFFFFFFFFFFFFFFFFFFFFFFFFFFFFFFFFFFF AND DUP2 MSTORE PUSH1 0x20 ADD SWAP1 DUP2 MSTORE PUSH1 0x20 ADD PUSH1 0x0 KECCAK256 PUSH1 0x0 DUP6 PUSH20 0xFFFFFFFFFFFFFFFFFFFFFFFFFFFFFFFFFFFFFFFF AND PUSH20 0xFFFFFFFFFFFFFFFFFFFFFFFFFFFFFFFFFFFFFFFF AND DUP2 MSTORE PUSH1 0x20 ADD SWAP1 DUP2 MSTORE PUSH1 0x20 ADD PUSH1 0x0 KECCAK256 PUSH1 0x0 DUP5 PUSH20 0xFFFFFFFFFFFFFFFFFFFFFFFFFFFFFFFFFFFFFFFF AND PUSH20 0xFFFFFFFFFFFFFFFFFFFFFFFFFFFFFFFFFFFFFFFF AND DUP2 MSTORE PUSH1 0x20 ADD SWAP1 DUP2 MSTORE PUSH1 0x20 ADD PUSH1 0x0 KECCAK256 PUSH2 0x2240 PUSH2 0x2405 JUMP JUMPDEST EQ ISZERO SWAP1 POP SWAP4 SWAP3 POP POP POP JUMP JUMPDEST PUSH1 0x0 DUP2 PUSH1 0x40 MLOAD PUSH1 0x20 ADD PUSH2 0x225E SWAP2 SWAP1 PUSH2 0x3190 JUMP JUMPDEST PUSH1 0x40 MLOAD PUSH1 0x20 DUP2 DUP4 SUB SUB DUP2 MSTORE SWAP1 PUSH1 0x40 MSTORE DUP1 MLOAD SWAP1 PUSH1 0x20 ADD KECCAK256 SWAP1 POP SWAP2 SWAP1 POP JUMP JUMPDEST PUSH1 0x0 DUP1 PUSH1 0x0 DUP1 PUSH2 0x228A DUP6 PUSH2 0x22FF JUMP JUMPDEST SWAP3 POP SWAP3 POP SWAP3 POP PUSH1 0x1 DUP7 DUP5 DUP5 DUP5 PUSH1 0x40 MLOAD PUSH1 0x0 DUP2 MSTORE PUSH1 0x20 ADD PUSH1 0x40 MSTORE PUSH1 0x40 MLOAD PUSH2 0x22B3 SWAP5 SWAP4 SWAP3 SWAP2 SWAP1 PUSH2 0x32AD JUMP JUMPDEST PUSH1 0x20 PUSH1 0x40 MLOAD PUSH1 0x20 DUP2 SUB SWAP1 DUP1 DUP5 SUB SWAP1 DUP6 GAS PUSH2 0x22CB PUSH2 0x2707 JUMP JUMPDEST POP POP POP POP POP ISZERO DUP1 ISZERO PUSH2 0x22EA JUMPI RETURNDATASIZE PUSH1 0x0 DUP1 RETURNDATACOPY RETURNDATASIZE PUSH1 0x0 PUSH2 0x22E7 PUSH2 0x233A JUMP JUMPDEST POP POP JUMPDEST POP POP POP PUSH1 0x20 PUSH1 0x40 MLOAD SUB MLOAD SWAP4 POP POP POP POP SWAP3 SWAP2 POP POP JUMP JUMPDEST PUSH1 0x0 DUP1 PUSH1 0x0 PUSH1 0x41 DUP5 MLOAD EQ PUSH2 0x231B JUMPI PUSH1 0x0 DUP1 PUSH2 0x2318 PUSH2 0x233A JUMP JUMPDEST POP POP JUMPDEST PUSH1 0x20 DUP5 ADD MLOAD SWAP2 POP PUSH1 0x40 DUP5 ADD MLOAD SWAP1 POP PUSH1 0x60 DUP5 ADD MLOAD PUSH1 0x0 BYTE SWAP3 POP SWAP2 SWAP4 SWAP1 SWAP3 POP JUMP JUMPDEST PUSH4 0x2A2A7ADB MSIZE DUP2 PUSH1 0xE0 SHL DUP2 MSTORE PUSH1 0x4 DUP2 ADD PUSH1 0x20 DUP2 MSTORE DUP6 PUSH1 0x20 DUP3 ADD MSTORE PUSH1 0x0 JUMPDEST DUP7 DUP2 LT ISZERO PUSH2 0x2375 JUMPI DUP1 DUP7 ADD MLOAD DUP2 PUSH1 0x40 DUP5 ADD ADD MSTORE PUSH1 0x20 DUP2 ADD SWAP1 POP PUSH2 0x2357 JUMP JUMPDEST POP PUSH1 0x20 DUP3 DUP8 PUSH1 0x64 ADD DUP5 CALLER PUSH1 0x0 SWAP1 GAS CALL PC PUSH1 0xE ADD JUMPI RETURNDATASIZE PUSH1 0x0 DUP1 RETURNDATACOPY RETURNDATASIZE PUSH1 0x0 REVERT JUMPDEST RETURNDATASIZE PUSH1 0x1 EQ ISZERO PC PUSH1 0xA ADD JUMPI PUSH1 0x1 PUSH1 0x0 RETURN JUMPDEST POP POP POP JUMP JUMPDEST PUSH4 0x73509064 MSIZE DUP2 PUSH1 0xE0 SHL DUP2 MSTORE PUSH1 0x20 DUP2 PUSH1 0x4 DUP4 CALLER PUSH1 0x0 SWAP1 GAS CALL PC PUSH1 0xE ADD JUMPI RETURNDATASIZE PUSH1 0x0 DUP1 RETURNDATACOPY RETURNDATASIZE PUSH1 0x0 REVERT JUMPDEST RETURNDATASIZE PUSH1 0x1 EQ ISZERO PC PUSH1 0xA ADD JUMPI PUSH1 0x1 PUSH1 0x0 RETURN JUMPDEST DUP1 MLOAD SWAP4 POP PUSH1 0x0 JUMPDEST PUSH1 0x40 DUP2 LT ISZERO PUSH2 0x2400 JUMPI PUSH1 0x0 DUP2 DUP4 ADD MSTORE PUSH1 0x20 DUP2 ADD SWAP1 POP PUSH2 0x23E6 JUMP JUMPDEST POP POP POP JUMP JUMPDEST PUSH4 0x3DAA959 MSIZE DUP2 PUSH1 0xE0 SHL DUP2 MSTORE DUP4 PUSH1 0x4 DUP3 ADD MSTORE PUSH1 0x20 DUP2 PUSH1 0x24 DUP4 CALLER PUSH1 0x0 SWAP1 GAS CALL PC PUSH1 0xE ADD JUMPI RETURNDATASIZE PUSH1 0x0 DUP1 RETURNDATACOPY RETURNDATASIZE PUSH1 0x0 REVERT JUMPDEST RETURNDATASIZE PUSH1 0x1 EQ ISZERO PC PUSH1 0xA ADD JUMPI PUSH1 0x1 PUSH1 0x0 RETURN JUMPDEST DUP1 MLOAD SWAP4 POP PUSH1 0x0 JUMPDEST PUSH1 0x40 DUP2 LT ISZERO PUSH2 0x2463 JUMPI PUSH1 0x0 DUP2 DUP4 ADD MSTORE PUSH1 0x20 DUP2 ADD SWAP1 POP PUSH2 0x2449 JUMP JUMPDEST POP POP POP JUMP JUMPDEST PUSH4 0xBDBF8C36 MSIZE DUP2 PUSH1 0xE0 SHL DUP2 MSTORE PUSH1 0x20 DUP2 PUSH1 0x4 DUP4 CALLER PUSH1 0x0 SWAP1 GAS CALL PC PUSH1 0xE ADD JUMPI RETURNDATASIZE PUSH1 0x0 DUP1 RETURNDATACOPY RETURNDATASIZE PUSH1 0x0 REVERT JUMPDEST RETURNDATASIZE PUSH1 0x1 EQ ISZERO PC PUSH1 0xA ADD JUMPI PUSH1 0x1 PUSH1 0x0 RETURN JUMPDEST DUP1 MLOAD SWAP4 POP PUSH1 0x0 JUMPDEST PUSH1 0x40 DUP2 LT ISZERO PUSH2 0x24C0 JUMPI PUSH1 0x0 DUP2 DUP4 ADD MSTORE PUSH1 0x20 DUP2 ADD SWAP1 POP PUSH2 0x24A6 JUMP JUMPDEST POP POP POP JUMP JUMPDEST PUSH4 0x22BD64C0 MSIZE DUP2 PUSH1 0xE0 SHL DUP2 MSTORE DUP4 PUSH1 0x4 DUP3 ADD MSTORE DUP5 PUSH1 0x24 DUP3 ADD MSTORE PUSH1 0x0 DUP2 PUSH1 0x44 DUP4 CALLER PUSH1 0x0 SWAP1 GAS CALL PC PUSH1 0xE ADD JUMPI RETURNDATASIZE PUSH1 0x0 DUP1 RETURNDATACOPY RETURNDATASIZE PUSH1 0x0 REVERT JUMPDEST RETURNDATASIZE PUSH1 0x1 EQ ISZERO PC PUSH1 0xA ADD JUMPI PUSH1 0x1 PUSH1 0x0 RETURN JUMPDEST PUSH1 0x0 JUMPDEST PUSH1 0x40 DUP2 LT ISZERO PUSH2 0x2525 JUMPI PUSH1 0x0 DUP2 DUP4 ADD MSTORE PUSH1 0x20 DUP2 ADD SWAP1 POP PUSH2 0x250B JUMP JUMPDEST POP POP POP JUMP JUMPDEST PUSH4 0x8435035B MSIZE DUP2 PUSH1 0xE0 SHL DUP2 MSTORE DUP4 PUSH1 0x4 DUP3 ADD MSTORE PUSH1 0x20 DUP2 PUSH1 0x24 DUP4 CALLER PUSH1 0x0 SWAP1 GAS CALL PC PUSH1 0xE ADD JUMPI RETURNDATASIZE PUSH1 0x0 DUP1 RETURNDATACOPY RETURNDATASIZE PUSH1 0x0 REVERT JUMPDEST RETURNDATASIZE PUSH1 0x1 EQ ISZERO PC PUSH1 0xA ADD JUMPI PUSH1 0x1 PUSH1 0x0 RETURN JUMPDEST DUP1 MLOAD SWAP4 POP PUSH1 0x0 JUMPDEST PUSH1 0x40 DUP2 LT ISZERO PUSH2 0x2588 JUMPI PUSH1 0x0 DUP2 DUP4 ADD MSTORE PUSH1 0x20 DUP2 ADD SWAP1 POP PUSH2 0x256E JUMP JUMPDEST POP POP POP JUMP JUMPDEST PUSH4 0x85979F76 MSIZE DUP2 PUSH1 0xE0 SHL DUP2 MSTORE PUSH2 0x25CC JUMP JUMPDEST PUSH1 0x0 DUP2 SWAP1 POP DUP2 DUP4 GT ISZERO PUSH2 0x25AF JUMPI DUP3 SWAP1 POP JUMPDEST SWAP3 SWAP2 POP POP JUMP JUMPDEST PUSH1 0x0 DUP2 SWAP1 POP DUP2 DUP4 LT ISZERO PUSH2 0x25C6 JUMPI DUP3 SWAP1 POP JUMPDEST SWAP3 SWAP2 POP POP JUMP JUMPDEST DUP4 PUSH1 0x4 DUP3 ADD MSTORE DUP5 PUSH1 0x24 DUP3 ADD MSTORE PUSH1 0x60 PUSH1 0x44 DUP3 ADD MSTORE DUP8 PUSH1 0x64 DUP3 ADD MSTORE PUSH1 0x84 DUP2 ADD PUSH1 0x0 JUMPDEST DUP10 DUP2 LT ISZERO PUSH2 0x2607 JUMPI DUP1 DUP10 ADD MLOAD DUP2 DUP4 ADD MSTORE PUSH1 0x20 DUP2 ADD SWAP1 POP PUSH2 0x25EC JUMP JUMPDEST POP PUSH1 0x60 DUP3 DUP11 PUSH1 0xA4 ADD DUP5 CALLER PUSH1 0x0 SWAP1 GAS CALL PC PUSH1 0xE ADD JUMPI RETURNDATASIZE PUSH1 0x0 DUP1 RETURNDATACOPY RETURNDATASIZE PUSH1 0x0 REVERT JUMPDEST RETURNDATASIZE PUSH1 0x1 EQ ISZERO PC PUSH1 0xA ADD JUMPI PUSH1 0x1 PUSH1 0x0 RETURN JUMPDEST DUP2 MLOAD PUSH1 0x40 DUP4 ADD MLOAD RETURNDATASIZE PUSH1 0x0 DUP6 RETURNDATACOPY DUP13 DUP13 DUP3 PUSH1 0x60 DUP8 ADD CALLER POP PUSH1 0x0 PUSH1 0x4 GAS CALL POP MSIZE PUSH2 0x265C DUP15 RETURNDATASIZE PUSH2 0x25B5 JUMP JUMPDEST DUP14 ADD PUSH2 0x2668 DUP2 DUP8 PUSH2 0x259E JUMP JUMPDEST JUMPDEST DUP3 DUP2 LT ISZERO PUSH2 0x2680 JUMPI PUSH1 0x0 DUP2 MSTORE PUSH1 0x20 DUP2 ADD SWAP1 POP PUSH2 0x2669 JUMP JUMPDEST POP DUP4 SWAP15 POP POP POP POP POP POP POP POP JUMP JUMPDEST PUSH1 0x40 MLOAD DUP1 PUSH1 0xC0 ADD PUSH1 0x40 MSTORE DUP1 PUSH1 0x0 PUSH20 0xFFFFFFFFFFFFFFFFFFFFFFFFFFFFFFFFFFFFFFFF AND DUP2 MSTORE PUSH1 0x20 ADD PUSH1 0x0 PUSH20 0xFFFFFFFFFFFFFFFFFFFFFFFFFFFFFFFFFFFFFFFF AND DUP2 MSTORE PUSH1 0x20 ADD PUSH1 0x0 PUSH20 0xFFFFFFFFFFFFFFFFFFFFFFFFFFFFFFFFFFFFFFFF AND DUP2 MSTORE PUSH1 0x20 ADD PUSH1 0x0 DUP2 MSTORE PUSH1 0x20 ADD PUSH1 0x0 DUP2 MSTORE PUSH1 0x20 ADD PUSH1 0x0 ISZERO ISZERO DUP2 MSTORE POP SWAP1 JUMP JUMPDEST PUSH4 0x8540661F MSIZE DUP2 PUSH1 0xE0 SHL DUP2 MSTORE PUSH2 0x2746 JUMP JUMPDEST PUSH1 0x0 DUP2 SWAP1 POP DUP2 DUP4 GT ISZERO PUSH2 0x2729 JUMPI DUP3 SWAP1 POP JUMPDEST SWAP3 SWAP2 POP POP JUMP JUMPDEST PUSH1 0x0 DUP2 SWAP1 POP DUP2 DUP4 LT ISZERO PUSH2 0x2740 JUMPI DUP3 SWAP1 POP JUMPDEST SWAP3 SWAP2 POP POP JUMP JUMPDEST DUP4 PUSH1 0x4 DUP3 ADD MSTORE DUP5 PUSH1 0x24 DUP3 ADD MSTORE PUSH1 0x60 PUSH1 0x44 DUP3 ADD MSTORE DUP7 PUSH1 0x64 DUP3 ADD MSTORE PUSH1 0x84 DUP2 ADD PUSH1 0x0 JUMPDEST DUP9 DUP2 LT ISZERO PUSH2 0x2781 JUMPI DUP1 DUP9 ADD MLOAD DUP2 DUP4 ADD MSTORE PUSH1 0x20 DUP2 ADD SWAP1 POP PUSH2 0x2766 JUMP JUMPDEST POP PUSH1 0x60 DUP3 DUP10 PUSH1 0xA4 ADD DUP5 CALLER PUSH1 0x0 SWAP1 GAS CALL PC PUSH1 0xE ADD JUMPI RETURNDATASIZE PUSH1 0x0 DUP1 RETURNDATACOPY RETURNDATASIZE PUSH1 0x0 REVERT JUMPDEST RETURNDATASIZE PUSH1 0x1 EQ ISZERO PC PUSH1 0xA ADD JUMPI PUSH1 0x1 PUSH1 0x0 RETURN JUMPDEST DUP2 MLOAD PUSH1 0x40 DUP4 ADD MLOAD RETURNDATASIZE PUSH1 0x0 DUP6 RETURNDATACOPY DUP12 DUP12 DUP3 PUSH1 0x60 DUP8 ADD CALLER POP PUSH1 0x0 PUSH1 0x4 GAS CALL POP MSIZE PUSH2 0x27D6 DUP14 RETURNDATASIZE PUSH2 0x272F JUMP JUMPDEST DUP13 ADD PUSH2 0x27E2 DUP2 DUP8 PUSH2 0x2718 JUMP JUMPDEST JUMPDEST DUP3 DUP2 LT ISZERO PUSH2 0x27FA JUMPI PUSH1 0x0 DUP2 MSTORE PUSH1 0x20 DUP2 ADD SWAP1 POP PUSH2 0x27E3 JUMP JUMPDEST POP DUP4 SWAP14 POP POP POP POP POP POP POP POP JUMP JUMPDEST PUSH1 0x0 PUSH2 0x281A PUSH2 0x2815 DUP5 PUSH2 0x34BE JUMP JUMPDEST PUSH2 0x348D JUMP JUMPDEST SWAP1 POP DUP3 DUP2 MSTORE PUSH1 0x20 DUP2 ADD DUP5 DUP5 DUP5 ADD GT ISZERO PUSH2 0x283B JUMPI PUSH1 0x0 DUP1 PUSH2 0x2838 PUSH2 0x233A JUMP JUMPDEST POP POP JUMPDEST PUSH2 0x2846 DUP5 DUP3 DUP6 PUSH2 0x35D5 JUMP JUMPDEST POP SWAP4 SWAP3 POP POP POP JUMP JUMPDEST PUSH1 0x0 DUP2 CALLDATALOAD SWAP1 POP PUSH2 0x285D DUP2 PUSH2 0x363D JUMP JUMPDEST SWAP3 SWAP2 POP POP JUMP JUMPDEST PUSH1 0x0 DUP2 CALLDATALOAD SWAP1 POP PUSH2 0x2872 DUP2 PUSH2 0x365D JUMP JUMPDEST SWAP3 SWAP2 POP POP JUMP JUMPDEST PUSH1 0x0 DUP2 MLOAD SWAP1 POP PUSH2 0x2887 DUP2 PUSH2 0x367D JUMP JUMPDEST SWAP3 SWAP2 POP POP JUMP JUMPDEST PUSH1 0x0 DUP2 CALLDATALOAD SWAP1 POP PUSH2 0x289C DUP2 PUSH2 0x369D JUMP JUMPDEST SWAP3 SWAP2 POP POP JUMP JUMPDEST PUSH1 0x0 DUP3 PUSH1 0x1F DUP4 ADD SLT PUSH2 0x28BC JUMPI PUSH1 0x0 DUP1 PUSH2 0x28B9 PUSH2 0x233A JUMP JUMPDEST POP POP JUMPDEST DUP2 CALLDATALOAD PUSH2 0x28CC DUP5 DUP3 PUSH1 0x20 DUP7 ADD PUSH2 0x2807 JUMP JUMPDEST SWAP2 POP POP SWAP3 SWAP2 POP POP JUMP JUMPDEST PUSH1 0x0 DUP2 CALLDATALOAD SWAP1 POP PUSH2 0x28E4 DUP2 PUSH2 0x36BD JUMP JUMPDEST SWAP3 SWAP2 POP POP JUMP JUMPDEST PUSH1 0x0 DUP1 PUSH1 0x0 DUP1 PUSH1 0x80 DUP6 DUP8 SUB SLT ISZERO PUSH2 0x2909 JUMPI PUSH1 0x0 DUP1 PUSH2 0x2906 PUSH2 0x233A JUMP JUMPDEST POP POP JUMPDEST PUSH1 0x0 PUSH2 0x2917 DUP8 DUP3 DUP9 ADD PUSH2 0x2863 JUMP JUMPDEST SWAP5 POP POP PUSH1 0x20 PUSH2 0x2928 DUP8 DUP3 DUP9 ADD PUSH2 0x28D5 JUMP JUMPDEST SWAP4 POP POP PUSH1 0x40 PUSH2 0x2939 DUP8 DUP3 DUP9 ADD PUSH2 0x284E JUMP JUMPDEST SWAP3 POP POP PUSH1 0x60 PUSH2 0x294A DUP8 DUP3 DUP9 ADD PUSH2 0x28D5 JUMP JUMPDEST SWAP2 POP POP SWAP3 SWAP6 SWAP2 SWAP5 POP SWAP3 POP JUMP JUMPDEST PUSH1 0x0 DUP1 PUSH1 0x40 DUP4 DUP6 SUB SLT ISZERO PUSH2 0x2972 JUMPI PUSH1 0x0 DUP1 PUSH2 0x296F PUSH2 0x233A JUMP JUMPDEST POP POP JUMPDEST PUSH1 0x0 PUSH2 0x2980 DUP6 DUP3 DUP7 ADD PUSH2 0x284E JUMP JUMPDEST SWAP3 POP POP PUSH1 0x20 PUSH2 0x2991 DUP6 DUP3 DUP7 ADD PUSH2 0x284E JUMP JUMPDEST SWAP2 POP POP SWAP3 POP SWAP3 SWAP1 POP JUMP JUMPDEST PUSH1 0x0 DUP1 PUSH1 0x0 PUSH1 0x60 DUP5 DUP7 SUB SLT ISZERO PUSH2 0x29B9 JUMPI PUSH1 0x0 DUP1 PUSH2 0x29B6 PUSH2 0x233A JUMP JUMPDEST POP POP JUMPDEST PUSH1 0x0 PUSH2 0x29C7 DUP7 DUP3 DUP8 ADD PUSH2 0x284E JUMP JUMPDEST SWAP4 POP POP PUSH1 0x20 PUSH2 0x29D8 DUP7 DUP3 DUP8 ADD PUSH2 0x284E JUMP JUMPDEST SWAP3 POP POP PUSH1 0x40 PUSH2 0x29E9 DUP7 DUP3 DUP8 ADD PUSH2 0x284E JUMP JUMPDEST SWAP2 POP POP SWAP3 POP SWAP3 POP SWAP3 JUMP JUMPDEST PUSH1 0x0 DUP1 PUSH1 0x0 DUP1 PUSH1 0x0 PUSH1 0xA0 DUP7 DUP9 SUB SLT ISZERO PUSH2 0x2A14 JUMPI PUSH1 0x0 DUP1 PUSH2 0x2A11 PUSH2 0x233A JUMP JUMPDEST POP POP JUMPDEST PUSH1 0x0 PUSH2 0x2A22 DUP9 DUP3 DUP10 ADD PUSH2 0x284E JUMP JUMPDEST SWAP6 POP POP PUSH1 0x20 PUSH2 0x2A33 DUP9 DUP3 DUP10 ADD PUSH2 0x284E JUMP JUMPDEST SWAP5 POP POP PUSH1 0x40 PUSH2 0x2A44 DUP9 DUP3 DUP10 ADD PUSH2 0x284E JUMP JUMPDEST SWAP4 POP POP PUSH1 0x60 PUSH2 0x2A55 DUP9 DUP3 DUP10 ADD PUSH2 0x28D5 JUMP JUMPDEST SWAP3 POP POP PUSH1 0x80 DUP7 ADD CALLDATALOAD PUSH8 0xFFFFFFFFFFFFFFFF DUP2 GT ISZERO PUSH2 0x2A7B JUMPI PUSH1 0x0 DUP1 PUSH2 0x2A78 PUSH2 0x233A JUMP JUMPDEST POP POP JUMPDEST PUSH2 0x2A87 DUP9 DUP3 DUP10 ADD PUSH2 0x28A2 JUMP JUMPDEST SWAP2 POP POP SWAP3 SWAP6 POP SWAP3 SWAP6 SWAP1 SWAP4 POP JUMP JUMPDEST PUSH1 0x0 DUP1 PUSH1 0x0 PUSH1 0x60 DUP5 DUP7 SUB SLT ISZERO PUSH2 0x2AB2 JUMPI PUSH1 0x0 DUP1 PUSH2 0x2AAF PUSH2 0x233A JUMP JUMPDEST POP POP JUMPDEST PUSH1 0x0 PUSH2 0x2AC0 DUP7 DUP3 DUP8 ADD PUSH2 0x284E JUMP JUMPDEST SWAP4 POP POP PUSH1 0x20 PUSH2 0x2AD1 DUP7 DUP3 DUP8 ADD PUSH2 0x284E JUMP JUMPDEST SWAP3 POP POP PUSH1 0x40 PUSH2 0x2AE2 DUP7 DUP3 DUP8 ADD PUSH2 0x28D5 JUMP JUMPDEST SWAP2 POP POP SWAP3 POP SWAP3 POP SWAP3 JUMP JUMPDEST PUSH1 0x0 PUSH1 0x20 DUP3 DUP5 SUB SLT ISZERO PUSH2 0x2B07 JUMPI PUSH1 0x0 DUP1 PUSH2 0x2B04 PUSH2 0x233A JUMP JUMPDEST POP POP JUMPDEST PUSH1 0x0 PUSH2 0x2B15 DUP5 DUP3 DUP6 ADD PUSH2 0x2878 JUMP JUMPDEST SWAP2 POP POP SWAP3 SWAP2 POP POP JUMP JUMPDEST PUSH1 0x0 PUSH1 0x20 DUP3 DUP5 SUB SLT ISZERO PUSH2 0x2B39 JUMPI PUSH1 0x0 DUP1 PUSH2 0x2B36 PUSH2 0x233A JUMP JUMPDEST POP POP JUMPDEST PUSH1 0x0 PUSH2 0x2B47 DUP5 DUP3 DUP6 ADD PUSH2 0x288D JUMP JUMPDEST SWAP2 POP POP SWAP3 SWAP2 POP POP JUMP JUMPDEST PUSH2 0x2B59 DUP2 PUSH2 0x357B JUMP JUMPDEST DUP3 MSTORE POP POP JUMP JUMPDEST PUSH2 0x2B68 DUP2 PUSH2 0x351C JUMP JUMPDEST DUP3 MSTORE POP POP JUMP JUMPDEST PUSH2 0x2B77 DUP2 PUSH2 0x351C JUMP JUMPDEST DUP3 MSTORE POP POP JUMP JUMPDEST PUSH2 0x2B8E PUSH2 0x2B89 DUP3 PUSH2 0x351C JUMP JUMPDEST PUSH2 0x35F6 JUMP JUMPDEST DUP3 MSTORE POP POP JUMP JUMPDEST PUSH2 0x2B9D DUP2 PUSH2 0x350A JUMP JUMPDEST DUP3 MSTORE POP POP JUMP JUMPDEST PUSH2 0x2BAC DUP2 PUSH2 0x350A JUMP JUMPDEST DUP3 MSTORE POP POP JUMP JUMPDEST PUSH2 0x2BBB DUP2 PUSH2 0x352E JUMP JUMPDEST DUP3 MSTORE POP POP JUMP JUMPDEST PUSH2 0x2BCA DUP2 PUSH2 0x352E JUMP JUMPDEST DUP3 MSTORE POP POP JUMP JUMPDEST PUSH2 0x2BD9 DUP2 PUSH2 0x353A JUMP JUMPDEST DUP3 MSTORE POP POP JUMP JUMPDEST PUSH2 0x2BF0 PUSH2 0x2BEB DUP3 PUSH2 0x353A JUMP JUMPDEST PUSH2 0x3608 JUMP JUMPDEST DUP3 MSTORE POP POP JUMP JUMPDEST PUSH2 0x2C07 PUSH2 0x2C02 DUP3 PUSH2 0x358D JUMP JUMPDEST PUSH2 0x35E4 JUMP JUMPDEST DUP3 MSTORE POP POP JUMP JUMPDEST PUSH1 0x0 PUSH2 0x2C1A PUSH1 0x1C DUP4 PUSH2 0x34FF JUMP JUMPDEST SWAP2 POP PUSH32 0x19457468657265756D205369676E6564204D6573736167653A0A333200000000 PUSH1 0x0 DUP4 ADD MSTORE PUSH1 0x1C DUP3 ADD SWAP1 POP SWAP2 SWAP1 POP JUMP JUMPDEST PUSH1 0x0 PUSH2 0x2C5A PUSH1 0x10 DUP4 PUSH2 0x34EE JUMP JUMPDEST SWAP2 POP PUSH32 0x4368616E6E656C206E6F74206F70656E00000000000000000000000000000000 PUSH1 0x0 DUP4 ADD MSTORE PUSH1 0x20 DUP3 ADD SWAP1 POP SWAP2 SWAP1 POP JUMP JUMPDEST PUSH1 0x0 PUSH2 0x2C9A PUSH1 0x17 DUP4 PUSH2 0x34EE JUMP JUMPDEST SWAP2 POP PUSH32 0x526563697069656E742063616E2774206265207A65726F000000000000000000 PUSH1 0x0 DUP4 ADD MSTORE PUSH1 0x20 DUP3 ADD SWAP1 POP SWAP2 SWAP1 POP JUMP JUMPDEST PUSH1 0x0 PUSH2 0x2CDA PUSH1 0x41 DUP4 PUSH2 0x34EE JUMP JUMPDEST SWAP2 POP PUSH32 0x436F6E7472616374206265747765656E20746865736520616464726573736573 PUSH1 0x0 DUP4 ADD MSTORE PUSH32 0x207573696E67207468697320746F6B656E20697320616C7265616479206F7065 PUSH1 0x20 DUP4 ADD MSTORE PUSH32 0x6E00000000000000000000000000000000000000000000000000000000000000 PUSH1 0x40 DUP4 ADD MSTORE PUSH1 0x60 DUP3 ADD SWAP1 POP SWAP2 SWAP1 POP JUMP JUMPDEST PUSH1 0x0 PUSH2 0x2D66 PUSH1 0x1F DUP4 PUSH2 0x34EE JUMP JUMPDEST SWAP2 POP PUSH32 0x546F6B656E7320636F756C64206E6F74206265207472616E7366657272656400 PUSH1 0x0 DUP4 ADD MSTORE PUSH1 0x20 DUP3 ADD SWAP1 POP SWAP2 SWAP1 POP JUMP JUMPDEST PUSH1 0x0 PUSH2 0x2DA6 PUSH1 0x2C DUP4 PUSH2 0x34EE JUMP JUMPDEST SWAP2 POP PUSH32 0x546F6B656E7320636F756C64206E6F74206265207472616E7366657272656420 PUSH1 0x0 DUP4 ADD MSTORE PUSH32 0x746F20726563697069656E740000000000000000000000000000000000000000 PUSH1 0x20 DUP4 ADD MSTORE PUSH1 0x40 DUP3 ADD SWAP1 POP SWAP2 SWAP1 POP JUMP JUMPDEST PUSH1 0x0 PUSH2 0x2E0C PUSH1 0x2E DUP4 PUSH2 0x34EE JUMP JUMPDEST SWAP2 POP PUSH32 0x457468657220616E6420455243323020746F6B656E732063616E6E6F74206265 PUSH1 0x0 DUP4 ADD MSTORE PUSH32 0x207573656420746F676574686572000000000000000000000000000000000000 PUSH1 0x20 DUP4 ADD MSTORE PUSH1 0x40 DUP3 ADD SWAP1 POP SWAP2 SWAP1 POP JUMP JUMPDEST PUSH1 0x0 PUSH2 0x2E72 PUSH1 0x16 DUP4 PUSH2 0x34EE JUMP JUMPDEST SWAP2 POP PUSH32 0x4368616E6E656C20646F6573206E6F7420657869737400000000000000000000 PUSH1 0x0 DUP4 ADD MSTORE PUSH1 0x20 DUP3 ADD SWAP1 POP SWAP2 SWAP1 POP JUMP JUMPDEST PUSH1 0x0 PUSH2 0x2EB2 PUSH1 0x24 DUP4 PUSH2 0x34EE JUMP JUMPDEST SWAP2 POP PUSH32 0x4F6E6C7920726563697069656E742063616E20636C6F73652074686520636861 PUSH1 0x0 DUP4 ADD MSTORE PUSH32 0x6E6E656C00000000000000000000000000000000000000000000000000000000 PUSH1 0x20 DUP4 ADD MSTORE PUSH1 0x40 DUP3 ADD SWAP1 POP SWAP2 SWAP1 POP JUMP JUMPDEST PUSH1 0x0 PUSH2 0x2F18 PUSH1 0x2F DUP4 PUSH2 0x34EE JUMP JUMPDEST SWAP2 POP PUSH32 0x53656E64657220616E6420726563697069656E742063616E6E6F742062652074 PUSH1 0x0 DUP4 ADD MSTORE PUSH32 0x68652073616D6520616464726573730000000000000000000000000000000000 PUSH1 0x20 DUP4 ADD MSTORE PUSH1 0x40 DUP3 ADD SWAP1 POP SWAP2 SWAP1 POP JUMP JUMPDEST PUSH1 0x0 PUSH2 0x2F7E PUSH1 0x15 DUP4 PUSH2 0x34EE JUMP JUMPDEST SWAP2 POP PUSH32 0x4E6F7420612076616C6964207369676E61747572650000000000000000000000 PUSH1 0x0 DUP4 ADD MSTORE PUSH1 0x20 DUP3 ADD SWAP1 POP SWAP2 SWAP1 POP JUMP JUMPDEST PUSH1 0x0 PUSH2 0x2FBE PUSH1 0x16 DUP4 PUSH2 0x34EE JUMP JUMPDEST SWAP2 POP PUSH32 0x4574686572206D75737420626520737570706C69656400000000000000000000 PUSH1 0x0 DUP4 ADD MSTORE PUSH1 0x20 DUP3 ADD SWAP1 POP SWAP2 SWAP1 POP JUMP JUMPDEST PUSH1 0x0 PUSH2 0x2FFE PUSH1 0x34 DUP4 PUSH2 0x34EE JUMP JUMPDEST SWAP2 POP PUSH32 0x5369676E656420616D6F756E7420697320686967686572207468616E20706179 PUSH1 0x0 DUP4 ADD MSTORE PUSH32 0x6D656E74206368616E6E656C2062616C616E6365000000000000000000000000 PUSH1 0x20 DUP4 ADD MSTORE PUSH1 0x40 DUP3 ADD SWAP1 POP SWAP2 SWAP1 POP JUMP JUMPDEST PUSH1 0xC0 DUP3 ADD PUSH1 0x0 DUP3 ADD MLOAD PUSH2 0x306D PUSH1 0x0 DUP6 ADD DUP3 PUSH2 0x2B5F JUMP JUMPDEST POP PUSH1 0x20 DUP3 ADD MLOAD PUSH2 0x3080 PUSH1 0x20 DUP6 ADD DUP3 PUSH2 0x2B5F JUMP JUMPDEST POP PUSH1 0x40 DUP3 ADD MLOAD PUSH2 0x3093 PUSH1 0x40 DUP6 ADD DUP3 PUSH2 0x2B94 JUMP JUMPDEST POP PUSH1 0x60 DUP3 ADD MLOAD PUSH2 0x30A6 PUSH1 0x60 DUP6 ADD DUP3 PUSH2 0x30D2 JUMP JUMPDEST POP PUSH1 0x80 DUP3 ADD MLOAD PUSH2 0x30B9 PUSH1 0x80 DUP6 ADD DUP3 PUSH2 0x30D2 JUMP JUMPDEST POP PUSH1 0xA0 DUP3 ADD MLOAD PUSH2 0x30CC PUSH1 0xA0 DUP6 ADD DUP3 PUSH2 0x2BB2 JUMP JUMPDEST POP POP POP POP JUMP JUMPDEST PUSH2 0x30DB DUP2 PUSH2 0x3564 JUMP JUMPDEST DUP3 MSTORE POP POP JUMP JUMPDEST PUSH2 0x30EA DUP2 PUSH2 0x3564 JUMP JUMPDEST DUP3 MSTORE POP POP JUMP JUMPDEST PUSH2 0x3101 PUSH2 0x30FC DUP3 PUSH2 0x3564 JUMP JUMPDEST PUSH2 0x3624 JUMP JUMPDEST DUP3 MSTORE POP POP JUMP JUMPDEST PUSH2 0x3110 DUP2 PUSH2 0x356E JUMP JUMPDEST DUP3 MSTORE POP POP JUMP JUMPDEST PUSH1 0x0 PUSH2 0x3122 DUP3 DUP7 PUSH2 0x2B7D JUMP JUMPDEST PUSH1 0x14 DUP3 ADD SWAP2 POP PUSH2 0x3132 DUP3 DUP6 PUSH2 0x2B7D JUMP JUMPDEST PUSH1 0x14 DUP3 ADD SWAP2 POP PUSH2 0x3142 DUP3 DUP5 PUSH2 0x30F0 JUMP JUMPDEST PUSH1 0x20 DUP3 ADD SWAP2 POP DUP2 SWAP1 POP SWAP5 SWAP4 POP POP POP POP JUMP JUMPDEST PUSH1 0x0 PUSH2 0x315F DUP3 DUP7 PUSH2 0x2BF6 JUMP JUMPDEST PUSH1 0x14 DUP3 ADD SWAP2 POP PUSH2 0x316F DUP3 DUP6 PUSH2 0x2BDF JUMP JUMPDEST PUSH1 0x20 DUP3 ADD SWAP2 POP PUSH2 0x317F DUP3 DUP5 PUSH2 0x30F0 JUMP JUMPDEST PUSH1 0x20 DUP3 ADD SWAP2 POP DUP2 SWAP1 POP SWAP5 SWAP4 POP POP POP POP JUMP JUMPDEST PUSH1 0x0 PUSH2 0x319B DUP3 PUSH2 0x2C0D JUMP JUMPDEST SWAP2 POP PUSH2 0x31A7 DUP3 DUP5 PUSH2 0x2BDF JUMP JUMPDEST PUSH1 0x20 DUP3 ADD SWAP2 POP DUP2 SWAP1 POP SWAP3 SWAP2 POP POP JUMP JUMPDEST PUSH1 0x0 PUSH1 0xC0 DUP3 ADD SWAP1 POP PUSH2 0x31CB PUSH1 0x0 DUP4 ADD DUP10 PUSH2 0x2B6E JUMP JUMPDEST PUSH2 0x31D8 PUSH1 0x20 DUP4 ADD DUP9 PUSH2 0x2B6E JUMP JUMPDEST PUSH2 0x31E5 PUSH1 0x40 DUP4 ADD DUP8 PUSH2 0x2BA3 JUMP JUMPDEST PUSH2 0x31F2 PUSH1 0x60 DUP4 ADD DUP7 PUSH2 0x30E1 JUMP JUMPDEST PUSH2 0x31FF PUSH1 0x80 DUP4 ADD DUP6 PUSH2 0x30E1 JUMP JUMPDEST PUSH2 0x320C PUSH1 0xA0 DUP4 ADD DUP5 PUSH2 0x2BC1 JUMP JUMPDEST SWAP8 SWAP7 POP POP POP POP POP POP POP JUMP JUMPDEST PUSH1 0x0 PUSH1 0x60 DUP3 ADD SWAP1 POP PUSH2 0x322C PUSH1 0x0 DUP4 ADD DUP7 PUSH2 0x2B50 JUMP JUMPDEST PUSH2 0x3239 PUSH1 0x20 DUP4 ADD DUP6 PUSH2 0x2BA3 JUMP JUMPDEST PUSH2 0x3246 PUSH1 0x40 DUP4 ADD DUP5 PUSH2 0x30E1 JUMP JUMPDEST SWAP5 SWAP4 POP POP POP POP JUMP JUMPDEST PUSH1 0x0 PUSH1 0x40 DUP3 ADD SWAP1 POP PUSH2 0x3263 PUSH1 0x0 DUP4 ADD DUP6 PUSH2 0x2B50 JUMP JUMPDEST PUSH2 0x3270 PUSH1 0x20 DUP4 ADD DUP5 PUSH2 0x30E1 JUMP JUMPDEST SWAP4 SWAP3 POP POP POP JUMP JUMPDEST PUSH1 0x0 PUSH1 0x20 DUP3 ADD SWAP1 POP PUSH2 0x328C PUSH1 0x0 DUP4 ADD DUP5 PUSH2 0x2BC1 JUMP JUMPDEST SWAP3 SWAP2 POP POP JUMP JUMPDEST PUSH1 0x0 PUSH1 0x20 DUP3 ADD SWAP1 POP PUSH2 0x32A7 PUSH1 0x0 DUP4 ADD DUP5 PUSH2 0x2BD0 JUMP JUMPDEST SWAP3 SWAP2 POP POP JUMP JUMPDEST PUSH1 0x0 PUSH1 0x80 DUP3 ADD SWAP1 POP PUSH2 0x32C2 PUSH1 0x0 DUP4 ADD DUP8 PUSH2 0x2BD0 JUMP JUMPDEST PUSH2 0x32CF PUSH1 0x20 DUP4 ADD DUP7 PUSH2 0x3107 JUMP JUMPDEST PUSH2 0x32DC PUSH1 0x40 DUP4 ADD DUP6 PUSH2 0x2BD0 JUMP JUMPDEST PUSH2 0x32E9 PUSH1 0x60 DUP4 ADD DUP5 PUSH2 0x2BD0 JUMP JUMPDEST SWAP6 SWAP5 POP POP POP POP POP JUMP JUMPDEST PUSH1 0x0 PUSH1 0x20 DUP3 ADD SWAP1 POP DUP2 DUP2 SUB PUSH1 0x0 DUP4 ADD MSTORE PUSH2 0x330B DUP2 PUSH2 0x2C4D JUMP JUMPDEST SWAP1 POP SWAP2 SWAP1 POP JUMP JUMPDEST PUSH1 0x0 PUSH1 0x20 DUP3 ADD SWAP1 POP DUP2 DUP2 SUB PUSH1 0x0 DUP4 ADD MSTORE PUSH2 0x332B DUP2 PUSH2 0x2C8D JUMP JUMPDEST SWAP1 POP SWAP2 SWAP1 POP JUMP JUMPDEST PUSH1 0x0 PUSH1 0x20 DUP3 ADD SWAP1 POP DUP2 DUP2 SUB PUSH1 0x0 DUP4 ADD MSTORE PUSH2 0x334B DUP2 PUSH2 0x2CCD JUMP JUMPDEST SWAP1 POP SWAP2 SWAP1 POP JUMP JUMPDEST PUSH1 0x0 PUSH1 0x20 DUP3 ADD SWAP1 POP DUP2 DUP2 SUB PUSH1 0x0 DUP4 ADD MSTORE PUSH2 0x336B DUP2 PUSH2 0x2D59 JUMP JUMPDEST SWAP1 POP SWAP2 SWAP1 POP JUMP JUMPDEST PUSH1 0x0 PUSH1 0x20 DUP3 ADD SWAP1 POP DUP2 DUP2 SUB PUSH1 0x0 DUP4 ADD MSTORE PUSH2 0x338B DUP2 PUSH2 0x2D99 JUMP JUMPDEST SWAP1 POP SWAP2 SWAP1 POP JUMP JUMPDEST PUSH1 0x0 PUSH1 0x20 DUP3 ADD SWAP1 POP DUP2 DUP2 SUB PUSH1 0x0 DUP4 ADD MSTORE PUSH2 0x33AB DUP2 PUSH2 0x2DFF JUMP JUMPDEST SWAP1 POP SWAP2 SWAP1 POP JUMP JUMPDEST PUSH1 0x0 PUSH1 0x20 DUP3 ADD SWAP1 POP DUP2 DUP2 SUB PUSH1 0x0 DUP4 ADD MSTORE PUSH2 0x33CB DUP2 PUSH2 0x2E65 JUMP JUMPDEST SWAP1 POP SWAP2 SWAP1 POP JUMP JUMPDEST PUSH1 0x0 PUSH1 0x20 DUP3 ADD SWAP1 POP DUP2 DUP2 SUB PUSH1 0x0 DUP4 ADD MSTORE PUSH2 0x33EB DUP2 PUSH2 0x2EA5 JUMP JUMPDEST SWAP1 POP SWAP2 SWAP1 POP JUMP JUMPDEST PUSH1 0x0 PUSH1 0x20 DUP3 ADD SWAP1 POP DUP2 DUP2 SUB PUSH1 0x0 DUP4 ADD MSTORE PUSH2 0x340B DUP2 PUSH2 0x2F0B JUMP JUMPDEST SWAP1 POP SWAP2 SWAP1 POP JUMP JUMPDEST PUSH1 0x0 PUSH1 0x20 DUP3 ADD SWAP1 POP DUP2 DUP2 SUB PUSH1 0x0 DUP4 ADD MSTORE PUSH2 0x342B DUP2 PUSH2 0x2F71 JUMP JUMPDEST SWAP1 POP SWAP2 SWAP1 POP JUMP JUMPDEST PUSH1 0x0 PUSH1 0x20 DUP3 ADD SWAP1 POP DUP2 DUP2 SUB PUSH1 0x0 DUP4 ADD MSTORE PUSH2 0x344B DUP2 PUSH2 0x2FB1 JUMP JUMPDEST SWAP1 POP SWAP2 SWAP1 POP JUMP JUMPDEST PUSH1 0x0 PUSH1 0x20 DUP3 ADD SWAP1 POP DUP2 DUP2 SUB PUSH1 0x0 DUP4 ADD MSTORE PUSH2 0x346B DUP2 PUSH2 0x2FF1 JUMP JUMPDEST SWAP1 POP SWAP2 SWAP1 POP JUMP JUMPDEST PUSH1 0x0 PUSH1 0xC0 DUP3 ADD SWAP1 POP PUSH2 0x3487 PUSH1 0x0 DUP4 ADD DUP5 PUSH2 0x3057 JUMP JUMPDEST SWAP3 SWAP2 POP POP JUMP JUMPDEST PUSH1 0x0 PUSH1 0x40 MLOAD SWAP1 POP DUP2 DUP2 ADD DUP2 DUP2 LT PUSH8 0xFFFFFFFFFFFFFFFF DUP3 GT OR ISZERO PUSH2 0x34B4 JUMPI PUSH2 0x34B3 PUSH2 0x362E JUMP JUMPDEST JUMPDEST DUP1 PUSH1 0x40 MSTORE POP SWAP2 SWAP1 POP JUMP JUMPDEST PUSH1 0x0 PUSH8 0xFFFFFFFFFFFFFFFF DUP3 GT ISZERO PUSH2 0x34D9 JUMPI PUSH2 0x34D8 PUSH2 0x362E JUMP JUMPDEST JUMPDEST PUSH1 0x1F NOT PUSH1 0x1F DUP4 ADD AND SWAP1 POP PUSH1 0x20 DUP2 ADD SWAP1 POP SWAP2 SWAP1 POP JUMP JUMPDEST PUSH1 0x0 DUP3 DUP3 MSTORE PUSH1 0x20 DUP3 ADD SWAP1 POP SWAP3 SWAP2 POP POP JUMP JUMPDEST PUSH1 0x0 DUP2 SWAP1 POP SWAP3 SWAP2 POP POP JUMP JUMPDEST PUSH1 0x0 PUSH2 0x3515 DUP3 PUSH2 0x3544 JUMP JUMPDEST SWAP1 POP SWAP2 SWAP1 POP JUMP JUMPDEST PUSH1 0x0 PUSH2 0x3527 DUP3 PUSH2 0x3544 JUMP JUMPDEST SWAP1 POP SWAP2 SWAP1 POP JUMP JUMPDEST PUSH1 0x0 DUP2 ISZERO ISZERO SWAP1 POP SWAP2 SWAP1 POP JUMP JUMPDEST PUSH1 0x0 DUP2 SWAP1 POP SWAP2 SWAP1 POP JUMP JUMPDEST PUSH1 0x0 PUSH20 0xFFFFFFFFFFFFFFFFFFFFFFFFFFFFFFFFFFFFFFFF DUP3 AND SWAP1 POP SWAP2 SWAP1 POP JUMP JUMPDEST PUSH1 0x0 DUP2 SWAP1 POP SWAP2 SWAP1 POP JUMP JUMPDEST PUSH1 0x0 PUSH1 0xFF DUP3 AND SWAP1 POP SWAP2 SWAP1 POP JUMP JUMPDEST PUSH1 0x0 PUSH2 0x3586 DUP3 PUSH2 0x35B1 JUMP JUMPDEST SWAP1 POP SWAP2 SWAP1 POP JUMP JUMPDEST PUSH1 0x0 PUSH2 0x3598 DUP3 PUSH2 0x359F JUMP JUMPDEST SWAP1 POP SWAP2 SWAP1 POP JUMP JUMPDEST PUSH1 0x0 PUSH2 0x35AA DUP3 PUSH2 0x3544 JUMP JUMPDEST SWAP1 POP SWAP2 SWAP1 POP JUMP JUMPDEST PUSH1 0x0 PUSH2 0x35BC DUP3 PUSH2 0x35C3 JUMP JUMPDEST SWAP1 POP SWAP2 SWAP1 POP JUMP JUMPDEST PUSH1 0x0 PUSH2 0x35CE DUP3 PUSH2 0x3544 JUMP JUMPDEST SWAP1 POP SWAP2 SWAP1 POP JUMP JUMPDEST DUP3 DUP2 DUP4 CALLDATACOPY PUSH1 0x0 DUP4 DUP4 ADD MSTORE POP POP POP JUMP JUMPDEST PUSH1 0x0 PUSH2 0x35EF DUP3 PUSH2 0x3612 JUMP JUMPDEST SWAP1 POP SWAP2 SWAP1 POP JUMP JUMPDEST PUSH1 0x0 PUSH2 0x3601 DUP3 PUSH2 0x3612 JUMP JUMPDEST SWAP1 POP SWAP2 SWAP1 POP JUMP JUMPDEST PUSH1 0x0 DUP2 SWAP1 POP SWAP2 SWAP1 POP JUMP JUMPDEST PUSH1 0x0 PUSH2 0x361D DUP3 PUSH2 0x3630 JUMP JUMPDEST SWAP1 POP SWAP2 SWAP1 POP JUMP JUMPDEST PUSH1 0x0 DUP2 SWAP1 POP SWAP2 SWAP1 POP JUMP JUMPDEST INVALID JUMPDEST PUSH1 0x0 DUP2 PUSH1 0x60 SHL SWAP1 POP SWAP2 SWAP1 POP JUMP JUMPDEST PUSH2 0x3646 DUP2 PUSH2 0x350A JUMP JUMPDEST DUP2 EQ PUSH2 0x365A JUMPI PUSH1 0x0 DUP1 PUSH2 0x3657 PUSH2 0x233A JUMP JUMPDEST POP POP JUMPDEST POP JUMP JUMPDEST PUSH2 0x3666 DUP2 PUSH2 0x351C JUMP JUMPDEST DUP2 EQ PUSH2 0x367A JUMPI PUSH1 0x0 DUP1 PUSH2 0x3677 PUSH2 0x233A JUMP JUMPDEST POP POP JUMPDEST POP JUMP JUMPDEST PUSH2 0x3686 DUP2 PUSH2 0x352E JUMP JUMPDEST DUP2 EQ PUSH2 0x369A JUMPI PUSH1 0x0 DUP1 PUSH2 0x3697 PUSH2 0x233A JUMP JUMPDEST POP POP JUMPDEST POP JUMP JUMPDEST PUSH2 0x36A6 DUP2 PUSH2 0x353A JUMP JUMPDEST DUP2 EQ PUSH2 0x36BA JUMPI PUSH1 0x0 DUP1 PUSH2 0x36B7 PUSH2 0x233A JUMP JUMPDEST POP POP JUMPDEST POP JUMP JUMPDEST PUSH2 0x36C6 DUP2 PUSH2 0x3564 JUMP JUMPDEST DUP2 EQ PUSH2 0x36DA JUMPI PUSH1 0x0 DUP1 PUSH2 0x36D7 PUSH2 0x233A JUMP JUMPDEST POP POP JUMPDEST POP JUMP "
        },
        "methodIdentifiers": {
          "claimTimeout(address,address)": "1b1bd202",
          "close(address,address,address,uint256,bytes)": "3740da16",
          "extend(address,address,uint256)": "67f88f17",
          "getIdToChannel(bytes32)": "1d002a07",
          "getPaymentChannel(address,address,address)": "eb671c0a",
          "getUsersToId(address,address,address)": "5a79c740",
          "idToChannel(bytes32)": "51eff441",
          "isValidSignature(address,address,address,uint256,bytes)": "b4410307",
          "open(address,uint256,address,uint256)": "c60381dd",
          "usersToId(address,address,address)": "5957c927"
        }
      }
    }
  }
}