{
  "_format": "hh-sol-artifact-1",
  "contractName": "UnidirectionalPaymentChannelHub",
  "sourceName": "contracts/UnidirectionalPaymentChannelHub.sol",
  "abi": [
    {
      "inputs": [],
      "stateMutability": "nonpayable",
      "type": "constructor"
    },
    {
      "inputs": [
        {
          "internalType": "address",
          "name": "recipient",
          "type": "address"
        },
        {
          "internalType": "address",
          "name": "tokenAddress",
          "type": "address"
        }
      ],
      "name": "claimTimeout",
      "outputs": [],
      "stateMutability": "nonpayable",
      "type": "function"
    },
    {
      "inputs": [
        {
          "internalType": "address",
          "name": "sender",
          "type": "address"
        },
        {
          "internalType": "address",
          "name": "recipient",
          "type": "address"
        },
        {
          "internalType": "address",
          "name": "tokenAddress",
          "type": "address"
        },
        {
          "internalType": "uint256",
          "name": "amount",
          "type": "uint256"
        },
        {
          "internalType": "bytes",
          "name": "signature",
          "type": "bytes"
        }
      ],
      "name": "close",
      "outputs": [],
      "stateMutability": "nonpayable",
      "type": "function"
    },
    {
      "inputs": [
        {
          "internalType": "address",
          "name": "recipient",
          "type": "address"
        },
        {
          "internalType": "address",
          "name": "tokenAddress",
          "type": "address"
        },
        {
          "internalType": "uint256",
          "name": "newExpiration",
          "type": "uint256"
        }
      ],
      "name": "extend",
      "outputs": [],
      "stateMutability": "nonpayable",
      "type": "function"
    },
    {
      "inputs": [
        {
          "internalType": "bytes32",
          "name": "id",
          "type": "bytes32"
        }
      ],
      "name": "getIdToChannel",
      "outputs": [
        {
          "components": [
            {
              "internalType": "address payable",
              "name": "sender",
              "type": "address"
            },
            {
              "internalType": "address payable",
              "name": "recipient",
              "type": "address"
            },
            {
              "internalType": "address",
              "name": "tokenAddress",
              "type": "address"
            },
            {
              "internalType": "uint256",
              "name": "expiration",
              "type": "uint256"
            },
            {
              "internalType": "uint256",
              "name": "amount",
              "type": "uint256"
            },
            {
              "internalType": "bool",
              "name": "open",
              "type": "bool"
            }
          ],
          "internalType": "struct UnidirectionalPaymentChannelHub.PaymentChannel",
          "name": "",
          "type": "tuple"
        }
      ],
      "stateMutability": "view",
      "type": "function"
    },
    {
      "inputs": [
        {
          "internalType": "address",
          "name": "sender",
          "type": "address"
        },
        {
          "internalType": "address",
          "name": "recipient",
          "type": "address"
        },
        {
          "internalType": "address",
          "name": "tokenAddress",
          "type": "address"
        }
      ],
      "name": "getPaymentChannel",
      "outputs": [
        {
          "components": [
            {
              "internalType": "address payable",
              "name": "sender",
              "type": "address"
            },
            {
              "internalType": "address payable",
              "name": "recipient",
              "type": "address"
            },
            {
              "internalType": "address",
              "name": "tokenAddress",
              "type": "address"
            },
            {
              "internalType": "uint256",
              "name": "expiration",
              "type": "uint256"
            },
            {
              "internalType": "uint256",
              "name": "amount",
              "type": "uint256"
            },
            {
              "internalType": "bool",
              "name": "open",
              "type": "bool"
            }
          ],
          "internalType": "struct UnidirectionalPaymentChannelHub.PaymentChannel",
          "name": "",
          "type": "tuple"
        }
      ],
      "stateMutability": "view",
      "type": "function"
    },
    {
      "inputs": [
        {
          "internalType": "address",
          "name": "sender",
          "type": "address"
        },
        {
          "internalType": "address",
          "name": "recipient",
          "type": "address"
        },
        {
          "internalType": "address",
          "name": "tokenAddress",
          "type": "address"
        }
      ],
      "name": "getUsersToId",
      "outputs": [
        {
          "internalType": "bytes32",
          "name": "",
          "type": "bytes32"
        }
      ],
      "stateMutability": "view",
      "type": "function"
    },
    {
      "inputs": [
        {
          "internalType": "bytes32",
          "name": "",
          "type": "bytes32"
        }
      ],
      "name": "idToChannel",
      "outputs": [
        {
          "internalType": "address payable",
          "name": "sender",
          "type": "address"
        },
        {
          "internalType": "address payable",
          "name": "recipient",
          "type": "address"
        },
        {
          "internalType": "address",
          "name": "tokenAddress",
          "type": "address"
        },
        {
          "internalType": "uint256",
          "name": "expiration",
          "type": "uint256"
        },
        {
          "internalType": "uint256",
          "name": "amount",
          "type": "uint256"
        },
        {
          "internalType": "bool",
          "name": "open",
          "type": "bool"
        }
      ],
      "stateMutability": "view",
      "type": "function"
    },
    {
      "inputs": [
        {
          "internalType": "address",
          "name": "sender",
          "type": "address"
        },
        {
          "internalType": "address",
          "name": "recipient",
          "type": "address"
        },
        {
          "internalType": "address",
          "name": "tokenAddress",
          "type": "address"
        },
        {
          "internalType": "uint256",
          "name": "amount",
          "type": "uint256"
        },
        {
          "internalType": "bytes",
          "name": "signature",
          "type": "bytes"
        }
      ],
      "name": "isValidSignature",
      "outputs": [
        {
          "internalType": "bool",
          "name": "",
          "type": "bool"
        }
      ],
      "stateMutability": "view",
      "type": "function"
    },
    {
      "inputs": [
        {
          "internalType": "address payable",
          "name": "recipient",
          "type": "address"
        },
        {
          "internalType": "uint256",
          "name": "duration",
          "type": "uint256"
        },
        {
          "internalType": "address",
          "name": "tokenAddress",
          "type": "address"
        },
        {
          "internalType": "uint256",
          "name": "tokenAmount",
          "type": "uint256"
        }
      ],
      "name": "open",
      "outputs": [],
      "stateMutability": "payable",
      "type": "function"
    },
    {
      "inputs": [
        {
          "internalType": "address",
          "name": "",
          "type": "address"
        },
        {
          "internalType": "address",
          "name": "",
          "type": "address"
        },
        {
          "internalType": "address",
          "name": "",
          "type": "address"
        }
      ],
      "name": "usersToId",
      "outputs": [
        {
          "internalType": "bytes32",
          "name": "",
          "type": "bytes32"
        }
      ],
      "stateMutability": "view",
      "type": "function"
    }
  ],
  "bytecode": "0x60806040523480156200001c576000806200001962000023565b50505b5062000093565b632a2a7adb598160e01b8152600481016020815285602082015260005b868110156200006057808601518160408401015260208101905062000040565b506020828760640184336000905af158600e01573d6000803e3d6000fd5b3d6001141558600a015760016000f35b505050565b6136dd80620000a36000396000f3fe6080604052600436106100915760003560e01c80635a79c740116100595780635a79c740146101da57806367f88f1714610220578063b441030714610252578063c60381dd14610298578063eb671c0a146102b457610091565b80631b1bd2021461009f5780631d002a07146100d15780633740da161461011757806351eff441146101495780635957c92714610194575b60008061009c61233a565b50505b3480156100b4576000806100b161233a565b50505b506100cf60048036038101906100ca9190612956565b6102fa565b005b3480156100e6576000806100e361233a565b50505b5061010160048036038101906100fc9190612b1e565b61073e565b60405161010e9190613472565b60405180910390f35b34801561012c5760008061012961233a565b50505b50610147600480360381019061014291906129f3565b6108c6565b005b34801561015e5760008061015b61233a565b50505b5061017960048036038101906101749190612b1e565b610faa565b60405161018b969594939291906131b6565b60405180910390f35b3480156101a9576000806101a661233a565b50505b506101c460048036038101906101bf919061299b565b61107d565b6040516101d19190613292565b60405180910390f35b3480156101ef576000806101ec61233a565b50505b5061020a6004803603810190610205919061299b565b6110b6565b6040516102179190613292565b60405180910390f35b3480156102355760008061023261233a565b50505b50610250600480360381019061024b9190612a94565b611181565b005b3480156102675760008061026461233a565b50505b50610282600480360381019061027d91906129f3565b61136c565b60405161028f9190613277565b60405180910390f35b6102b260048036038101906102ad91906128ea565b6116de565b005b3480156102c9576000806102c661233a565b50505b506102e460048036038101906102df919061299b565b611ed2565b6040516102f19190613472565b60405180910390f35b61030d5a6103066123a8565b838361217a565b610355576040517f08c379a0000000000000000000000000000000000000000000000000000000008152600401610343906133b2565b6040518091039061035261233a565b50505b60008060005a6103636123a8565b73ffffffffffffffffffffffffffffffffffffffff1673ffffffffffffffffffffffffffffffffffffffff16815260200190815260200160002060008473ffffffffffffffffffffffffffffffffffffffff1673ffffffffffffffffffffffffffffffffffffffff16815260200190815260200160002060008373ffffffffffffffffffffffffffffffffffffffff1673ffffffffffffffffffffffffffffffffffffffff16815260200190815260200160002061041f612405565b9050600060016000838152602001908152602001600020905080600301610444612405565b5a61044d612468565b10156104615760008061045e61233a565b50505b80600001600090610470612405565b906101000a900473ffffffffffffffffffffffffffffffffffffffff1673ffffffffffffffffffffffffffffffffffffffff165a6104ac6123a8565b73ffffffffffffffffffffffffffffffffffffffff16146104d5576000806104d261233a565b50505b60011515816005016000906104e8612405565b906101000a900460ff161515146105075760008061050461233a565b50505b60008160050160006101000a8161051c612405565b8160ff021916908315150217906105316124c5565b505050600073ffffffffffffffffffffffffffffffffffffffff168373ffffffffffffffffffffffffffffffffffffffff16146106a45760008390508073ffffffffffffffffffffffffffffffffffffffff1663a9059cbb83600001600090610598612405565b906101000a900473ffffffffffffffffffffffffffffffffffffffff16846004016105c1612405565b6040518363ffffffff1660e01b81526004016105de92919061324e565b602060405180830381600087806105f361252a565b1580156106085760008061060561233a565b50505b505a61061261258d565b505050505050158015610632573d6000803e3d600061062f61233a565b50505b505050506040513d601f19601f820116820180604052508101906106569190612aec565b61069e576040517f08c379a000000000000000000000000000000000000000000000000000000000815260040161068c90613352565b6040518091039061069b61233a565b50505b50610738565b806000016000906106b3612405565b906101000a900473ffffffffffffffffffffffffffffffffffffffff1673ffffffffffffffffffffffffffffffffffffffff166108fc826004016106f5612405565b908115029060405160006040518083038185888861071161258d565b5050505050509350505050158015610736573d6000803e3d600061073361233a565b50505b505b50505050565b61074661268d565b600160008381526020019081526020016000206040518060c001604052908160008201600090610774612405565b906101000a900473ffffffffffffffffffffffffffffffffffffffff1673ffffffffffffffffffffffffffffffffffffffff1673ffffffffffffffffffffffffffffffffffffffff168152602001600182016000906107d1612405565b906101000a900473ffffffffffffffffffffffffffffffffffffffff1673ffffffffffffffffffffffffffffffffffffffff1673ffffffffffffffffffffffffffffffffffffffff1681526020016002820160009061082e612405565b906101000a900473ffffffffffffffffffffffffffffffffffffffff1673ffffffffffffffffffffffffffffffffffffffff1673ffffffffffffffffffffffffffffffffffffffff16815260200160038201610888612405565b815260200160048201610899612405565b8152602001600582016000906108ad612405565b906101000a900460ff1615151515815250509050919050565b6108d185858561217a565b610919576040517f08c379a0000000000000000000000000000000000000000000000000000000008152600401610907906133b2565b6040518091039061091661233a565b50505b60008060008773ffffffffffffffffffffffffffffffffffffffff1673ffffffffffffffffffffffffffffffffffffffff16815260200190815260200160002060008673ffffffffffffffffffffffffffffffffffffffff1673ffffffffffffffffffffffffffffffffffffffff16815260200190815260200160002060008573ffffffffffffffffffffffffffffffffffffffff1673ffffffffffffffffffffffffffffffffffffffff1681526020019081526020016000206109db612405565b9050600060016000838152602001908152602001600020905060018160050160006101000a81610a09612405565b8160ff02191690831515021790610a1e6124c5565b5050610a68576040517f08c379a0000000000000000000000000000000000000000000000000000000008152600401610a56906132f2565b60405180910390610a6561233a565b50505b80600101600090610a77612405565b906101000a900473ffffffffffffffffffffffffffffffffffffffff1673ffffffffffffffffffffffffffffffffffffffff165a610ab36123a8565b73ffffffffffffffffffffffffffffffffffffffff1614610b12576040517f08c379a0000000000000000000000000000000000000000000000000000000008152600401610b00906133d2565b60405180910390610b0f61233a565b50505b80600401610b1e612405565b841115610b69576040517f08c379a0000000000000000000000000000000000000000000000000000000008152600401610b5790613452565b60405180910390610b6661233a565b50505b610b76878787878761136c565b610bbe576040517f08c379a0000000000000000000000000000000000000000000000000000000008152600401610bac90613412565b60405180910390610bbb61233a565b50505b60008160050160006101000a81610bd3612405565b8160ff02191690831515021790610be86124c5565b505050600073ffffffffffffffffffffffffffffffffffffffff168573ffffffffffffffffffffffffffffffffffffffff1614610e835760008590508073ffffffffffffffffffffffffffffffffffffffff1663a9059cbb83600101600090610c4f612405565b906101000a900473ffffffffffffffffffffffffffffffffffffffff16876040518363ffffffff1660e01b8152600401610c8a92919061324e565b60206040518083038160008780610c9f61252a565b158015610cb457600080610cb161233a565b50505b505a610cbe61258d565b505050505050158015610cde573d6000803e3d6000610cdb61233a565b50505b505050506040513d601f19601f82011682018060405250810190610d029190612aec565b610d4a576040517f08c379a0000000000000000000000000000000000000000000000000000000008152600401610d3890613372565b60405180910390610d4761233a565b50505b8073ffffffffffffffffffffffffffffffffffffffff1663a9059cbb83600001600090610d75612405565b906101000a900473ffffffffffffffffffffffffffffffffffffffff168785600401610d9f612405565b036040518363ffffffff1660e01b8152600401610dbd92919061324e565b60206040518083038160008780610dd261252a565b158015610de757600080610de461233a565b50505b505a610df161258d565b505050505050158015610e11573d6000803e3d6000610e0e61233a565b50505b505050506040513d601f19601f82011682018060405250810190610e359190612aec565b610e7d576040517f08c379a0000000000000000000000000000000000000000000000000000000008152600401610e6b90613372565b60405180910390610e7a61233a565b50505b50610fa1565b80600101600090610e92612405565b906101000a900473ffffffffffffffffffffffffffffffffffffffff1673ffffffffffffffffffffffffffffffffffffffff166108fc859081150290604051600060405180830381858888610ee561258d565b5050505050509350505050158015610f0a573d6000803e3d6000610f0761233a565b50505b5080600001600090610f1a612405565b906101000a900473ffffffffffffffffffffffffffffffffffffffff1673ffffffffffffffffffffffffffffffffffffffff166108fc8583600401610f5d612405565b039081150290604051600060405180830381858888610f7a61258d565b5050505050509350505050158015610f9f573d6000803e3d6000610f9c61233a565b50505b505b50505050505050565b600160205280600052604060002060009150905080600001600090610fcd612405565b906101000a900473ffffffffffffffffffffffffffffffffffffffff169080600101600090610ffa612405565b906101000a900473ffffffffffffffffffffffffffffffffffffffff169080600201600090611027612405565b906101000a900473ffffffffffffffffffffffffffffffffffffffff169080600301611051612405565b908060040161105e612405565b908060050160009061106e612405565b906101000a900460ff16905086565b600060205282600052604060002060205281600052604060002060205280600052604060002060009250925050506110b3612405565b81565b60008060008573ffffffffffffffffffffffffffffffffffffffff1673ffffffffffffffffffffffffffffffffffffffff16815260200190815260200160002060008473ffffffffffffffffffffffffffffffffffffffff1673ffffffffffffffffffffffffffffffffffffffff16815260200190815260200160002060008373ffffffffffffffffffffffffffffffffffffffff1673ffffffffffffffffffffffffffffffffffffffff168152602001908152602001600020611178612405565b90509392505050565b6111945a61118d6123a8565b848461217a565b6111dc576040517f08c379a00000000000000000000000000000000000000000000000000000000081526004016111ca906133b2565b604051809103906111d961233a565b50505b60008060005a6111ea6123a8565b73ffffffffffffffffffffffffffffffffffffffff1673ffffffffffffffffffffffffffffffffffffffff16815260200190815260200160002060008573ffffffffffffffffffffffffffffffffffffffff1673ffffffffffffffffffffffffffffffffffffffff16815260200190815260200160002060008473ffffffffffffffffffffffffffffffffffffffff1673ffffffffffffffffffffffffffffffffffffffff1681526020019081526020016000206112a6612405565b90506000600160008381526020019081526020016000209050806000016000906112ce612405565b906101000a900473ffffffffffffffffffffffffffffffffffffffff1673ffffffffffffffffffffffffffffffffffffffff165a61130a6123a8565b73ffffffffffffffffffffffffffffffffffffffff16146113335760008061133061233a565b50505b8060030161133f612405565b83116113535760008061135061233a565b50505b828160030181906113626124c5565b5050505050505050565b600061137986868661217a565b6113c1576040517f08c379a00000000000000000000000000000000000000000000000000000000081526004016113af906133b2565b604051809103906113be61233a565b50505b60008060008873ffffffffffffffffffffffffffffffffffffffff1673ffffffffffffffffffffffffffffffffffffffff16815260200190815260200160002060008773ffffffffffffffffffffffffffffffffffffffff1673ffffffffffffffffffffffffffffffffffffffff16815260200190815260200160002060008673ffffffffffffffffffffffffffffffffffffffff1673ffffffffffffffffffffffffffffffffffffffff168152602001908152602001600020611483612405565b90506000600160008381526020019081526020016000206040518060c0016040529081600082016000906114b5612405565b906101000a900473ffffffffffffffffffffffffffffffffffffffff1673ffffffffffffffffffffffffffffffffffffffff1673ffffffffffffffffffffffffffffffffffffffff16815260200160018201600090611512612405565b906101000a900473ffffffffffffffffffffffffffffffffffffffff1673ffffffffffffffffffffffffffffffffffffffff1673ffffffffffffffffffffffffffffffffffffffff1681526020016002820160009061156f612405565b906101000a900473ffffffffffffffffffffffffffffffffffffffff1673ffffffffffffffffffffffffffffffffffffffff1673ffffffffffffffffffffffffffffffffffffffff168152602001600382016115c9612405565b8152602001600482016115da612405565b8152602001600582016000906115ee612405565b906101000a900460ff161515151581525050905060006116925a63996d79a5598160e01b8152602081600483336000905af158600e01573d6000803e3d6000fd5b3d6001141558600a015760016000f35b8051925060005b604081101561166057600081830152602081019050611646565b505050848860405160200161167793929190613153565b6040516020818303038152906040528051906020012061224b565b9050816000015173ffffffffffffffffffffffffffffffffffffffff166116b9828761227b565b73ffffffffffffffffffffffffffffffffffffffff1614935050505095945050505050565b8373ffffffffffffffffffffffffffffffffffffffff165a6116fe6123a8565b73ffffffffffffffffffffffffffffffffffffffff16141561175e576040517f08c379a000000000000000000000000000000000000000000000000000000000815260040161174c906133f2565b6040518091039061175b61233a565b50505b600073ffffffffffffffffffffffffffffffffffffffff168473ffffffffffffffffffffffffffffffffffffffff1614156117d7576040517f08c379a00000000000000000000000000000000000000000000000000000000081526004016117c590613312565b604051809103906117d461233a565b50505b6117ea5a6117e36123a8565b858461217a565b156119375760008060005a6117fd6123a8565b73ffffffffffffffffffffffffffffffffffffffff1673ffffffffffffffffffffffffffffffffffffffff16815260200190815260200160002060008673ffffffffffffffffffffffffffffffffffffffff1673ffffffffffffffffffffffffffffffffffffffff16815260200190815260200160002060008473ffffffffffffffffffffffffffffffffffffffff1673ffffffffffffffffffffffffffffffffffffffff1681526020019081526020016000206118b9612405565b905060001515600160008381526020019081526020016000206005016000906118e0612405565b906101000a900460ff16151514611935576040517f08c379a000000000000000000000000000000000000000000000000000000000815260040161192390613332565b6040518091039061193261233a565b50505b505b60008073ffffffffffffffffffffffffffffffffffffffff168373ffffffffffffffffffffffffffffffffffffffff1614611b2657600034146119b8576040517f08c379a00000000000000000000000000000000000000000000000000000000081526004016119a690613392565b604051809103906119b561233a565b50505b81905060008390508073ffffffffffffffffffffffffffffffffffffffff166323b872dd5a6119e56123a8565b5a63996d79a5598160e01b8152602081600483336000905af158600e01573d6000803e3d6000fd5b3d6001141558600a015760016000f35b8051925060005b6040811015611a3e57600081830152602081019050611a24565b505050866040518463ffffffff1660e01b8152600401611a6093929190613217565b60206040518083038160008780611a7561252a565b158015611a8a57600080611a8761233a565b50505b505a611a9461258d565b505050505050158015611ab4573d6000803e3d6000611ab161233a565b50505b505050506040513d601f19601f82011682018060405250810190611ad89190612aec565b611b20576040517f08c379a0000000000000000000000000000000000000000000000000000000008152600401611b0e90613352565b60405180910390611b1d61233a565b50505b50611bc2565b60003411611b72576040517f08c379a0000000000000000000000000000000000000000000000000000000008152600401611b6090613432565b60405180910390611b6f61233a565b50505b60008214611bbe576040517f08c379a0000000000000000000000000000000000000000000000000000000008152600401611bac90613392565b60405180910390611bbb61233a565b50505b3490505b60005a611bcd6123a8565b865a611bd7612468565b604051602001611be993929190613116565b60405160208183030381529060405280519060200120905060006040518060c001604052805a611c176123a8565b73ffffffffffffffffffffffffffffffffffffffff1681526020018873ffffffffffffffffffffffffffffffffffffffff1681526020018673ffffffffffffffffffffffffffffffffffffffff168152602001875a611c74612468565b018152602001848152602001600115158152509050816000805a611c966123a8565b73ffffffffffffffffffffffffffffffffffffffff1673ffffffffffffffffffffffffffffffffffffffff16815260200190815260200160002060008973ffffffffffffffffffffffffffffffffffffffff1673ffffffffffffffffffffffffffffffffffffffff16815260200190815260200160002060008773ffffffffffffffffffffffffffffffffffffffff1673ffffffffffffffffffffffffffffffffffffffff1681526020019081526020016000208190611d546124c5565b505050806001600084815260200190815260200160002060008201518160000160006101000a81611d83612405565b8173ffffffffffffffffffffffffffffffffffffffff021916908373ffffffffffffffffffffffffffffffffffffffff16021790611dbf6124c5565b50505060208201518160010160006101000a81611dda612405565b8173ffffffffffffffffffffffffffffffffffffffff021916908373ffffffffffffffffffffffffffffffffffffffff16021790611e166124c5565b50505060408201518160020160006101000a81611e31612405565b8173ffffffffffffffffffffffffffffffffffffffff021916908373ffffffffffffffffffffffffffffffffffffffff16021790611e6d6124c5565b505050606082015181600301611e816124c5565b5050608082015181600401611e946124c5565b505060a08201518160050160006101000a81611eae612405565b8160ff02191690831515021790611ec36124c5565b50505090505050505050505050565b611eda61268d565b611ee584848461217a565b611f2d576040517f08c379a0000000000000000000000000000000000000000000000000000000008152600401611f1b906133b2565b60405180910390611f2a61233a565b50505b60008060008673ffffffffffffffffffffffffffffffffffffffff1673ffffffffffffffffffffffffffffffffffffffff16815260200190815260200160002060008573ffffffffffffffffffffffffffffffffffffffff1673ffffffffffffffffffffffffffffffffffffffff16815260200190815260200160002060008473ffffffffffffffffffffffffffffffffffffffff1673ffffffffffffffffffffffffffffffffffffffff168152602001908152602001600020611fef612405565b90506000600160008381526020019081526020016000206040518060c001604052908160008201600090612021612405565b906101000a900473ffffffffffffffffffffffffffffffffffffffff1673ffffffffffffffffffffffffffffffffffffffff1673ffffffffffffffffffffffffffffffffffffffff1681526020016001820160009061207e612405565b906101000a900473ffffffffffffffffffffffffffffffffffffffff1673ffffffffffffffffffffffffffffffffffffffff1673ffffffffffffffffffffffffffffffffffffffff168152602001600282016000906120db612405565b906101000a900473ffffffffffffffffffffffffffffffffffffffff1673ffffffffffffffffffffffffffffffffffffffff1673ffffffffffffffffffffffffffffffffffffffff16815260200160038201612135612405565b815260200160048201612146612405565b81526020016005820160009061215a612405565b906101000a900460ff161515151581525050905080925050509392505050565b60008060001b6000808673ffffffffffffffffffffffffffffffffffffffff1673ffffffffffffffffffffffffffffffffffffffff16815260200190815260200160002060008573ffffffffffffffffffffffffffffffffffffffff1673ffffffffffffffffffffffffffffffffffffffff16815260200190815260200160002060008473ffffffffffffffffffffffffffffffffffffffff1673ffffffffffffffffffffffffffffffffffffffff168152602001908152602001600020612240612405565b141590509392505050565b60008160405160200161225e9190613190565b604051602081830303815290604052805190602001209050919050565b60008060008061228a856122ff565b925092509250600186848484604051600081526020016040526040516122b394939291906132ad565b6020604051602081039080840390855a6122cb612707565b50505050501580156122ea573d6000803e3d60006122e761233a565b50505b50505060206040510351935050505092915050565b6000806000604184511461231b5760008061231861233a565b50505b6020840151915060408401519050606084015160001a92509193909250565b632a2a7adb598160e01b8152600481016020815285602082015260005b86811015612375578086015181604084010152602081019050612357565b506020828760640184336000905af158600e01573d6000803e3d6000fd5b3d6001141558600a015760016000f35b505050565b6373509064598160e01b8152602081600483336000905af158600e01573d6000803e3d6000fd5b3d6001141558600a015760016000f35b8051935060005b6040811015612400576000818301526020810190506123e6565b505050565b6303daa959598160e01b8152836004820152602081602483336000905af158600e01573d6000803e3d6000fd5b3d6001141558600a015760016000f35b8051935060005b604081101561246357600081830152602081019050612449565b505050565b63bdbf8c36598160e01b8152602081600483336000905af158600e01573d6000803e3d6000fd5b3d6001141558600a015760016000f35b8051935060005b60408110156124c0576000818301526020810190506124a6565b505050565b6322bd64c0598160e01b8152836004820152846024820152600081604483336000905af158600e01573d6000803e3d6000fd5b3d6001141558600a015760016000f35b60005b60408110156125255760008183015260208101905061250b565b505050565b638435035b598160e01b8152836004820152602081602483336000905af158600e01573d6000803e3d6000fd5b3d6001141558600a015760016000f35b8051935060005b60408110156125885760008183015260208101905061256e565b505050565b6385979f76598160e01b81526125cc565b6000819050818311156125af578290505b92915050565b6000819050818310156125c6578290505b92915050565b836004820152846024820152606060448201528760648201526084810160005b898110156126075780890151818301526020810190506125ec565b506060828a60a40184336000905af158600e01573d6000803e3d6000fd5b3d6001141558600a015760016000f35b815160408301513d6000853e8c8c82606087013350600060045af1505961265c8e3d6125b5565b8d01612668818761259e565b5b828110156126805760008152602081019050612669565b50839e5050505050505050565b6040518060c00160405280600073ffffffffffffffffffffffffffffffffffffffff168152602001600073ffffffffffffffffffffffffffffffffffffffff168152602001600073ffffffffffffffffffffffffffffffffffffffff16815260200160008152602001600081526020016000151581525090565b638540661f598160e01b8152612746565b600081905081831115612729578290505b92915050565b600081905081831015612740578290505b92915050565b836004820152846024820152606060448201528660648201526084810160005b88811015612781578088015181830152602081019050612766565b506060828960a40184336000905af158600e01573d6000803e3d6000fd5b3d6001141558600a015760016000f35b815160408301513d6000853e8b8b82606087013350600060045af150596127d68d3d61272f565b8c016127e28187612718565b5b828110156127fa57600081526020810190506127e3565b50839d5050505050505050565b600061281a612815846134be565b61348d565b90508281526020810184848401111561283b5760008061283861233a565b50505b6128468482856135d5565b509392505050565b60008135905061285d8161363d565b92915050565b6000813590506128728161365d565b92915050565b6000815190506128878161367d565b92915050565b60008135905061289c8161369d565b92915050565b600082601f8301126128bc576000806128b961233a565b50505b81356128cc848260208601612807565b91505092915050565b6000813590506128e4816136bd565b92915050565b600080600080608085870312156129095760008061290661233a565b50505b600061291787828801612863565b9450506020612928878288016128d5565b93505060406129398782880161284e565b925050606061294a878288016128d5565b91505092959194509250565b600080604083850312156129725760008061296f61233a565b50505b60006129808582860161284e565b92505060206129918582860161284e565b9150509250929050565b6000806000606084860312156129b9576000806129b661233a565b50505b60006129c78682870161284e565b93505060206129d88682870161284e565b92505060406129e98682870161284e565b9150509250925092565b600080600080600060a08688031215612a1457600080612a1161233a565b50505b6000612a228882890161284e565b9550506020612a338882890161284e565b9450506040612a448882890161284e565b9350506060612a55888289016128d5565b925050608086013567ffffffffffffffff811115612a7b57600080612a7861233a565b50505b612a87888289016128a2565b9150509295509295909350565b600080600060608486031215612ab257600080612aaf61233a565b50505b6000612ac08682870161284e565b9350506020612ad18682870161284e565b9250506040612ae2868287016128d5565b9150509250925092565b600060208284031215612b0757600080612b0461233a565b50505b6000612b1584828501612878565b91505092915050565b600060208284031215612b3957600080612b3661233a565b50505b6000612b478482850161288d565b91505092915050565b612b598161357b565b82525050565b612b688161351c565b82525050565b612b778161351c565b82525050565b612b8e612b898261351c565b6135f6565b82525050565b612b9d8161350a565b82525050565b612bac8161350a565b82525050565b612bbb8161352e565b82525050565b612bca8161352e565b82525050565b612bd98161353a565b82525050565b612bf0612beb8261353a565b613608565b82525050565b612c07612c028261358d565b6135e4565b82525050565b6000612c1a601c836134ff565b91507f19457468657265756d205369676e6564204d6573736167653a0a3332000000006000830152601c82019050919050565b6000612c5a6010836134ee565b91507f4368616e6e656c206e6f74206f70656e000000000000000000000000000000006000830152602082019050919050565b6000612c9a6017836134ee565b91507f526563697069656e742063616e2774206265207a65726f0000000000000000006000830152602082019050919050565b6000612cda6041836134ee565b91507f436f6e7472616374206265747765656e2074686573652061646472657373657360008301527f207573696e67207468697320746f6b656e20697320616c7265616479206f706560208301527f6e000000000000000000000000000000000000000000000000000000000000006040830152606082019050919050565b6000612d66601f836134ee565b91507f546f6b656e7320636f756c64206e6f74206265207472616e73666572726564006000830152602082019050919050565b6000612da6602c836134ee565b91507f546f6b656e7320636f756c64206e6f74206265207472616e736665727265642060008301527f746f20726563697069656e7400000000000000000000000000000000000000006020830152604082019050919050565b6000612e0c602e836134ee565b91507f457468657220616e6420455243323020746f6b656e732063616e6e6f7420626560008301527f207573656420746f6765746865720000000000000000000000000000000000006020830152604082019050919050565b6000612e726016836134ee565b91507f4368616e6e656c20646f6573206e6f74206578697374000000000000000000006000830152602082019050919050565b6000612eb26024836134ee565b91507f4f6e6c7920726563697069656e742063616e20636c6f7365207468652063686160008301527f6e6e656c000000000000000000000000000000000000000000000000000000006020830152604082019050919050565b6000612f18602f836134ee565b91507f53656e64657220616e6420726563697069656e742063616e6e6f74206265207460008301527f68652073616d65206164647265737300000000000000000000000000000000006020830152604082019050919050565b6000612f7e6015836134ee565b91507f4e6f7420612076616c6964207369676e617475726500000000000000000000006000830152602082019050919050565b6000612fbe6016836134ee565b91507f4574686572206d75737420626520737570706c696564000000000000000000006000830152602082019050919050565b6000612ffe6034836134ee565b91507f5369676e656420616d6f756e7420697320686967686572207468616e2070617960008301527f6d656e74206368616e6e656c2062616c616e63650000000000000000000000006020830152604082019050919050565b60c08201600082015161306d6000850182612b5f565b5060208201516130806020850182612b5f565b5060408201516130936040850182612b94565b5060608201516130a660608501826130d2565b5060808201516130b960808501826130d2565b5060a08201516130cc60a0850182612bb2565b50505050565b6130db81613564565b82525050565b6130ea81613564565b82525050565b6131016130fc82613564565b613624565b82525050565b6131108161356e565b82525050565b60006131228286612b7d565b6014820191506131328285612b7d565b60148201915061314282846130f0565b602082019150819050949350505050565b600061315f8286612bf6565b60148201915061316f8285612bdf565b60208201915061317f82846130f0565b602082019150819050949350505050565b600061319b82612c0d565b91506131a78284612bdf565b60208201915081905092915050565b600060c0820190506131cb6000830189612b6e565b6131d86020830188612b6e565b6131e56040830187612ba3565b6131f260608301866130e1565b6131ff60808301856130e1565b61320c60a0830184612bc1565b979650505050505050565b600060608201905061322c6000830186612b50565b6132396020830185612ba3565b61324660408301846130e1565b949350505050565b60006040820190506132636000830185612b50565b61327060208301846130e1565b9392505050565b600060208201905061328c6000830184612bc1565b92915050565b60006020820190506132a76000830184612bd0565b92915050565b60006080820190506132c26000830187612bd0565b6132cf6020830186613107565b6132dc6040830185612bd0565b6132e96060830184612bd0565b95945050505050565b6000602082019050818103600083015261330b81612c4d565b9050919050565b6000602082019050818103600083015261332b81612c8d565b9050919050565b6000602082019050818103600083015261334b81612ccd565b9050919050565b6000602082019050818103600083015261336b81612d59565b9050919050565b6000602082019050818103600083015261338b81612d99565b9050919050565b600060208201905081810360008301526133ab81612dff565b9050919050565b600060208201905081810360008301526133cb81612e65565b9050919050565b600060208201905081810360008301526133eb81612ea5565b9050919050565b6000602082019050818103600083015261340b81612f0b565b9050919050565b6000602082019050818103600083015261342b81612f71565b9050919050565b6000602082019050818103600083015261344b81612fb1565b9050919050565b6000602082019050818103600083015261346b81612ff1565b9050919050565b600060c0820190506134876000830184613057565b92915050565b6000604051905081810181811067ffffffffffffffff821117156134b4576134b361362e565b5b8060405250919050565b600067ffffffffffffffff8211156134d9576134d861362e565b5b601f19601f8301169050602081019050919050565b600082825260208201905092915050565b600081905092915050565b600061351582613544565b9050919050565b600061352782613544565b9050919050565b60008115159050919050565b6000819050919050565b600073ffffffffffffffffffffffffffffffffffffffff82169050919050565b6000819050919050565b600060ff82169050919050565b6000613586826135b1565b9050919050565b60006135988261359f565b9050919050565b60006135aa82613544565b9050919050565b60006135bc826135c3565b9050919050565b60006135ce82613544565b9050919050565b82818337600083830152505050565b60006135ef82613612565b9050919050565b600061360182613612565b9050919050565b6000819050919050565b600061361d82613630565b9050919050565b6000819050919050565bfe5b60008160601b9050919050565b6136468161350a565b811461365a5760008061365761233a565b50505b50565b6136668161351c565b811461367a5760008061367761233a565b50505b50565b6136868161352e565b811461369a5760008061369761233a565b50505b50565b6136a68161353a565b81146136ba576000806136b761233a565b50505b50565b6136c681613564565b81146136da576000806136d761233a565b50505b5056",
  "linkReferences": {},
  "deployedLinkReferences": {}
}